{"contracts/NewFruitMarketPlace.sol":{"NewFruitMarketPlace":{"abi":[{"anonymous":false,"inputs":[{"indexed":true,"internalType":"uint256","name":"fruitId","type":"uint256"},{"indexed":false,"internalType":"string","name":"name","type":"string"},{"indexed":false,"internalType":"uint256","name":"price","type":"uint256"}],"name":"FruitAdded","type":"event"},{"anonymous":false,"inputs":[{"indexed":true,"internalType":"uint256","name":"fruitId","type":"uint256"},{"indexed":false,"internalType":"uint256","name":"price","type":"uint256"}],"name":"FruitForSale","type":"event"},{"anonymous":false,"inputs":[{"indexed":true,"internalType":"uint256","name":"fruitId","type":"uint256"},{"indexed":true,"internalType":"address","name":"seller","type":"address"},{"indexed":true,"internalType":"address","name":"buyer","type":"address"},{"indexed":false,"internalType":"uint256","name":"price","type":"uint256"}],"name":"FruitSold","type":"event"},{"anonymous":false,"inputs":[{"indexed":true,"internalType":"address","name":"user","type":"address"}],"name":"Registration","type":"event"},{"anonymous":false,"inputs":[{"indexed":true,"internalType":"address","name":"seller","type":"address"},{"indexed":true,"internalType":"address","name":"buyer","type":"address"},{"indexed":false,"internalType":"uint8","name":"rating","type":"uint8"},{"indexed":false,"internalType":"string","name":"comment","type":"string"}],"name":"SellerRated","type":"event"},{"inputs":[{"internalType":"string","name":"_name","type":"string"},{"internalType":"uint256","name":"_price","type":"uint256"}],"name":"addFruit","outputs":[],"stateMutability":"nonpayable","type":"function"},{"inputs":[],"name":"createUser","outputs":[],"stateMutability":"nonpayable","type":"function"},{"inputs":[{"internalType":"uint256","name":"","type":"uint256"}],"name":"fruitIdToIndex","outputs":[{"internalType":"uint256","name":"","type":"uint256"}],"stateMutability":"view","type":"function"},{"inputs":[{"internalType":"string","name":"","type":"string"}],"name":"fruitNameExists","outputs":[{"internalType":"bool","name":"","type":"bool"}],"stateMutability":"view","type":"function"},{"inputs":[{"internalType":"uint256","name":"","type":"uint256"}],"name":"fruits","outputs":[{"internalType":"uint256","name":"id","type":"uint256"},{"internalType":"string","name":"name","type":"string"},{"internalType":"uint256","name":"price","type":"uint256"},{"internalType":"address","name":"owner","type":"address"},{"internalType":"bool","name":"forSale","type":"bool"}],"stateMutability":"view","type":"function"},{"inputs":[{"internalType":"uint256","name":"_fruitId","type":"uint256"}],"name":"getFruitForSale","outputs":[{"components":[{"internalType":"uint256","name":"id","type":"uint256"},{"internalType":"string","name":"name","type":"string"},{"internalType":"uint256","name":"price","type":"uint256"},{"internalType":"address","name":"owner","type":"address"},{"internalType":"bool","name":"forSale","type":"bool"}],"internalType":"struct NewFruitMarketPlace.Fruit","name":"","type":"tuple"}],"stateMutability":"view","type":"function"},{"inputs":[],"name":"getFruitsForSale","outputs":[{"internalType":"uint256[]","name":"","type":"uint256[]"}],"stateMutability":"view","type":"function"},{"inputs":[{"internalType":"uint256","name":"_fruitId","type":"uint256"}],"name":"getUserFruit","outputs":[{"components":[{"internalType":"uint256","name":"id","type":"uint256"},{"internalType":"string","name":"name","type":"string"},{"internalType":"uint256","name":"price","type":"uint256"},{"internalType":"address","name":"owner","type":"address"},{"internalType":"bool","name":"forSale","type":"bool"}],"internalType":"struct NewFruitMarketPlace.Fruit","name":"","type":"tuple"}],"stateMutability":"view","type":"function"},{"inputs":[],"name":"getUserFruits","outputs":[{"internalType":"uint256[]","name":"","type":"uint256[]"}],"stateMutability":"view","type":"function"},{"inputs":[],"name":"isRegistered","outputs":[{"internalType":"bool","name":"","type":"bool"}],"stateMutability":"view","type":"function"},{"inputs":[{"internalType":"uint256","name":"_fruitId","type":"uint256"},{"internalType":"uint256","name":"_price","type":"uint256"}],"name":"sellFruit","outputs":[],"stateMutability":"nonpayable","type":"function"},{"inputs":[{"internalType":"address","name":"","type":"address"},{"internalType":"uint256","name":"","type":"uint256"}],"name":"userFruits","outputs":[{"internalType":"uint256","name":"","type":"uint256"}],"stateMutability":"view","type":"function"},{"inputs":[{"internalType":"address","name":"","type":"address"}],"name":"users","outputs":[{"internalType":"bool","name":"isRegistered","type":"bool"}],"stateMutability":"view","type":"function"}],"evm":{"bytecode":{"linkReferences":{},"object":"60806040526000600155348015601457600080fd5b50611fa3806100246000396000f3fe608060405234801561001057600080fd5b50600436106100cf5760003560e01c80635ee96ead1161008c5780638580a834116100665780638580a83414610200578063a782b7c914610230578063a87430ba14610260578063c417216214610290576100cf565b80635ee96ead146101845780636d0811b5146101b457806374b4531a146101d0576100cf565b8063039dfac6146100d45780631b3f48e714610104578063223668441461012057806325ad91ce1461013e5780634427e1501461014857806356fe7c0b14610166575b600080fd5b6100ee60048036038101906100e99190611498565b6102c4565b6040516100fb91906114d4565b60405180910390f35b61011e60048036038101906101199190611635565b6102dc565b005b6101286105f6565b60405161013591906116ac565b60405180910390f35b61014661064d565b005b610150610742565b60405161015d9190611785565b60405180910390f35b61016e61090e565b60405161017b9190611785565b60405180910390f35b61019e60048036038101906101999190611805565b610a06565b6040516101ab91906114d4565b60405180910390f35b6101ce60048036038101906101c99190611845565b610a37565b005b6101ea60048036038101906101e59190611885565b610bce565b6040516101f791906116ac565b60405180910390f35b61021a60048036038101906102159190611498565b610c04565b60405161022791906119e1565b60405180910390f35b61024a60048036038101906102459190611498565b610eb8565b60405161025791906119e1565b60405180910390f35b61027a60048036038101906102759190611a03565b611189565b60405161028791906116ac565b60405180910390f35b6102aa60048036038101906102a59190611498565b6111b4565b6040516102bb959493929190611a89565b60405180910390f35b60056020528060005260406000206000915090505481565b6102e46105f6565b6040518060600160405280603e8152602001611f30603e91399061033e576040517f08c379a00000000000000000000000000000000000000000000000000000000081526004016103359190611ae3565b60405180910390fd5b5060028260405161034f9190611b41565b908152602001604051809103902060009054906101000a900460ff16156040518060400160405280601581526020017f467275697420616c7265616479206578697374732e0000000000000000000000815250906103e3576040517f08c379a00000000000000000000000000000000000000000000000000000000081526004016103da9190611ae3565b60405180910390fd5b506000600160008154809291906103f990611b87565b91905055905060016002846040516104119190611b41565b908152602001604051809103902060006101000a81548160ff021916908315150217905550600080549050600560008381526020019081526020016000208190555060006040518060a001604052808381526020018581526020018481526020013373ffffffffffffffffffffffffffffffffffffffff1681526020016000151581525090806001815401808255809150506001900390600052602060002090600402016000909190919091506000820151816000015560208201518160010190816104dd9190611ddb565b506040820151816002015560608201518160030160006101000a81548173ffffffffffffffffffffffffffffffffffffffff021916908373ffffffffffffffffffffffffffffffffffffffff16021790555060808201518160030160146101000a81548160ff0219169083151502179055505050600460003373ffffffffffffffffffffffffffffffffffffffff1673ffffffffffffffffffffffffffffffffffffffff168152602001908152602001600020819080600181540180825580915050600190039060005260206000200160009091909190915055807f739ce2e7a39c6bcaa33b49cfa6353b263c41f3722f21cd92b34d72f6c5b2d30984846040516105e9929190611ead565b60405180910390a2505050565b6000600360003373ffffffffffffffffffffffffffffffffffffffff1673ffffffffffffffffffffffffffffffffffffffff16815260200190815260200160002060000160009054906101000a900460ff16905090565b600360003373ffffffffffffffffffffffffffffffffffffffff1673ffffffffffffffffffffffffffffffffffffffff16815260200190815260200160002060000160009054906101000a900460ff16610740576001600360003373ffffffffffffffffffffffffffffffffffffffff1673ffffffffffffffffffffffffffffffffffffffff16815260200190815260200160002060000160006101000a81548160ff0219169083151502179055503373ffffffffffffffffffffffffffffffffffffffff167f478f5152d8fc568db3f8de9fb402fd9d98a1a7541ecfe434e59cf574fbfc552460405160405180910390a25b565b606061074c6105f6565b6040518060600160405280603e8152602001611f30603e9139906107a6576040517f08c379a000000000000000000000000000000000000000000000000000000000815260040161079d9190611ae3565b60405180910390fd5b506000805b60008054905081101561080c57600081815481106107cc576107cb611edd565b5b906000526020600020906004020160030160149054906101000a900460ff16156107ff5781806107fb90611b87565b9250505b80806001019150506107ab565b5060008167ffffffffffffffff8111156108295761082861150a565b5b6040519080825280602002602001820160405280156108575781602001602082028036833780820191505090505b5090506000805b600080549050811015610904576000818154811061087f5761087e611edd565b5b906000526020600020906004020160030160149054906101000a900460ff16156108f757600081815481106108b7576108b6611edd565b5b9060005260206000209060040201600001548383815181106108dc576108db611edd565b5b60200260200101818152505081806108f390611b87565b9250505b808060010191505061085e565b5081935050505090565b60606109186105f6565b6040518060600160405280603e8152602001611f30603e913990610972576040517f08c379a00000000000000000000000000000000000000000000000000000000081526004016109699190611ae3565b60405180910390fd5b50600460003373ffffffffffffffffffffffffffffffffffffffff1673ffffffffffffffffffffffffffffffffffffffff1681526020019081526020016000208054806020026020016040519081016040528092919081815260200182805480156109fc57602002820191906000526020600020905b8154815260200190600101908083116109e8575b5050505050905090565b60046020528160005260406000208181548110610a2257600080fd5b90600052602060002001600091509150505481565b610a40826112af565b6040518060400160405280601881526020017f54686520667275697420646f6573206e6f74206578697374000000000000000081525090610ab7576040517f08c379a0000000000000000000000000000000000000000000000000000000008152600401610aae9190611ae3565b60405180910390fd5b506000610ac38361132a565b9050610ace81611347565b604051806060016040528060238152602001611f0d6023913990610b28576040517f08c379a0000000000000000000000000000000000000000000000000000000008152600401610b1f9190611ae3565b60405180910390fd5b50600160008281548110610b3f57610b3e611edd565b5b906000526020600020906004020160030160146101000a81548160ff0219169083151502179055508160008281548110610b7c57610b7b611edd565b5b906000526020600020906004020160020181905550827f12837b86d796be7cebf41bb928648910d81a15528850a24e043963cb4e3aae4283604051610bc191906114d4565b60405180910390a2505050565b6002818051602081018201805184825260208301602085012081835280955050505050506000915054906101000a900460ff1681565b610c0c611407565b610c146105f6565b6040518060600160405280603e8152602001611f30603e913990610c6e576040517f08c379a0000000000000000000000000000000000000000000000000000000008152600401610c659190611ae3565b60405180910390fd5b50610c78826112af565b6040518060400160405280601881526020017f54686520667275697420646f6573206e6f74206578697374000000000000000081525090610cef576040517f08c379a0000000000000000000000000000000000000000000000000000000008152600401610ce69190611ae3565b60405180910390fd5b50600060056000848152602001908152602001600020549050610d1181611347565b604051806060016040528060238152602001611f0d6023913990610d6b576040517f08c379a0000000000000000000000000000000000000000000000000000000008152600401610d629190611ae3565b60405180910390fd5b5060008181548110610d8057610d7f611edd565b5b90600052602060002090600402016040518060a001604052908160008201548152602001600182018054610db390611bfe565b80601f0160208091040260200160405190810160405280929190818152602001828054610ddf90611bfe565b8015610e2c5780601f10610e0157610100808354040283529160200191610e2c565b820191906000526020600020905b815481529060010190602001808311610e0f57829003601f168201915b50505050508152602001600282015481526020016003820160009054906101000a900473ffffffffffffffffffffffffffffffffffffffff1673ffffffffffffffffffffffffffffffffffffffff1673ffffffffffffffffffffffffffffffffffffffff1681526020016003820160149054906101000a900460ff161515151581525050915050919050565b610ec0611407565b610ec86105f6565b6040518060600160405280603e8152602001611f30603e913990610f22576040517f08c379a0000000000000000000000000000000000000000000000000000000008152600401610f199190611ae3565b60405180910390fd5b50610f2c826112af565b6040518060400160405280601881526020017f54686520667275697420646f6573206e6f74206578697374000000000000000081525090610fa3576040517f08c379a0000000000000000000000000000000000000000000000000000000008152600401610f9a9190611ae3565b60405180910390fd5b50600060056000848152602001908152602001600020549050610fc5816113c4565b6040518060400160405280601b81526020017f54686973206672756974206973206e6f7420666f722073616c652100000000008152509061103c576040517f08c379a00000000000000000000000000000000000000000000000000000000081526004016110339190611ae3565b60405180910390fd5b506000818154811061105157611050611edd565b5b90600052602060002090600402016040518060a00160405290816000820154815260200160018201805461108490611bfe565b80601f01602080910402602001604051908101604052809291908181526020018280546110b090611bfe565b80156110fd5780601f106110d2576101008083540402835291602001916110fd565b820191906000526020600020905b8154815290600101906020018083116110e057829003601f168201915b50505050508152602001600282015481526020016003820160009054906101000a900473ffffffffffffffffffffffffffffffffffffffff1673ffffffffffffffffffffffffffffffffffffffff1673ffffffffffffffffffffffffffffffffffffffff1681526020016003820160149054906101000a900460ff161515151581525050915050919050565b60036020528060005260406000206000915090508060000160009054906101000a900460ff16905081565b600081815481106111c457600080fd5b90600052602060002090600402016000915090508060000154908060010180546111ed90611bfe565b80601f016020809104026020016040519081016040528092919081815260200182805461121990611bfe565b80156112665780601f1061123b57610100808354040283529160200191611266565b820191906000526020600020905b81548152906001019060200180831161124957829003601f168201915b5050505050908060020154908060030160009054906101000a900473ffffffffffffffffffffffffffffffffffffffff16908060030160149054906101000a900460ff16905085565b60008080549050600560008481526020019081526020016000205410156113205760006005600084815260200190815260200160002054905082600082815481106112fd576112fc611edd565b5b9060005260206000209060040201600001540361131e576001915050611325565b505b600090505b919050565b600060056000838152602001908152602001600020549050919050565b60003373ffffffffffffffffffffffffffffffffffffffff166000838154811061137457611373611edd565b5b906000526020600020906004020160030160009054906101000a900473ffffffffffffffffffffffffffffffffffffffff1673ffffffffffffffffffffffffffffffffffffffff16149050919050565b600060011515600083815481106113de576113dd611edd565b5b906000526020600020906004020160030160149054906101000a900460ff161515149050919050565b6040518060a00160405280600081526020016060815260200160008152602001600073ffffffffffffffffffffffffffffffffffffffff1681526020016000151581525090565b6000604051905090565b600080fd5b600080fd5b6000819050919050565b61147581611462565b811461148057600080fd5b50565b6000813590506114928161146c565b92915050565b6000602082840312156114ae576114ad611458565b5b60006114bc84828501611483565b91505092915050565b6114ce81611462565b82525050565b60006020820190506114e960008301846114c5565b92915050565b600080fd5b600080fd5b6000601f19601f8301169050919050565b7f4e487b7100000000000000000000000000000000000000000000000000000000600052604160045260246000fd5b611542826114f9565b810181811067ffffffffffffffff821117156115615761156061150a565b5b80604052505050565b600061157461144e565b90506115808282611539565b919050565b600067ffffffffffffffff8211156115a05761159f61150a565b5b6115a9826114f9565b9050602081019050919050565b82818337600083830152505050565b60006115d86115d384611585565b61156a565b9050828152602081018484840111156115f4576115f36114f4565b5b6115ff8482856115b6565b509392505050565b600082601f83011261161c5761161b6114ef565b5b813561162c8482602086016115c5565b91505092915050565b6000806040838503121561164c5761164b611458565b5b600083013567ffffffffffffffff81111561166a5761166961145d565b5b61167685828601611607565b925050602061168785828601611483565b9150509250929050565b60008115159050919050565b6116a681611691565b82525050565b60006020820190506116c1600083018461169d565b92915050565b600081519050919050565b600082825260208201905092915050565b6000819050602082019050919050565b6116fc81611462565b82525050565b600061170e83836116f3565b60208301905092915050565b6000602082019050919050565b6000611732826116c7565b61173c81856116d2565b9350611747836116e3565b8060005b8381101561177857815161175f8882611702565b975061176a8361171a565b92505060018101905061174b565b5085935050505092915050565b6000602082019050818103600083015261179f8184611727565b905092915050565b600073ffffffffffffffffffffffffffffffffffffffff82169050919050565b60006117d2826117a7565b9050919050565b6117e2816117c7565b81146117ed57600080fd5b50565b6000813590506117ff816117d9565b92915050565b6000806040838503121561181c5761181b611458565b5b600061182a858286016117f0565b925050602061183b85828601611483565b9150509250929050565b6000806040838503121561185c5761185b611458565b5b600061186a85828601611483565b925050602061187b85828601611483565b9150509250929050565b60006020828403121561189b5761189a611458565b5b600082013567ffffffffffffffff8111156118b9576118b861145d565b5b6118c584828501611607565b91505092915050565b600081519050919050565b600082825260208201905092915050565b60005b838110156119085780820151818401526020810190506118ed565b60008484015250505050565b600061191f826118ce565b61192981856118d9565b93506119398185602086016118ea565b611942816114f9565b840191505092915050565b611956816117c7565b82525050565b61196581611691565b82525050565b600060a08301600083015161198360008601826116f3565b506020830151848203602086015261199b8282611914565b91505060408301516119b060408601826116f3565b5060608301516119c3606086018261194d565b5060808301516119d6608086018261195c565b508091505092915050565b600060208201905081810360008301526119fb818461196b565b905092915050565b600060208284031215611a1957611a18611458565b5b6000611a27848285016117f0565b91505092915050565b600082825260208201905092915050565b6000611a4c826118ce565b611a568185611a30565b9350611a668185602086016118ea565b611a6f816114f9565b840191505092915050565b611a83816117c7565b82525050565b600060a082019050611a9e60008301886114c5565b8181036020830152611ab08187611a41565b9050611abf60408301866114c5565b611acc6060830185611a7a565b611ad9608083018461169d565b9695505050505050565b60006020820190508181036000830152611afd8184611a41565b905092915050565b600081905092915050565b6000611b1b826118ce565b611b258185611b05565b9350611b358185602086016118ea565b80840191505092915050565b6000611b4d8284611b10565b915081905092915050565b7f4e487b7100000000000000000000000000000000000000000000000000000000600052601160045260246000fd5b6000611b9282611462565b91507fffffffffffffffffffffffffffffffffffffffffffffffffffffffffffffffff8203611bc457611bc3611b58565b5b600182019050919050565b7f4e487b7100000000000000000000000000000000000000000000000000000000600052602260045260246000fd5b60006002820490506001821680611c1657607f821691505b602082108103611c2957611c28611bcf565b5b50919050565b60008190508160005260206000209050919050565b60006020601f8301049050919050565b600082821b905092915050565b600060088302611c917fffffffffffffffffffffffffffffffffffffffffffffffffffffffffffffffff82611c54565b611c9b8683611c54565b95508019841693508086168417925050509392505050565b6000819050919050565b6000611cd8611cd3611cce84611462565b611cb3565b611462565b9050919050565b6000819050919050565b611cf283611cbd565b611d06611cfe82611cdf565b848454611c61565b825550505050565b600090565b611d1b611d0e565b611d26818484611ce9565b505050565b5b81811015611d4a57611d3f600082611d13565b600181019050611d2c565b5050565b601f821115611d8f57611d6081611c2f565b611d6984611c44565b81016020851015611d78578190505b611d8c611d8485611c44565b830182611d2b565b50505b505050565b600082821c905092915050565b6000611db260001984600802611d94565b1980831691505092915050565b6000611dcb8383611da1565b9150826002028217905092915050565b611de4826118ce565b67ffffffffffffffff811115611dfd57611dfc61150a565b5b611e078254611bfe565b611e12828285611d4e565b600060209050601f831160018114611e455760008415611e33578287015190505b611e3d8582611dbf565b865550611ea5565b601f198416611e5386611c2f565b60005b82811015611e7b57848901518255600182019150602085019450602081019050611e56565b86831015611e985784890151611e94601f891682611da1565b8355505b6001600288020188555050505b505050505050565b60006040820190508181036000830152611ec78185611a41565b9050611ed660208301846114c5565b9392505050565b7f4e487b7100000000000000000000000000000000000000000000000000000000600052603260045260246000fdfe596f7520617265206e6f7420746865206f776e6572206f66207468697320667275697455736572206973206e6f7420726567697374657265642c20796f7520617265206e6f7420616c6c6f77656420746f20646f207468697320616374696f6e2ea2646970667358221220a2b961e2b872c546aabfb50017d961efda67a28e6b95a8d3c52921ce0010118f64736f6c634300081c0033","opcodes":"PUSH1 0x80 PUSH1 0x40 MSTORE PUSH1 0x0 PUSH1 0x1 SSTORE CALLVALUE DUP1 ISZERO PUSH1 0x14 JUMPI PUSH1 0x0 DUP1 REVERT JUMPDEST POP PUSH2 0x1FA3 DUP1 PUSH2 0x24 PUSH1 0x0 CODECOPY PUSH1 0x0 RETURN INVALID PUSH1 0x80 PUSH1 0x40 MSTORE CALLVALUE DUP1 ISZERO PUSH2 0x10 JUMPI PUSH1 0x0 DUP1 REVERT JUMPDEST POP PUSH1 0x4 CALLDATASIZE LT PUSH2 0xCF JUMPI PUSH1 0x0 CALLDATALOAD PUSH1 0xE0 SHR DUP1 PUSH4 0x5EE96EAD GT PUSH2 0x8C JUMPI DUP1 PUSH4 0x8580A834 GT PUSH2 0x66 JUMPI DUP1 PUSH4 0x8580A834 EQ PUSH2 0x200 JUMPI DUP1 PUSH4 0xA782B7C9 EQ PUSH2 0x230 JUMPI DUP1 PUSH4 0xA87430BA EQ PUSH2 0x260 JUMPI DUP1 PUSH4 0xC4172162 EQ PUSH2 0x290 JUMPI PUSH2 0xCF JUMP JUMPDEST DUP1 PUSH4 0x5EE96EAD EQ PUSH2 0x184 JUMPI DUP1 PUSH4 0x6D0811B5 EQ PUSH2 0x1B4 JUMPI DUP1 PUSH4 0x74B4531A EQ PUSH2 0x1D0 JUMPI PUSH2 0xCF JUMP JUMPDEST DUP1 PUSH4 0x39DFAC6 EQ PUSH2 0xD4 JUMPI DUP1 PUSH4 0x1B3F48E7 EQ PUSH2 0x104 JUMPI DUP1 PUSH4 0x22366844 EQ PUSH2 0x120 JUMPI DUP1 PUSH4 0x25AD91CE EQ PUSH2 0x13E JUMPI DUP1 PUSH4 0x4427E150 EQ PUSH2 0x148 JUMPI DUP1 PUSH4 0x56FE7C0B EQ PUSH2 0x166 JUMPI JUMPDEST PUSH1 0x0 DUP1 REVERT JUMPDEST PUSH2 0xEE PUSH1 0x4 DUP1 CALLDATASIZE SUB DUP2 ADD SWAP1 PUSH2 0xE9 SWAP2 SWAP1 PUSH2 0x1498 JUMP JUMPDEST PUSH2 0x2C4 JUMP JUMPDEST PUSH1 0x40 MLOAD PUSH2 0xFB SWAP2 SWAP1 PUSH2 0x14D4 JUMP JUMPDEST PUSH1 0x40 MLOAD DUP1 SWAP2 SUB SWAP1 RETURN JUMPDEST PUSH2 0x11E PUSH1 0x4 DUP1 CALLDATASIZE SUB DUP2 ADD SWAP1 PUSH2 0x119 SWAP2 SWAP1 PUSH2 0x1635 JUMP JUMPDEST PUSH2 0x2DC JUMP JUMPDEST STOP JUMPDEST PUSH2 0x128 PUSH2 0x5F6 JUMP JUMPDEST PUSH1 0x40 MLOAD PUSH2 0x135 SWAP2 SWAP1 PUSH2 0x16AC JUMP JUMPDEST PUSH1 0x40 MLOAD DUP1 SWAP2 SUB SWAP1 RETURN JUMPDEST PUSH2 0x146 PUSH2 0x64D JUMP JUMPDEST STOP JUMPDEST PUSH2 0x150 PUSH2 0x742 JUMP JUMPDEST PUSH1 0x40 MLOAD PUSH2 0x15D SWAP2 SWAP1 PUSH2 0x1785 JUMP JUMPDEST PUSH1 0x40 MLOAD DUP1 SWAP2 SUB SWAP1 RETURN JUMPDEST PUSH2 0x16E PUSH2 0x90E JUMP JUMPDEST PUSH1 0x40 MLOAD PUSH2 0x17B SWAP2 SWAP1 PUSH2 0x1785 JUMP JUMPDEST PUSH1 0x40 MLOAD DUP1 SWAP2 SUB SWAP1 RETURN JUMPDEST PUSH2 0x19E PUSH1 0x4 DUP1 CALLDATASIZE SUB DUP2 ADD SWAP1 PUSH2 0x199 SWAP2 SWAP1 PUSH2 0x1805 JUMP JUMPDEST PUSH2 0xA06 JUMP JUMPDEST PUSH1 0x40 MLOAD PUSH2 0x1AB SWAP2 SWAP1 PUSH2 0x14D4 JUMP JUMPDEST PUSH1 0x40 MLOAD DUP1 SWAP2 SUB SWAP1 RETURN JUMPDEST PUSH2 0x1CE PUSH1 0x4 DUP1 CALLDATASIZE SUB DUP2 ADD SWAP1 PUSH2 0x1C9 SWAP2 SWAP1 PUSH2 0x1845 JUMP JUMPDEST PUSH2 0xA37 JUMP JUMPDEST STOP JUMPDEST PUSH2 0x1EA PUSH1 0x4 DUP1 CALLDATASIZE SUB DUP2 ADD SWAP1 PUSH2 0x1E5 SWAP2 SWAP1 PUSH2 0x1885 JUMP JUMPDEST PUSH2 0xBCE JUMP JUMPDEST PUSH1 0x40 MLOAD PUSH2 0x1F7 SWAP2 SWAP1 PUSH2 0x16AC JUMP JUMPDEST PUSH1 0x40 MLOAD DUP1 SWAP2 SUB SWAP1 RETURN JUMPDEST PUSH2 0x21A PUSH1 0x4 DUP1 CALLDATASIZE SUB DUP2 ADD SWAP1 PUSH2 0x215 SWAP2 SWAP1 PUSH2 0x1498 JUMP JUMPDEST PUSH2 0xC04 JUMP JUMPDEST PUSH1 0x40 MLOAD PUSH2 0x227 SWAP2 SWAP1 PUSH2 0x19E1 JUMP JUMPDEST PUSH1 0x40 MLOAD DUP1 SWAP2 SUB SWAP1 RETURN JUMPDEST PUSH2 0x24A PUSH1 0x4 DUP1 CALLDATASIZE SUB DUP2 ADD SWAP1 PUSH2 0x245 SWAP2 SWAP1 PUSH2 0x1498 JUMP JUMPDEST PUSH2 0xEB8 JUMP JUMPDEST PUSH1 0x40 MLOAD PUSH2 0x257 SWAP2 SWAP1 PUSH2 0x19E1 JUMP JUMPDEST PUSH1 0x40 MLOAD DUP1 SWAP2 SUB SWAP1 RETURN JUMPDEST PUSH2 0x27A PUSH1 0x4 DUP1 CALLDATASIZE SUB DUP2 ADD SWAP1 PUSH2 0x275 SWAP2 SWAP1 PUSH2 0x1A03 JUMP JUMPDEST PUSH2 0x1189 JUMP JUMPDEST PUSH1 0x40 MLOAD PUSH2 0x287 SWAP2 SWAP1 PUSH2 0x16AC JUMP JUMPDEST PUSH1 0x40 MLOAD DUP1 SWAP2 SUB SWAP1 RETURN JUMPDEST PUSH2 0x2AA PUSH1 0x4 DUP1 CALLDATASIZE SUB DUP2 ADD SWAP1 PUSH2 0x2A5 SWAP2 SWAP1 PUSH2 0x1498 JUMP JUMPDEST PUSH2 0x11B4 JUMP JUMPDEST PUSH1 0x40 MLOAD PUSH2 0x2BB SWAP6 SWAP5 SWAP4 SWAP3 SWAP2 SWAP1 PUSH2 0x1A89 JUMP JUMPDEST PUSH1 0x40 MLOAD DUP1 SWAP2 SUB SWAP1 RETURN JUMPDEST PUSH1 0x5 PUSH1 0x20 MSTORE DUP1 PUSH1 0x0 MSTORE PUSH1 0x40 PUSH1 0x0 KECCAK256 PUSH1 0x0 SWAP2 POP SWAP1 POP SLOAD DUP2 JUMP JUMPDEST PUSH2 0x2E4 PUSH2 0x5F6 JUMP JUMPDEST PUSH1 0x40 MLOAD DUP1 PUSH1 0x60 ADD PUSH1 0x40 MSTORE DUP1 PUSH1 0x3E DUP2 MSTORE PUSH1 0x20 ADD PUSH2 0x1F30 PUSH1 0x3E SWAP2 CODECOPY SWAP1 PUSH2 0x33E JUMPI PUSH1 0x40 MLOAD PUSH32 0x8C379A000000000000000000000000000000000000000000000000000000000 DUP2 MSTORE PUSH1 0x4 ADD PUSH2 0x335 SWAP2 SWAP1 PUSH2 0x1AE3 JUMP JUMPDEST PUSH1 0x40 MLOAD DUP1 SWAP2 SUB SWAP1 REVERT JUMPDEST POP PUSH1 0x2 DUP3 PUSH1 0x40 MLOAD PUSH2 0x34F SWAP2 SWAP1 PUSH2 0x1B41 JUMP JUMPDEST SWAP1 DUP2 MSTORE PUSH1 0x20 ADD PUSH1 0x40 MLOAD DUP1 SWAP2 SUB SWAP1 KECCAK256 PUSH1 0x0 SWAP1 SLOAD SWAP1 PUSH2 0x100 EXP SWAP1 DIV PUSH1 0xFF AND ISZERO PUSH1 0x40 MLOAD DUP1 PUSH1 0x40 ADD PUSH1 0x40 MSTORE DUP1 PUSH1 0x15 DUP2 MSTORE PUSH1 0x20 ADD PUSH32 0x467275697420616C7265616479206578697374732E0000000000000000000000 DUP2 MSTORE POP SWAP1 PUSH2 0x3E3 JUMPI PUSH1 0x40 MLOAD PUSH32 0x8C379A000000000000000000000000000000000000000000000000000000000 DUP2 MSTORE PUSH1 0x4 ADD PUSH2 0x3DA SWAP2 SWAP1 PUSH2 0x1AE3 JUMP JUMPDEST PUSH1 0x40 MLOAD DUP1 SWAP2 SUB SWAP1 REVERT JUMPDEST POP PUSH1 0x0 PUSH1 0x1 PUSH1 0x0 DUP2 SLOAD DUP1 SWAP3 SWAP2 SWAP1 PUSH2 0x3F9 SWAP1 PUSH2 0x1B87 JUMP JUMPDEST SWAP2 SWAP1 POP SSTORE SWAP1 POP PUSH1 0x1 PUSH1 0x2 DUP5 PUSH1 0x40 MLOAD PUSH2 0x411 SWAP2 SWAP1 PUSH2 0x1B41 JUMP JUMPDEST SWAP1 DUP2 MSTORE PUSH1 0x20 ADD PUSH1 0x40 MLOAD DUP1 SWAP2 SUB SWAP1 KECCAK256 PUSH1 0x0 PUSH2 0x100 EXP DUP2 SLOAD DUP2 PUSH1 0xFF MUL NOT AND SWAP1 DUP4 ISZERO ISZERO MUL OR SWAP1 SSTORE POP PUSH1 0x0 DUP1 SLOAD SWAP1 POP PUSH1 0x5 PUSH1 0x0 DUP4 DUP2 MSTORE PUSH1 0x20 ADD SWAP1 DUP2 MSTORE PUSH1 0x20 ADD PUSH1 0x0 KECCAK256 DUP2 SWAP1 SSTORE POP PUSH1 0x0 PUSH1 0x40 MLOAD DUP1 PUSH1 0xA0 ADD PUSH1 0x40 MSTORE DUP1 DUP4 DUP2 MSTORE PUSH1 0x20 ADD DUP6 DUP2 MSTORE PUSH1 0x20 ADD DUP5 DUP2 MSTORE PUSH1 0x20 ADD CALLER PUSH20 0xFFFFFFFFFFFFFFFFFFFFFFFFFFFFFFFFFFFFFFFF AND DUP2 MSTORE PUSH1 0x20 ADD PUSH1 0x0 ISZERO ISZERO DUP2 MSTORE POP SWAP1 DUP1 PUSH1 0x1 DUP2 SLOAD ADD DUP1 DUP3 SSTORE DUP1 SWAP2 POP POP PUSH1 0x1 SWAP1 SUB SWAP1 PUSH1 0x0 MSTORE PUSH1 0x20 PUSH1 0x0 KECCAK256 SWAP1 PUSH1 0x4 MUL ADD PUSH1 0x0 SWAP1 SWAP2 SWAP1 SWAP2 SWAP1 SWAP2 POP PUSH1 0x0 DUP3 ADD MLOAD DUP2 PUSH1 0x0 ADD SSTORE PUSH1 0x20 DUP3 ADD MLOAD DUP2 PUSH1 0x1 ADD SWAP1 DUP2 PUSH2 0x4DD SWAP2 SWAP1 PUSH2 0x1DDB JUMP JUMPDEST POP PUSH1 0x40 DUP3 ADD MLOAD DUP2 PUSH1 0x2 ADD SSTORE PUSH1 0x60 DUP3 ADD MLOAD DUP2 PUSH1 0x3 ADD PUSH1 0x0 PUSH2 0x100 EXP DUP2 SLOAD DUP2 PUSH20 0xFFFFFFFFFFFFFFFFFFFFFFFFFFFFFFFFFFFFFFFF MUL NOT AND SWAP1 DUP4 PUSH20 0xFFFFFFFFFFFFFFFFFFFFFFFFFFFFFFFFFFFFFFFF AND MUL OR SWAP1 SSTORE POP PUSH1 0x80 DUP3 ADD MLOAD DUP2 PUSH1 0x3 ADD PUSH1 0x14 PUSH2 0x100 EXP DUP2 SLOAD DUP2 PUSH1 0xFF MUL NOT AND SWAP1 DUP4 ISZERO ISZERO MUL OR SWAP1 SSTORE POP POP POP PUSH1 0x4 PUSH1 0x0 CALLER PUSH20 0xFFFFFFFFFFFFFFFFFFFFFFFFFFFFFFFFFFFFFFFF AND PUSH20 0xFFFFFFFFFFFFFFFFFFFFFFFFFFFFFFFFFFFFFFFF AND DUP2 MSTORE PUSH1 0x20 ADD SWAP1 DUP2 MSTORE PUSH1 0x20 ADD PUSH1 0x0 KECCAK256 DUP2 SWAP1 DUP1 PUSH1 0x1 DUP2 SLOAD ADD DUP1 DUP3 SSTORE DUP1 SWAP2 POP POP PUSH1 0x1 SWAP1 SUB SWAP1 PUSH1 0x0 MSTORE PUSH1 0x20 PUSH1 0x0 KECCAK256 ADD PUSH1 0x0 SWAP1 SWAP2 SWAP1 SWAP2 SWAP1 SWAP2 POP SSTORE DUP1 PUSH32 0x739CE2E7A39C6BCAA33B49CFA6353B263C41F3722F21CD92B34D72F6C5B2D309 DUP5 DUP5 PUSH1 0x40 MLOAD PUSH2 0x5E9 SWAP3 SWAP2 SWAP1 PUSH2 0x1EAD JUMP JUMPDEST PUSH1 0x40 MLOAD DUP1 SWAP2 SUB SWAP1 LOG2 POP POP POP JUMP JUMPDEST PUSH1 0x0 PUSH1 0x3 PUSH1 0x0 CALLER PUSH20 0xFFFFFFFFFFFFFFFFFFFFFFFFFFFFFFFFFFFFFFFF AND PUSH20 0xFFFFFFFFFFFFFFFFFFFFFFFFFFFFFFFFFFFFFFFF AND DUP2 MSTORE PUSH1 0x20 ADD SWAP1 DUP2 MSTORE PUSH1 0x20 ADD PUSH1 0x0 KECCAK256 PUSH1 0x0 ADD PUSH1 0x0 SWAP1 SLOAD SWAP1 PUSH2 0x100 EXP SWAP1 DIV PUSH1 0xFF AND SWAP1 POP SWAP1 JUMP JUMPDEST PUSH1 0x3 PUSH1 0x0 CALLER PUSH20 0xFFFFFFFFFFFFFFFFFFFFFFFFFFFFFFFFFFFFFFFF AND PUSH20 0xFFFFFFFFFFFFFFFFFFFFFFFFFFFFFFFFFFFFFFFF AND DUP2 MSTORE PUSH1 0x20 ADD SWAP1 DUP2 MSTORE PUSH1 0x20 ADD PUSH1 0x0 KECCAK256 PUSH1 0x0 ADD PUSH1 0x0 SWAP1 SLOAD SWAP1 PUSH2 0x100 EXP SWAP1 DIV PUSH1 0xFF AND PUSH2 0x740 JUMPI PUSH1 0x1 PUSH1 0x3 PUSH1 0x0 CALLER PUSH20 0xFFFFFFFFFFFFFFFFFFFFFFFFFFFFFFFFFFFFFFFF AND PUSH20 0xFFFFFFFFFFFFFFFFFFFFFFFFFFFFFFFFFFFFFFFF AND DUP2 MSTORE PUSH1 0x20 ADD SWAP1 DUP2 MSTORE PUSH1 0x20 ADD PUSH1 0x0 KECCAK256 PUSH1 0x0 ADD PUSH1 0x0 PUSH2 0x100 EXP DUP2 SLOAD DUP2 PUSH1 0xFF MUL NOT AND SWAP1 DUP4 ISZERO ISZERO MUL OR SWAP1 SSTORE POP CALLER PUSH20 0xFFFFFFFFFFFFFFFFFFFFFFFFFFFFFFFFFFFFFFFF AND PUSH32 0x478F5152D8FC568DB3F8DE9FB402FD9D98A1A7541ECFE434E59CF574FBFC5524 PUSH1 0x40 MLOAD PUSH1 0x40 MLOAD DUP1 SWAP2 SUB SWAP1 LOG2 JUMPDEST JUMP JUMPDEST PUSH1 0x60 PUSH2 0x74C PUSH2 0x5F6 JUMP JUMPDEST PUSH1 0x40 MLOAD DUP1 PUSH1 0x60 ADD PUSH1 0x40 MSTORE DUP1 PUSH1 0x3E DUP2 MSTORE PUSH1 0x20 ADD PUSH2 0x1F30 PUSH1 0x3E SWAP2 CODECOPY SWAP1 PUSH2 0x7A6 JUMPI PUSH1 0x40 MLOAD PUSH32 0x8C379A000000000000000000000000000000000000000000000000000000000 DUP2 MSTORE PUSH1 0x4 ADD PUSH2 0x79D SWAP2 SWAP1 PUSH2 0x1AE3 JUMP JUMPDEST PUSH1 0x40 MLOAD DUP1 SWAP2 SUB SWAP1 REVERT JUMPDEST POP PUSH1 0x0 DUP1 JUMPDEST PUSH1 0x0 DUP1 SLOAD SWAP1 POP DUP2 LT ISZERO PUSH2 0x80C JUMPI PUSH1 0x0 DUP2 DUP2 SLOAD DUP2 LT PUSH2 0x7CC JUMPI PUSH2 0x7CB PUSH2 0x1EDD JUMP JUMPDEST JUMPDEST SWAP1 PUSH1 0x0 MSTORE PUSH1 0x20 PUSH1 0x0 KECCAK256 SWAP1 PUSH1 0x4 MUL ADD PUSH1 0x3 ADD PUSH1 0x14 SWAP1 SLOAD SWAP1 PUSH2 0x100 EXP SWAP1 DIV PUSH1 0xFF AND ISZERO PUSH2 0x7FF JUMPI DUP2 DUP1 PUSH2 0x7FB SWAP1 PUSH2 0x1B87 JUMP JUMPDEST SWAP3 POP POP JUMPDEST DUP1 DUP1 PUSH1 0x1 ADD SWAP2 POP POP PUSH2 0x7AB JUMP JUMPDEST POP PUSH1 0x0 DUP2 PUSH8 0xFFFFFFFFFFFFFFFF DUP2 GT ISZERO PUSH2 0x829 JUMPI PUSH2 0x828 PUSH2 0x150A JUMP JUMPDEST JUMPDEST PUSH1 0x40 MLOAD SWAP1 DUP1 DUP3 MSTORE DUP1 PUSH1 0x20 MUL PUSH1 0x20 ADD DUP3 ADD PUSH1 0x40 MSTORE DUP1 ISZERO PUSH2 0x857 JUMPI DUP2 PUSH1 0x20 ADD PUSH1 0x20 DUP3 MUL DUP1 CALLDATASIZE DUP4 CALLDATACOPY DUP1 DUP3 ADD SWAP2 POP POP SWAP1 POP JUMPDEST POP SWAP1 POP PUSH1 0x0 DUP1 JUMPDEST PUSH1 0x0 DUP1 SLOAD SWAP1 POP DUP2 LT ISZERO PUSH2 0x904 JUMPI PUSH1 0x0 DUP2 DUP2 SLOAD DUP2 LT PUSH2 0x87F JUMPI PUSH2 0x87E PUSH2 0x1EDD JUMP JUMPDEST JUMPDEST SWAP1 PUSH1 0x0 MSTORE PUSH1 0x20 PUSH1 0x0 KECCAK256 SWAP1 PUSH1 0x4 MUL ADD PUSH1 0x3 ADD PUSH1 0x14 SWAP1 SLOAD SWAP1 PUSH2 0x100 EXP SWAP1 DIV PUSH1 0xFF AND ISZERO PUSH2 0x8F7 JUMPI PUSH1 0x0 DUP2 DUP2 SLOAD DUP2 LT PUSH2 0x8B7 JUMPI PUSH2 0x8B6 PUSH2 0x1EDD JUMP JUMPDEST JUMPDEST SWAP1 PUSH1 0x0 MSTORE PUSH1 0x20 PUSH1 0x0 KECCAK256 SWAP1 PUSH1 0x4 MUL ADD PUSH1 0x0 ADD SLOAD DUP4 DUP4 DUP2 MLOAD DUP2 LT PUSH2 0x8DC JUMPI PUSH2 0x8DB PUSH2 0x1EDD JUMP JUMPDEST JUMPDEST PUSH1 0x20 MUL PUSH1 0x20 ADD ADD DUP2 DUP2 MSTORE POP POP DUP2 DUP1 PUSH2 0x8F3 SWAP1 PUSH2 0x1B87 JUMP JUMPDEST SWAP3 POP POP JUMPDEST DUP1 DUP1 PUSH1 0x1 ADD SWAP2 POP POP PUSH2 0x85E JUMP JUMPDEST POP DUP2 SWAP4 POP POP POP POP SWAP1 JUMP JUMPDEST PUSH1 0x60 PUSH2 0x918 PUSH2 0x5F6 JUMP JUMPDEST PUSH1 0x40 MLOAD DUP1 PUSH1 0x60 ADD PUSH1 0x40 MSTORE DUP1 PUSH1 0x3E DUP2 MSTORE PUSH1 0x20 ADD PUSH2 0x1F30 PUSH1 0x3E SWAP2 CODECOPY SWAP1 PUSH2 0x972 JUMPI PUSH1 0x40 MLOAD PUSH32 0x8C379A000000000000000000000000000000000000000000000000000000000 DUP2 MSTORE PUSH1 0x4 ADD PUSH2 0x969 SWAP2 SWAP1 PUSH2 0x1AE3 JUMP JUMPDEST PUSH1 0x40 MLOAD DUP1 SWAP2 SUB SWAP1 REVERT JUMPDEST POP PUSH1 0x4 PUSH1 0x0 CALLER PUSH20 0xFFFFFFFFFFFFFFFFFFFFFFFFFFFFFFFFFFFFFFFF AND PUSH20 0xFFFFFFFFFFFFFFFFFFFFFFFFFFFFFFFFFFFFFFFF AND DUP2 MSTORE PUSH1 0x20 ADD SWAP1 DUP2 MSTORE PUSH1 0x20 ADD PUSH1 0x0 KECCAK256 DUP1 SLOAD DUP1 PUSH1 0x20 MUL PUSH1 0x20 ADD PUSH1 0x40 MLOAD SWAP1 DUP2 ADD PUSH1 0x40 MSTORE DUP1 SWAP3 SWAP2 SWAP1 DUP2 DUP2 MSTORE PUSH1 0x20 ADD DUP3 DUP1 SLOAD DUP1 ISZERO PUSH2 0x9FC JUMPI PUSH1 0x20 MUL DUP3 ADD SWAP2 SWAP1 PUSH1 0x0 MSTORE PUSH1 0x20 PUSH1 0x0 KECCAK256 SWAP1 JUMPDEST DUP2 SLOAD DUP2 MSTORE PUSH1 0x20 ADD SWAP1 PUSH1 0x1 ADD SWAP1 DUP1 DUP4 GT PUSH2 0x9E8 JUMPI JUMPDEST POP POP POP POP POP SWAP1 POP SWAP1 JUMP JUMPDEST PUSH1 0x4 PUSH1 0x20 MSTORE DUP2 PUSH1 0x0 MSTORE PUSH1 0x40 PUSH1 0x0 KECCAK256 DUP2 DUP2 SLOAD DUP2 LT PUSH2 0xA22 JUMPI PUSH1 0x0 DUP1 REVERT JUMPDEST SWAP1 PUSH1 0x0 MSTORE PUSH1 0x20 PUSH1 0x0 KECCAK256 ADD PUSH1 0x0 SWAP2 POP SWAP2 POP POP SLOAD DUP2 JUMP JUMPDEST PUSH2 0xA40 DUP3 PUSH2 0x12AF JUMP JUMPDEST PUSH1 0x40 MLOAD DUP1 PUSH1 0x40 ADD PUSH1 0x40 MSTORE DUP1 PUSH1 0x18 DUP2 MSTORE PUSH1 0x20 ADD PUSH32 0x54686520667275697420646F6573206E6F742065786973740000000000000000 DUP2 MSTORE POP SWAP1 PUSH2 0xAB7 JUMPI PUSH1 0x40 MLOAD PUSH32 0x8C379A000000000000000000000000000000000000000000000000000000000 DUP2 MSTORE PUSH1 0x4 ADD PUSH2 0xAAE SWAP2 SWAP1 PUSH2 0x1AE3 JUMP JUMPDEST PUSH1 0x40 MLOAD DUP1 SWAP2 SUB SWAP1 REVERT JUMPDEST POP PUSH1 0x0 PUSH2 0xAC3 DUP4 PUSH2 0x132A JUMP JUMPDEST SWAP1 POP PUSH2 0xACE DUP2 PUSH2 0x1347 JUMP JUMPDEST PUSH1 0x40 MLOAD DUP1 PUSH1 0x60 ADD PUSH1 0x40 MSTORE DUP1 PUSH1 0x23 DUP2 MSTORE PUSH1 0x20 ADD PUSH2 0x1F0D PUSH1 0x23 SWAP2 CODECOPY SWAP1 PUSH2 0xB28 JUMPI PUSH1 0x40 MLOAD PUSH32 0x8C379A000000000000000000000000000000000000000000000000000000000 DUP2 MSTORE PUSH1 0x4 ADD PUSH2 0xB1F SWAP2 SWAP1 PUSH2 0x1AE3 JUMP JUMPDEST PUSH1 0x40 MLOAD DUP1 SWAP2 SUB SWAP1 REVERT JUMPDEST POP PUSH1 0x1 PUSH1 0x0 DUP3 DUP2 SLOAD DUP2 LT PUSH2 0xB3F JUMPI PUSH2 0xB3E PUSH2 0x1EDD JUMP JUMPDEST JUMPDEST SWAP1 PUSH1 0x0 MSTORE PUSH1 0x20 PUSH1 0x0 KECCAK256 SWAP1 PUSH1 0x4 MUL ADD PUSH1 0x3 ADD PUSH1 0x14 PUSH2 0x100 EXP DUP2 SLOAD DUP2 PUSH1 0xFF MUL NOT AND SWAP1 DUP4 ISZERO ISZERO MUL OR SWAP1 SSTORE POP DUP2 PUSH1 0x0 DUP3 DUP2 SLOAD DUP2 LT PUSH2 0xB7C JUMPI PUSH2 0xB7B PUSH2 0x1EDD JUMP JUMPDEST JUMPDEST SWAP1 PUSH1 0x0 MSTORE PUSH1 0x20 PUSH1 0x0 KECCAK256 SWAP1 PUSH1 0x4 MUL ADD PUSH1 0x2 ADD DUP2 SWAP1 SSTORE POP DUP3 PUSH32 0x12837B86D796BE7CEBF41BB928648910D81A15528850A24E043963CB4E3AAE42 DUP4 PUSH1 0x40 MLOAD PUSH2 0xBC1 SWAP2 SWAP1 PUSH2 0x14D4 JUMP JUMPDEST PUSH1 0x40 MLOAD DUP1 SWAP2 SUB SWAP1 LOG2 POP POP POP JUMP JUMPDEST PUSH1 0x2 DUP2 DUP1 MLOAD PUSH1 0x20 DUP2 ADD DUP3 ADD DUP1 MLOAD DUP5 DUP3 MSTORE PUSH1 0x20 DUP4 ADD PUSH1 0x20 DUP6 ADD KECCAK256 DUP2 DUP4 MSTORE DUP1 SWAP6 POP POP POP POP POP POP PUSH1 0x0 SWAP2 POP SLOAD SWAP1 PUSH2 0x100 EXP SWAP1 DIV PUSH1 0xFF AND DUP2 JUMP JUMPDEST PUSH2 0xC0C PUSH2 0x1407 JUMP JUMPDEST PUSH2 0xC14 PUSH2 0x5F6 JUMP JUMPDEST PUSH1 0x40 MLOAD DUP1 PUSH1 0x60 ADD PUSH1 0x40 MSTORE DUP1 PUSH1 0x3E DUP2 MSTORE PUSH1 0x20 ADD PUSH2 0x1F30 PUSH1 0x3E SWAP2 CODECOPY SWAP1 PUSH2 0xC6E JUMPI PUSH1 0x40 MLOAD PUSH32 0x8C379A000000000000000000000000000000000000000000000000000000000 DUP2 MSTORE PUSH1 0x4 ADD PUSH2 0xC65 SWAP2 SWAP1 PUSH2 0x1AE3 JUMP JUMPDEST PUSH1 0x40 MLOAD DUP1 SWAP2 SUB SWAP1 REVERT JUMPDEST POP PUSH2 0xC78 DUP3 PUSH2 0x12AF JUMP JUMPDEST PUSH1 0x40 MLOAD DUP1 PUSH1 0x40 ADD PUSH1 0x40 MSTORE DUP1 PUSH1 0x18 DUP2 MSTORE PUSH1 0x20 ADD PUSH32 0x54686520667275697420646F6573206E6F742065786973740000000000000000 DUP2 MSTORE POP SWAP1 PUSH2 0xCEF JUMPI PUSH1 0x40 MLOAD PUSH32 0x8C379A000000000000000000000000000000000000000000000000000000000 DUP2 MSTORE PUSH1 0x4 ADD PUSH2 0xCE6 SWAP2 SWAP1 PUSH2 0x1AE3 JUMP JUMPDEST PUSH1 0x40 MLOAD DUP1 SWAP2 SUB SWAP1 REVERT JUMPDEST POP PUSH1 0x0 PUSH1 0x5 PUSH1 0x0 DUP5 DUP2 MSTORE PUSH1 0x20 ADD SWAP1 DUP2 MSTORE PUSH1 0x20 ADD PUSH1 0x0 KECCAK256 SLOAD SWAP1 POP PUSH2 0xD11 DUP2 PUSH2 0x1347 JUMP JUMPDEST PUSH1 0x40 MLOAD DUP1 PUSH1 0x60 ADD PUSH1 0x40 MSTORE DUP1 PUSH1 0x23 DUP2 MSTORE PUSH1 0x20 ADD PUSH2 0x1F0D PUSH1 0x23 SWAP2 CODECOPY SWAP1 PUSH2 0xD6B JUMPI PUSH1 0x40 MLOAD PUSH32 0x8C379A000000000000000000000000000000000000000000000000000000000 DUP2 MSTORE PUSH1 0x4 ADD PUSH2 0xD62 SWAP2 SWAP1 PUSH2 0x1AE3 JUMP JUMPDEST PUSH1 0x40 MLOAD DUP1 SWAP2 SUB SWAP1 REVERT JUMPDEST POP PUSH1 0x0 DUP2 DUP2 SLOAD DUP2 LT PUSH2 0xD80 JUMPI PUSH2 0xD7F PUSH2 0x1EDD JUMP JUMPDEST JUMPDEST SWAP1 PUSH1 0x0 MSTORE PUSH1 0x20 PUSH1 0x0 KECCAK256 SWAP1 PUSH1 0x4 MUL ADD PUSH1 0x40 MLOAD DUP1 PUSH1 0xA0 ADD PUSH1 0x40 MSTORE SWAP1 DUP2 PUSH1 0x0 DUP3 ADD SLOAD DUP2 MSTORE PUSH1 0x20 ADD PUSH1 0x1 DUP3 ADD DUP1 SLOAD PUSH2 0xDB3 SWAP1 PUSH2 0x1BFE JUMP JUMPDEST DUP1 PUSH1 0x1F ADD PUSH1 0x20 DUP1 SWAP2 DIV MUL PUSH1 0x20 ADD PUSH1 0x40 MLOAD SWAP1 DUP2 ADD PUSH1 0x40 MSTORE DUP1 SWAP3 SWAP2 SWAP1 DUP2 DUP2 MSTORE PUSH1 0x20 ADD DUP3 DUP1 SLOAD PUSH2 0xDDF SWAP1 PUSH2 0x1BFE JUMP JUMPDEST DUP1 ISZERO PUSH2 0xE2C JUMPI DUP1 PUSH1 0x1F LT PUSH2 0xE01 JUMPI PUSH2 0x100 DUP1 DUP4 SLOAD DIV MUL DUP4 MSTORE SWAP2 PUSH1 0x20 ADD SWAP2 PUSH2 0xE2C JUMP JUMPDEST DUP3 ADD SWAP2 SWAP1 PUSH1 0x0 MSTORE PUSH1 0x20 PUSH1 0x0 KECCAK256 SWAP1 JUMPDEST DUP2 SLOAD DUP2 MSTORE SWAP1 PUSH1 0x1 ADD SWAP1 PUSH1 0x20 ADD DUP1 DUP4 GT PUSH2 0xE0F JUMPI DUP3 SWAP1 SUB PUSH1 0x1F AND DUP3 ADD SWAP2 JUMPDEST POP POP POP POP POP DUP2 MSTORE PUSH1 0x20 ADD PUSH1 0x2 DUP3 ADD SLOAD DUP2 MSTORE PUSH1 0x20 ADD PUSH1 0x3 DUP3 ADD PUSH1 0x0 SWAP1 SLOAD SWAP1 PUSH2 0x100 EXP SWAP1 DIV PUSH20 0xFFFFFFFFFFFFFFFFFFFFFFFFFFFFFFFFFFFFFFFF AND PUSH20 0xFFFFFFFFFFFFFFFFFFFFFFFFFFFFFFFFFFFFFFFF AND PUSH20 0xFFFFFFFFFFFFFFFFFFFFFFFFFFFFFFFFFFFFFFFF AND DUP2 MSTORE PUSH1 0x20 ADD PUSH1 0x3 DUP3 ADD PUSH1 0x14 SWAP1 SLOAD SWAP1 PUSH2 0x100 EXP SWAP1 DIV PUSH1 0xFF AND ISZERO ISZERO ISZERO ISZERO DUP2 MSTORE POP POP SWAP2 POP POP SWAP2 SWAP1 POP JUMP JUMPDEST PUSH2 0xEC0 PUSH2 0x1407 JUMP JUMPDEST PUSH2 0xEC8 PUSH2 0x5F6 JUMP JUMPDEST PUSH1 0x40 MLOAD DUP1 PUSH1 0x60 ADD PUSH1 0x40 MSTORE DUP1 PUSH1 0x3E DUP2 MSTORE PUSH1 0x20 ADD PUSH2 0x1F30 PUSH1 0x3E SWAP2 CODECOPY SWAP1 PUSH2 0xF22 JUMPI PUSH1 0x40 MLOAD PUSH32 0x8C379A000000000000000000000000000000000000000000000000000000000 DUP2 MSTORE PUSH1 0x4 ADD PUSH2 0xF19 SWAP2 SWAP1 PUSH2 0x1AE3 JUMP JUMPDEST PUSH1 0x40 MLOAD DUP1 SWAP2 SUB SWAP1 REVERT JUMPDEST POP PUSH2 0xF2C DUP3 PUSH2 0x12AF JUMP JUMPDEST PUSH1 0x40 MLOAD DUP1 PUSH1 0x40 ADD PUSH1 0x40 MSTORE DUP1 PUSH1 0x18 DUP2 MSTORE PUSH1 0x20 ADD PUSH32 0x54686520667275697420646F6573206E6F742065786973740000000000000000 DUP2 MSTORE POP SWAP1 PUSH2 0xFA3 JUMPI PUSH1 0x40 MLOAD PUSH32 0x8C379A000000000000000000000000000000000000000000000000000000000 DUP2 MSTORE PUSH1 0x4 ADD PUSH2 0xF9A SWAP2 SWAP1 PUSH2 0x1AE3 JUMP JUMPDEST PUSH1 0x40 MLOAD DUP1 SWAP2 SUB SWAP1 REVERT JUMPDEST POP PUSH1 0x0 PUSH1 0x5 PUSH1 0x0 DUP5 DUP2 MSTORE PUSH1 0x20 ADD SWAP1 DUP2 MSTORE PUSH1 0x20 ADD PUSH1 0x0 KECCAK256 SLOAD SWAP1 POP PUSH2 0xFC5 DUP2 PUSH2 0x13C4 JUMP JUMPDEST PUSH1 0x40 MLOAD DUP1 PUSH1 0x40 ADD PUSH1 0x40 MSTORE DUP1 PUSH1 0x1B DUP2 MSTORE PUSH1 0x20 ADD PUSH32 0x54686973206672756974206973206E6F7420666F722073616C65210000000000 DUP2 MSTORE POP SWAP1 PUSH2 0x103C JUMPI PUSH1 0x40 MLOAD PUSH32 0x8C379A000000000000000000000000000000000000000000000000000000000 DUP2 MSTORE PUSH1 0x4 ADD PUSH2 0x1033 SWAP2 SWAP1 PUSH2 0x1AE3 JUMP JUMPDEST PUSH1 0x40 MLOAD DUP1 SWAP2 SUB SWAP1 REVERT JUMPDEST POP PUSH1 0x0 DUP2 DUP2 SLOAD DUP2 LT PUSH2 0x1051 JUMPI PUSH2 0x1050 PUSH2 0x1EDD JUMP JUMPDEST JUMPDEST SWAP1 PUSH1 0x0 MSTORE PUSH1 0x20 PUSH1 0x0 KECCAK256 SWAP1 PUSH1 0x4 MUL ADD PUSH1 0x40 MLOAD DUP1 PUSH1 0xA0 ADD PUSH1 0x40 MSTORE SWAP1 DUP2 PUSH1 0x0 DUP3 ADD SLOAD DUP2 MSTORE PUSH1 0x20 ADD PUSH1 0x1 DUP3 ADD DUP1 SLOAD PUSH2 0x1084 SWAP1 PUSH2 0x1BFE JUMP JUMPDEST DUP1 PUSH1 0x1F ADD PUSH1 0x20 DUP1 SWAP2 DIV MUL PUSH1 0x20 ADD PUSH1 0x40 MLOAD SWAP1 DUP2 ADD PUSH1 0x40 MSTORE DUP1 SWAP3 SWAP2 SWAP1 DUP2 DUP2 MSTORE PUSH1 0x20 ADD DUP3 DUP1 SLOAD PUSH2 0x10B0 SWAP1 PUSH2 0x1BFE JUMP JUMPDEST DUP1 ISZERO PUSH2 0x10FD JUMPI DUP1 PUSH1 0x1F LT PUSH2 0x10D2 JUMPI PUSH2 0x100 DUP1 DUP4 SLOAD DIV MUL DUP4 MSTORE SWAP2 PUSH1 0x20 ADD SWAP2 PUSH2 0x10FD JUMP JUMPDEST DUP3 ADD SWAP2 SWAP1 PUSH1 0x0 MSTORE PUSH1 0x20 PUSH1 0x0 KECCAK256 SWAP1 JUMPDEST DUP2 SLOAD DUP2 MSTORE SWAP1 PUSH1 0x1 ADD SWAP1 PUSH1 0x20 ADD DUP1 DUP4 GT PUSH2 0x10E0 JUMPI DUP3 SWAP1 SUB PUSH1 0x1F AND DUP3 ADD SWAP2 JUMPDEST POP POP POP POP POP DUP2 MSTORE PUSH1 0x20 ADD PUSH1 0x2 DUP3 ADD SLOAD DUP2 MSTORE PUSH1 0x20 ADD PUSH1 0x3 DUP3 ADD PUSH1 0x0 SWAP1 SLOAD SWAP1 PUSH2 0x100 EXP SWAP1 DIV PUSH20 0xFFFFFFFFFFFFFFFFFFFFFFFFFFFFFFFFFFFFFFFF AND PUSH20 0xFFFFFFFFFFFFFFFFFFFFFFFFFFFFFFFFFFFFFFFF AND PUSH20 0xFFFFFFFFFFFFFFFFFFFFFFFFFFFFFFFFFFFFFFFF AND DUP2 MSTORE PUSH1 0x20 ADD PUSH1 0x3 DUP3 ADD PUSH1 0x14 SWAP1 SLOAD SWAP1 PUSH2 0x100 EXP SWAP1 DIV PUSH1 0xFF AND ISZERO ISZERO ISZERO ISZERO DUP2 MSTORE POP POP SWAP2 POP POP SWAP2 SWAP1 POP JUMP JUMPDEST PUSH1 0x3 PUSH1 0x20 MSTORE DUP1 PUSH1 0x0 MSTORE PUSH1 0x40 PUSH1 0x0 KECCAK256 PUSH1 0x0 SWAP2 POP SWAP1 POP DUP1 PUSH1 0x0 ADD PUSH1 0x0 SWAP1 SLOAD SWAP1 PUSH2 0x100 EXP SWAP1 DIV PUSH1 0xFF AND SWAP1 POP DUP2 JUMP JUMPDEST PUSH1 0x0 DUP2 DUP2 SLOAD DUP2 LT PUSH2 0x11C4 JUMPI PUSH1 0x0 DUP1 REVERT JUMPDEST SWAP1 PUSH1 0x0 MSTORE PUSH1 0x20 PUSH1 0x0 KECCAK256 SWAP1 PUSH1 0x4 MUL ADD PUSH1 0x0 SWAP2 POP SWAP1 POP DUP1 PUSH1 0x0 ADD SLOAD SWAP1 DUP1 PUSH1 0x1 ADD DUP1 SLOAD PUSH2 0x11ED SWAP1 PUSH2 0x1BFE JUMP JUMPDEST DUP1 PUSH1 0x1F ADD PUSH1 0x20 DUP1 SWAP2 DIV MUL PUSH1 0x20 ADD PUSH1 0x40 MLOAD SWAP1 DUP2 ADD PUSH1 0x40 MSTORE DUP1 SWAP3 SWAP2 SWAP1 DUP2 DUP2 MSTORE PUSH1 0x20 ADD DUP3 DUP1 SLOAD PUSH2 0x1219 SWAP1 PUSH2 0x1BFE JUMP JUMPDEST DUP1 ISZERO PUSH2 0x1266 JUMPI DUP1 PUSH1 0x1F LT PUSH2 0x123B JUMPI PUSH2 0x100 DUP1 DUP4 SLOAD DIV MUL DUP4 MSTORE SWAP2 PUSH1 0x20 ADD SWAP2 PUSH2 0x1266 JUMP JUMPDEST DUP3 ADD SWAP2 SWAP1 PUSH1 0x0 MSTORE PUSH1 0x20 PUSH1 0x0 KECCAK256 SWAP1 JUMPDEST DUP2 SLOAD DUP2 MSTORE SWAP1 PUSH1 0x1 ADD SWAP1 PUSH1 0x20 ADD DUP1 DUP4 GT PUSH2 0x1249 JUMPI DUP3 SWAP1 SUB PUSH1 0x1F AND DUP3 ADD SWAP2 JUMPDEST POP POP POP POP POP SWAP1 DUP1 PUSH1 0x2 ADD SLOAD SWAP1 DUP1 PUSH1 0x3 ADD PUSH1 0x0 SWAP1 SLOAD SWAP1 PUSH2 0x100 EXP SWAP1 DIV PUSH20 0xFFFFFFFFFFFFFFFFFFFFFFFFFFFFFFFFFFFFFFFF AND SWAP1 DUP1 PUSH1 0x3 ADD PUSH1 0x14 SWAP1 SLOAD SWAP1 PUSH2 0x100 EXP SWAP1 DIV PUSH1 0xFF AND SWAP1 POP DUP6 JUMP JUMPDEST PUSH1 0x0 DUP1 DUP1 SLOAD SWAP1 POP PUSH1 0x5 PUSH1 0x0 DUP5 DUP2 MSTORE PUSH1 0x20 ADD SWAP1 DUP2 MSTORE PUSH1 0x20 ADD PUSH1 0x0 KECCAK256 SLOAD LT ISZERO PUSH2 0x1320 JUMPI PUSH1 0x0 PUSH1 0x5 PUSH1 0x0 DUP5 DUP2 MSTORE PUSH1 0x20 ADD SWAP1 DUP2 MSTORE PUSH1 0x20 ADD PUSH1 0x0 KECCAK256 SLOAD SWAP1 POP DUP3 PUSH1 0x0 DUP3 DUP2 SLOAD DUP2 LT PUSH2 0x12FD JUMPI PUSH2 0x12FC PUSH2 0x1EDD JUMP JUMPDEST JUMPDEST SWAP1 PUSH1 0x0 MSTORE PUSH1 0x20 PUSH1 0x0 KECCAK256 SWAP1 PUSH1 0x4 MUL ADD PUSH1 0x0 ADD SLOAD SUB PUSH2 0x131E JUMPI PUSH1 0x1 SWAP2 POP POP PUSH2 0x1325 JUMP JUMPDEST POP JUMPDEST PUSH1 0x0 SWAP1 POP JUMPDEST SWAP2 SWAP1 POP JUMP JUMPDEST PUSH1 0x0 PUSH1 0x5 PUSH1 0x0 DUP4 DUP2 MSTORE PUSH1 0x20 ADD SWAP1 DUP2 MSTORE PUSH1 0x20 ADD PUSH1 0x0 KECCAK256 SLOAD SWAP1 POP SWAP2 SWAP1 POP JUMP JUMPDEST PUSH1 0x0 CALLER PUSH20 0xFFFFFFFFFFFFFFFFFFFFFFFFFFFFFFFFFFFFFFFF AND PUSH1 0x0 DUP4 DUP2 SLOAD DUP2 LT PUSH2 0x1374 JUMPI PUSH2 0x1373 PUSH2 0x1EDD JUMP JUMPDEST JUMPDEST SWAP1 PUSH1 0x0 MSTORE PUSH1 0x20 PUSH1 0x0 KECCAK256 SWAP1 PUSH1 0x4 MUL ADD PUSH1 0x3 ADD PUSH1 0x0 SWAP1 SLOAD SWAP1 PUSH2 0x100 EXP SWAP1 DIV PUSH20 0xFFFFFFFFFFFFFFFFFFFFFFFFFFFFFFFFFFFFFFFF AND PUSH20 0xFFFFFFFFFFFFFFFFFFFFFFFFFFFFFFFFFFFFFFFF AND EQ SWAP1 POP SWAP2 SWAP1 POP JUMP JUMPDEST PUSH1 0x0 PUSH1 0x1 ISZERO ISZERO PUSH1 0x0 DUP4 DUP2 SLOAD DUP2 LT PUSH2 0x13DE JUMPI PUSH2 0x13DD PUSH2 0x1EDD JUMP JUMPDEST JUMPDEST SWAP1 PUSH1 0x0 MSTORE PUSH1 0x20 PUSH1 0x0 KECCAK256 SWAP1 PUSH1 0x4 MUL ADD PUSH1 0x3 ADD PUSH1 0x14 SWAP1 SLOAD SWAP1 PUSH2 0x100 EXP SWAP1 DIV PUSH1 0xFF AND ISZERO ISZERO EQ SWAP1 POP SWAP2 SWAP1 POP JUMP JUMPDEST PUSH1 0x40 MLOAD DUP1 PUSH1 0xA0 ADD PUSH1 0x40 MSTORE DUP1 PUSH1 0x0 DUP2 MSTORE PUSH1 0x20 ADD PUSH1 0x60 DUP2 MSTORE PUSH1 0x20 ADD PUSH1 0x0 DUP2 MSTORE PUSH1 0x20 ADD PUSH1 0x0 PUSH20 0xFFFFFFFFFFFFFFFFFFFFFFFFFFFFFFFFFFFFFFFF AND DUP2 MSTORE PUSH1 0x20 ADD PUSH1 0x0 ISZERO ISZERO DUP2 MSTORE POP SWAP1 JUMP JUMPDEST PUSH1 0x0 PUSH1 0x40 MLOAD SWAP1 POP SWAP1 JUMP JUMPDEST PUSH1 0x0 DUP1 REVERT JUMPDEST PUSH1 0x0 DUP1 REVERT JUMPDEST PUSH1 0x0 DUP2 SWAP1 POP SWAP2 SWAP1 POP JUMP JUMPDEST PUSH2 0x1475 DUP2 PUSH2 0x1462 JUMP JUMPDEST DUP2 EQ PUSH2 0x1480 JUMPI PUSH1 0x0 DUP1 REVERT JUMPDEST POP JUMP JUMPDEST PUSH1 0x0 DUP2 CALLDATALOAD SWAP1 POP PUSH2 0x1492 DUP2 PUSH2 0x146C JUMP JUMPDEST SWAP3 SWAP2 POP POP JUMP JUMPDEST PUSH1 0x0 PUSH1 0x20 DUP3 DUP5 SUB SLT ISZERO PUSH2 0x14AE JUMPI PUSH2 0x14AD PUSH2 0x1458 JUMP JUMPDEST JUMPDEST PUSH1 0x0 PUSH2 0x14BC DUP5 DUP3 DUP6 ADD PUSH2 0x1483 JUMP JUMPDEST SWAP2 POP POP SWAP3 SWAP2 POP POP JUMP JUMPDEST PUSH2 0x14CE DUP2 PUSH2 0x1462 JUMP JUMPDEST DUP3 MSTORE POP POP JUMP JUMPDEST PUSH1 0x0 PUSH1 0x20 DUP3 ADD SWAP1 POP PUSH2 0x14E9 PUSH1 0x0 DUP4 ADD DUP5 PUSH2 0x14C5 JUMP JUMPDEST SWAP3 SWAP2 POP POP JUMP JUMPDEST PUSH1 0x0 DUP1 REVERT JUMPDEST PUSH1 0x0 DUP1 REVERT JUMPDEST PUSH1 0x0 PUSH1 0x1F NOT PUSH1 0x1F DUP4 ADD AND SWAP1 POP SWAP2 SWAP1 POP JUMP JUMPDEST PUSH32 0x4E487B7100000000000000000000000000000000000000000000000000000000 PUSH1 0x0 MSTORE PUSH1 0x41 PUSH1 0x4 MSTORE PUSH1 0x24 PUSH1 0x0 REVERT JUMPDEST PUSH2 0x1542 DUP3 PUSH2 0x14F9 JUMP JUMPDEST DUP2 ADD DUP2 DUP2 LT PUSH8 0xFFFFFFFFFFFFFFFF DUP3 GT OR ISZERO PUSH2 0x1561 JUMPI PUSH2 0x1560 PUSH2 0x150A JUMP JUMPDEST JUMPDEST DUP1 PUSH1 0x40 MSTORE POP POP POP JUMP JUMPDEST PUSH1 0x0 PUSH2 0x1574 PUSH2 0x144E JUMP JUMPDEST SWAP1 POP PUSH2 0x1580 DUP3 DUP3 PUSH2 0x1539 JUMP JUMPDEST SWAP2 SWAP1 POP JUMP JUMPDEST PUSH1 0x0 PUSH8 0xFFFFFFFFFFFFFFFF DUP3 GT ISZERO PUSH2 0x15A0 JUMPI PUSH2 0x159F PUSH2 0x150A JUMP JUMPDEST JUMPDEST PUSH2 0x15A9 DUP3 PUSH2 0x14F9 JUMP JUMPDEST SWAP1 POP PUSH1 0x20 DUP2 ADD SWAP1 POP SWAP2 SWAP1 POP JUMP JUMPDEST DUP3 DUP2 DUP4 CALLDATACOPY PUSH1 0x0 DUP4 DUP4 ADD MSTORE POP POP POP JUMP JUMPDEST PUSH1 0x0 PUSH2 0x15D8 PUSH2 0x15D3 DUP5 PUSH2 0x1585 JUMP JUMPDEST PUSH2 0x156A JUMP JUMPDEST SWAP1 POP DUP3 DUP2 MSTORE PUSH1 0x20 DUP2 ADD DUP5 DUP5 DUP5 ADD GT ISZERO PUSH2 0x15F4 JUMPI PUSH2 0x15F3 PUSH2 0x14F4 JUMP JUMPDEST JUMPDEST PUSH2 0x15FF DUP5 DUP3 DUP6 PUSH2 0x15B6 JUMP JUMPDEST POP SWAP4 SWAP3 POP POP POP JUMP JUMPDEST PUSH1 0x0 DUP3 PUSH1 0x1F DUP4 ADD SLT PUSH2 0x161C JUMPI PUSH2 0x161B PUSH2 0x14EF JUMP JUMPDEST JUMPDEST DUP2 CALLDATALOAD PUSH2 0x162C DUP5 DUP3 PUSH1 0x20 DUP7 ADD PUSH2 0x15C5 JUMP JUMPDEST SWAP2 POP POP SWAP3 SWAP2 POP POP JUMP JUMPDEST PUSH1 0x0 DUP1 PUSH1 0x40 DUP4 DUP6 SUB SLT ISZERO PUSH2 0x164C JUMPI PUSH2 0x164B PUSH2 0x1458 JUMP JUMPDEST JUMPDEST PUSH1 0x0 DUP4 ADD CALLDATALOAD PUSH8 0xFFFFFFFFFFFFFFFF DUP2 GT ISZERO PUSH2 0x166A JUMPI PUSH2 0x1669 PUSH2 0x145D JUMP JUMPDEST JUMPDEST PUSH2 0x1676 DUP6 DUP3 DUP7 ADD PUSH2 0x1607 JUMP JUMPDEST SWAP3 POP POP PUSH1 0x20 PUSH2 0x1687 DUP6 DUP3 DUP7 ADD PUSH2 0x1483 JUMP JUMPDEST SWAP2 POP POP SWAP3 POP SWAP3 SWAP1 POP JUMP JUMPDEST PUSH1 0x0 DUP2 ISZERO ISZERO SWAP1 POP SWAP2 SWAP1 POP JUMP JUMPDEST PUSH2 0x16A6 DUP2 PUSH2 0x1691 JUMP JUMPDEST DUP3 MSTORE POP POP JUMP JUMPDEST PUSH1 0x0 PUSH1 0x20 DUP3 ADD SWAP1 POP PUSH2 0x16C1 PUSH1 0x0 DUP4 ADD DUP5 PUSH2 0x169D JUMP JUMPDEST SWAP3 SWAP2 POP POP JUMP JUMPDEST PUSH1 0x0 DUP2 MLOAD SWAP1 POP SWAP2 SWAP1 POP JUMP JUMPDEST PUSH1 0x0 DUP3 DUP3 MSTORE PUSH1 0x20 DUP3 ADD SWAP1 POP SWAP3 SWAP2 POP POP JUMP JUMPDEST PUSH1 0x0 DUP2 SWAP1 POP PUSH1 0x20 DUP3 ADD SWAP1 POP SWAP2 SWAP1 POP JUMP JUMPDEST PUSH2 0x16FC DUP2 PUSH2 0x1462 JUMP JUMPDEST DUP3 MSTORE POP POP JUMP JUMPDEST PUSH1 0x0 PUSH2 0x170E DUP4 DUP4 PUSH2 0x16F3 JUMP JUMPDEST PUSH1 0x20 DUP4 ADD SWAP1 POP SWAP3 SWAP2 POP POP JUMP JUMPDEST PUSH1 0x0 PUSH1 0x20 DUP3 ADD SWAP1 POP SWAP2 SWAP1 POP JUMP JUMPDEST PUSH1 0x0 PUSH2 0x1732 DUP3 PUSH2 0x16C7 JUMP JUMPDEST PUSH2 0x173C DUP2 DUP6 PUSH2 0x16D2 JUMP JUMPDEST SWAP4 POP PUSH2 0x1747 DUP4 PUSH2 0x16E3 JUMP JUMPDEST DUP1 PUSH1 0x0 JUMPDEST DUP4 DUP2 LT ISZERO PUSH2 0x1778 JUMPI DUP2 MLOAD PUSH2 0x175F DUP9 DUP3 PUSH2 0x1702 JUMP JUMPDEST SWAP8 POP PUSH2 0x176A DUP4 PUSH2 0x171A JUMP JUMPDEST SWAP3 POP POP PUSH1 0x1 DUP2 ADD SWAP1 POP PUSH2 0x174B JUMP JUMPDEST POP DUP6 SWAP4 POP POP POP POP SWAP3 SWAP2 POP POP JUMP JUMPDEST PUSH1 0x0 PUSH1 0x20 DUP3 ADD SWAP1 POP DUP2 DUP2 SUB PUSH1 0x0 DUP4 ADD MSTORE PUSH2 0x179F DUP2 DUP5 PUSH2 0x1727 JUMP JUMPDEST SWAP1 POP SWAP3 SWAP2 POP POP JUMP JUMPDEST PUSH1 0x0 PUSH20 0xFFFFFFFFFFFFFFFFFFFFFFFFFFFFFFFFFFFFFFFF DUP3 AND SWAP1 POP SWAP2 SWAP1 POP JUMP JUMPDEST PUSH1 0x0 PUSH2 0x17D2 DUP3 PUSH2 0x17A7 JUMP JUMPDEST SWAP1 POP SWAP2 SWAP1 POP JUMP JUMPDEST PUSH2 0x17E2 DUP2 PUSH2 0x17C7 JUMP JUMPDEST DUP2 EQ PUSH2 0x17ED JUMPI PUSH1 0x0 DUP1 REVERT JUMPDEST POP JUMP JUMPDEST PUSH1 0x0 DUP2 CALLDATALOAD SWAP1 POP PUSH2 0x17FF DUP2 PUSH2 0x17D9 JUMP JUMPDEST SWAP3 SWAP2 POP POP JUMP JUMPDEST PUSH1 0x0 DUP1 PUSH1 0x40 DUP4 DUP6 SUB SLT ISZERO PUSH2 0x181C JUMPI PUSH2 0x181B PUSH2 0x1458 JUMP JUMPDEST JUMPDEST PUSH1 0x0 PUSH2 0x182A DUP6 DUP3 DUP7 ADD PUSH2 0x17F0 JUMP JUMPDEST SWAP3 POP POP PUSH1 0x20 PUSH2 0x183B DUP6 DUP3 DUP7 ADD PUSH2 0x1483 JUMP JUMPDEST SWAP2 POP POP SWAP3 POP SWAP3 SWAP1 POP JUMP JUMPDEST PUSH1 0x0 DUP1 PUSH1 0x40 DUP4 DUP6 SUB SLT ISZERO PUSH2 0x185C JUMPI PUSH2 0x185B PUSH2 0x1458 JUMP JUMPDEST JUMPDEST PUSH1 0x0 PUSH2 0x186A DUP6 DUP3 DUP7 ADD PUSH2 0x1483 JUMP JUMPDEST SWAP3 POP POP PUSH1 0x20 PUSH2 0x187B DUP6 DUP3 DUP7 ADD PUSH2 0x1483 JUMP JUMPDEST SWAP2 POP POP SWAP3 POP SWAP3 SWAP1 POP JUMP JUMPDEST PUSH1 0x0 PUSH1 0x20 DUP3 DUP5 SUB SLT ISZERO PUSH2 0x189B JUMPI PUSH2 0x189A PUSH2 0x1458 JUMP JUMPDEST JUMPDEST PUSH1 0x0 DUP3 ADD CALLDATALOAD PUSH8 0xFFFFFFFFFFFFFFFF DUP2 GT ISZERO PUSH2 0x18B9 JUMPI PUSH2 0x18B8 PUSH2 0x145D JUMP JUMPDEST JUMPDEST PUSH2 0x18C5 DUP5 DUP3 DUP6 ADD PUSH2 0x1607 JUMP JUMPDEST SWAP2 POP POP SWAP3 SWAP2 POP POP JUMP JUMPDEST PUSH1 0x0 DUP2 MLOAD SWAP1 POP SWAP2 SWAP1 POP JUMP JUMPDEST PUSH1 0x0 DUP3 DUP3 MSTORE PUSH1 0x20 DUP3 ADD SWAP1 POP SWAP3 SWAP2 POP POP JUMP JUMPDEST PUSH1 0x0 JUMPDEST DUP4 DUP2 LT ISZERO PUSH2 0x1908 JUMPI DUP1 DUP3 ADD MLOAD DUP2 DUP5 ADD MSTORE PUSH1 0x20 DUP2 ADD SWAP1 POP PUSH2 0x18ED JUMP JUMPDEST PUSH1 0x0 DUP5 DUP5 ADD MSTORE POP POP POP POP JUMP JUMPDEST PUSH1 0x0 PUSH2 0x191F DUP3 PUSH2 0x18CE JUMP JUMPDEST PUSH2 0x1929 DUP2 DUP6 PUSH2 0x18D9 JUMP JUMPDEST SWAP4 POP PUSH2 0x1939 DUP2 DUP6 PUSH1 0x20 DUP7 ADD PUSH2 0x18EA JUMP JUMPDEST PUSH2 0x1942 DUP2 PUSH2 0x14F9 JUMP JUMPDEST DUP5 ADD SWAP2 POP POP SWAP3 SWAP2 POP POP JUMP JUMPDEST PUSH2 0x1956 DUP2 PUSH2 0x17C7 JUMP JUMPDEST DUP3 MSTORE POP POP JUMP JUMPDEST PUSH2 0x1965 DUP2 PUSH2 0x1691 JUMP JUMPDEST DUP3 MSTORE POP POP JUMP JUMPDEST PUSH1 0x0 PUSH1 0xA0 DUP4 ADD PUSH1 0x0 DUP4 ADD MLOAD PUSH2 0x1983 PUSH1 0x0 DUP7 ADD DUP3 PUSH2 0x16F3 JUMP JUMPDEST POP PUSH1 0x20 DUP4 ADD MLOAD DUP5 DUP3 SUB PUSH1 0x20 DUP7 ADD MSTORE PUSH2 0x199B DUP3 DUP3 PUSH2 0x1914 JUMP JUMPDEST SWAP2 POP POP PUSH1 0x40 DUP4 ADD MLOAD PUSH2 0x19B0 PUSH1 0x40 DUP7 ADD DUP3 PUSH2 0x16F3 JUMP JUMPDEST POP PUSH1 0x60 DUP4 ADD MLOAD PUSH2 0x19C3 PUSH1 0x60 DUP7 ADD DUP3 PUSH2 0x194D JUMP JUMPDEST POP PUSH1 0x80 DUP4 ADD MLOAD PUSH2 0x19D6 PUSH1 0x80 DUP7 ADD DUP3 PUSH2 0x195C JUMP JUMPDEST POP DUP1 SWAP2 POP POP SWAP3 SWAP2 POP POP JUMP JUMPDEST PUSH1 0x0 PUSH1 0x20 DUP3 ADD SWAP1 POP DUP2 DUP2 SUB PUSH1 0x0 DUP4 ADD MSTORE PUSH2 0x19FB DUP2 DUP5 PUSH2 0x196B JUMP JUMPDEST SWAP1 POP SWAP3 SWAP2 POP POP JUMP JUMPDEST PUSH1 0x0 PUSH1 0x20 DUP3 DUP5 SUB SLT ISZERO PUSH2 0x1A19 JUMPI PUSH2 0x1A18 PUSH2 0x1458 JUMP JUMPDEST JUMPDEST PUSH1 0x0 PUSH2 0x1A27 DUP5 DUP3 DUP6 ADD PUSH2 0x17F0 JUMP JUMPDEST SWAP2 POP POP SWAP3 SWAP2 POP POP JUMP JUMPDEST PUSH1 0x0 DUP3 DUP3 MSTORE PUSH1 0x20 DUP3 ADD SWAP1 POP SWAP3 SWAP2 POP POP JUMP JUMPDEST PUSH1 0x0 PUSH2 0x1A4C DUP3 PUSH2 0x18CE JUMP JUMPDEST PUSH2 0x1A56 DUP2 DUP6 PUSH2 0x1A30 JUMP JUMPDEST SWAP4 POP PUSH2 0x1A66 DUP2 DUP6 PUSH1 0x20 DUP7 ADD PUSH2 0x18EA JUMP JUMPDEST PUSH2 0x1A6F DUP2 PUSH2 0x14F9 JUMP JUMPDEST DUP5 ADD SWAP2 POP POP SWAP3 SWAP2 POP POP JUMP JUMPDEST PUSH2 0x1A83 DUP2 PUSH2 0x17C7 JUMP JUMPDEST DUP3 MSTORE POP POP JUMP JUMPDEST PUSH1 0x0 PUSH1 0xA0 DUP3 ADD SWAP1 POP PUSH2 0x1A9E PUSH1 0x0 DUP4 ADD DUP9 PUSH2 0x14C5 JUMP JUMPDEST DUP2 DUP2 SUB PUSH1 0x20 DUP4 ADD MSTORE PUSH2 0x1AB0 DUP2 DUP8 PUSH2 0x1A41 JUMP JUMPDEST SWAP1 POP PUSH2 0x1ABF PUSH1 0x40 DUP4 ADD DUP7 PUSH2 0x14C5 JUMP JUMPDEST PUSH2 0x1ACC PUSH1 0x60 DUP4 ADD DUP6 PUSH2 0x1A7A JUMP JUMPDEST PUSH2 0x1AD9 PUSH1 0x80 DUP4 ADD DUP5 PUSH2 0x169D JUMP JUMPDEST SWAP7 SWAP6 POP POP POP POP POP POP JUMP JUMPDEST PUSH1 0x0 PUSH1 0x20 DUP3 ADD SWAP1 POP DUP2 DUP2 SUB PUSH1 0x0 DUP4 ADD MSTORE PUSH2 0x1AFD DUP2 DUP5 PUSH2 0x1A41 JUMP JUMPDEST SWAP1 POP SWAP3 SWAP2 POP POP JUMP JUMPDEST PUSH1 0x0 DUP2 SWAP1 POP SWAP3 SWAP2 POP POP JUMP JUMPDEST PUSH1 0x0 PUSH2 0x1B1B DUP3 PUSH2 0x18CE JUMP JUMPDEST PUSH2 0x1B25 DUP2 DUP6 PUSH2 0x1B05 JUMP JUMPDEST SWAP4 POP PUSH2 0x1B35 DUP2 DUP6 PUSH1 0x20 DUP7 ADD PUSH2 0x18EA JUMP JUMPDEST DUP1 DUP5 ADD SWAP2 POP POP SWAP3 SWAP2 POP POP JUMP JUMPDEST PUSH1 0x0 PUSH2 0x1B4D DUP3 DUP5 PUSH2 0x1B10 JUMP JUMPDEST SWAP2 POP DUP2 SWAP1 POP SWAP3 SWAP2 POP POP JUMP JUMPDEST PUSH32 0x4E487B7100000000000000000000000000000000000000000000000000000000 PUSH1 0x0 MSTORE PUSH1 0x11 PUSH1 0x4 MSTORE PUSH1 0x24 PUSH1 0x0 REVERT JUMPDEST PUSH1 0x0 PUSH2 0x1B92 DUP3 PUSH2 0x1462 JUMP JUMPDEST SWAP2 POP PUSH32 0xFFFFFFFFFFFFFFFFFFFFFFFFFFFFFFFFFFFFFFFFFFFFFFFFFFFFFFFFFFFFFFFF DUP3 SUB PUSH2 0x1BC4 JUMPI PUSH2 0x1BC3 PUSH2 0x1B58 JUMP JUMPDEST JUMPDEST PUSH1 0x1 DUP3 ADD SWAP1 POP SWAP2 SWAP1 POP JUMP JUMPDEST PUSH32 0x4E487B7100000000000000000000000000000000000000000000000000000000 PUSH1 0x0 MSTORE PUSH1 0x22 PUSH1 0x4 MSTORE PUSH1 0x24 PUSH1 0x0 REVERT JUMPDEST PUSH1 0x0 PUSH1 0x2 DUP3 DIV SWAP1 POP PUSH1 0x1 DUP3 AND DUP1 PUSH2 0x1C16 JUMPI PUSH1 0x7F DUP3 AND SWAP2 POP JUMPDEST PUSH1 0x20 DUP3 LT DUP2 SUB PUSH2 0x1C29 JUMPI PUSH2 0x1C28 PUSH2 0x1BCF JUMP JUMPDEST JUMPDEST POP SWAP2 SWAP1 POP JUMP JUMPDEST PUSH1 0x0 DUP2 SWAP1 POP DUP2 PUSH1 0x0 MSTORE PUSH1 0x20 PUSH1 0x0 KECCAK256 SWAP1 POP SWAP2 SWAP1 POP JUMP JUMPDEST PUSH1 0x0 PUSH1 0x20 PUSH1 0x1F DUP4 ADD DIV SWAP1 POP SWAP2 SWAP1 POP JUMP JUMPDEST PUSH1 0x0 DUP3 DUP3 SHL SWAP1 POP SWAP3 SWAP2 POP POP JUMP JUMPDEST PUSH1 0x0 PUSH1 0x8 DUP4 MUL PUSH2 0x1C91 PUSH32 0xFFFFFFFFFFFFFFFFFFFFFFFFFFFFFFFFFFFFFFFFFFFFFFFFFFFFFFFFFFFFFFFF DUP3 PUSH2 0x1C54 JUMP JUMPDEST PUSH2 0x1C9B DUP7 DUP4 PUSH2 0x1C54 JUMP JUMPDEST SWAP6 POP DUP1 NOT DUP5 AND SWAP4 POP DUP1 DUP7 AND DUP5 OR SWAP3 POP POP POP SWAP4 SWAP3 POP POP POP JUMP JUMPDEST PUSH1 0x0 DUP2 SWAP1 POP SWAP2 SWAP1 POP JUMP JUMPDEST PUSH1 0x0 PUSH2 0x1CD8 PUSH2 0x1CD3 PUSH2 0x1CCE DUP5 PUSH2 0x1462 JUMP JUMPDEST PUSH2 0x1CB3 JUMP JUMPDEST PUSH2 0x1462 JUMP JUMPDEST SWAP1 POP SWAP2 SWAP1 POP JUMP JUMPDEST PUSH1 0x0 DUP2 SWAP1 POP SWAP2 SWAP1 POP JUMP JUMPDEST PUSH2 0x1CF2 DUP4 PUSH2 0x1CBD JUMP JUMPDEST PUSH2 0x1D06 PUSH2 0x1CFE DUP3 PUSH2 0x1CDF JUMP JUMPDEST DUP5 DUP5 SLOAD PUSH2 0x1C61 JUMP JUMPDEST DUP3 SSTORE POP POP POP POP JUMP JUMPDEST PUSH1 0x0 SWAP1 JUMP JUMPDEST PUSH2 0x1D1B PUSH2 0x1D0E JUMP JUMPDEST PUSH2 0x1D26 DUP2 DUP5 DUP5 PUSH2 0x1CE9 JUMP JUMPDEST POP POP POP JUMP JUMPDEST JUMPDEST DUP2 DUP2 LT ISZERO PUSH2 0x1D4A JUMPI PUSH2 0x1D3F PUSH1 0x0 DUP3 PUSH2 0x1D13 JUMP JUMPDEST PUSH1 0x1 DUP2 ADD SWAP1 POP PUSH2 0x1D2C JUMP JUMPDEST POP POP JUMP JUMPDEST PUSH1 0x1F DUP3 GT ISZERO PUSH2 0x1D8F JUMPI PUSH2 0x1D60 DUP2 PUSH2 0x1C2F JUMP JUMPDEST PUSH2 0x1D69 DUP5 PUSH2 0x1C44 JUMP JUMPDEST DUP2 ADD PUSH1 0x20 DUP6 LT ISZERO PUSH2 0x1D78 JUMPI DUP2 SWAP1 POP JUMPDEST PUSH2 0x1D8C PUSH2 0x1D84 DUP6 PUSH2 0x1C44 JUMP JUMPDEST DUP4 ADD DUP3 PUSH2 0x1D2B JUMP JUMPDEST POP POP JUMPDEST POP POP POP JUMP JUMPDEST PUSH1 0x0 DUP3 DUP3 SHR SWAP1 POP SWAP3 SWAP2 POP POP JUMP JUMPDEST PUSH1 0x0 PUSH2 0x1DB2 PUSH1 0x0 NOT DUP5 PUSH1 0x8 MUL PUSH2 0x1D94 JUMP JUMPDEST NOT DUP1 DUP4 AND SWAP2 POP POP SWAP3 SWAP2 POP POP JUMP JUMPDEST PUSH1 0x0 PUSH2 0x1DCB DUP4 DUP4 PUSH2 0x1DA1 JUMP JUMPDEST SWAP2 POP DUP3 PUSH1 0x2 MUL DUP3 OR SWAP1 POP SWAP3 SWAP2 POP POP JUMP JUMPDEST PUSH2 0x1DE4 DUP3 PUSH2 0x18CE JUMP JUMPDEST PUSH8 0xFFFFFFFFFFFFFFFF DUP2 GT ISZERO PUSH2 0x1DFD JUMPI PUSH2 0x1DFC PUSH2 0x150A JUMP JUMPDEST JUMPDEST PUSH2 0x1E07 DUP3 SLOAD PUSH2 0x1BFE JUMP JUMPDEST PUSH2 0x1E12 DUP3 DUP3 DUP6 PUSH2 0x1D4E JUMP JUMPDEST PUSH1 0x0 PUSH1 0x20 SWAP1 POP PUSH1 0x1F DUP4 GT PUSH1 0x1 DUP2 EQ PUSH2 0x1E45 JUMPI PUSH1 0x0 DUP5 ISZERO PUSH2 0x1E33 JUMPI DUP3 DUP8 ADD MLOAD SWAP1 POP JUMPDEST PUSH2 0x1E3D DUP6 DUP3 PUSH2 0x1DBF JUMP JUMPDEST DUP7 SSTORE POP PUSH2 0x1EA5 JUMP JUMPDEST PUSH1 0x1F NOT DUP5 AND PUSH2 0x1E53 DUP7 PUSH2 0x1C2F JUMP JUMPDEST PUSH1 0x0 JUMPDEST DUP3 DUP2 LT ISZERO PUSH2 0x1E7B JUMPI DUP5 DUP10 ADD MLOAD DUP3 SSTORE PUSH1 0x1 DUP3 ADD SWAP2 POP PUSH1 0x20 DUP6 ADD SWAP5 POP PUSH1 0x20 DUP2 ADD SWAP1 POP PUSH2 0x1E56 JUMP JUMPDEST DUP7 DUP4 LT ISZERO PUSH2 0x1E98 JUMPI DUP5 DUP10 ADD MLOAD PUSH2 0x1E94 PUSH1 0x1F DUP10 AND DUP3 PUSH2 0x1DA1 JUMP JUMPDEST DUP4 SSTORE POP JUMPDEST PUSH1 0x1 PUSH1 0x2 DUP9 MUL ADD DUP9 SSTORE POP POP POP JUMPDEST POP POP POP POP POP POP JUMP JUMPDEST PUSH1 0x0 PUSH1 0x40 DUP3 ADD SWAP1 POP DUP2 DUP2 SUB PUSH1 0x0 DUP4 ADD MSTORE PUSH2 0x1EC7 DUP2 DUP6 PUSH2 0x1A41 JUMP JUMPDEST SWAP1 POP PUSH2 0x1ED6 PUSH1 0x20 DUP4 ADD DUP5 PUSH2 0x14C5 JUMP JUMPDEST SWAP4 SWAP3 POP POP POP JUMP JUMPDEST PUSH32 0x4E487B7100000000000000000000000000000000000000000000000000000000 PUSH1 0x0 MSTORE PUSH1 0x32 PUSH1 0x4 MSTORE PUSH1 0x24 PUSH1 0x0 REVERT INVALID MSIZE PUSH16 0x7520617265206E6F7420746865206F77 PUSH15 0x6572206F6620746869732066727569 PUSH21 0x55736572206973206E6F7420726567697374657265 PUSH5 0x2C20796F75 KECCAK256 PUSH2 0x7265 KECCAK256 PUSH15 0x6F7420616C6C6F77656420746F2064 PUSH16 0x207468697320616374696F6E2EA26469 PUSH17 0x667358221220A2B961E2B872C546AABFB5 STOP OR 0xD9 PUSH2 0xEFDA PUSH8 0xA28E6B95A8D3C529 0x21 0xCE STOP LT GT DUP16 PUSH5 0x736F6C6343 STOP ADDMOD SHR STOP CALLER "},"methodIdentifiers":{"addFruit(string,uint256)":"1b3f48e7","createUser()":"25ad91ce","fruitIdToIndex(uint256)":"039dfac6","fruitNameExists(string)":"74b4531a","fruits(uint256)":"c4172162","getFruitForSale(uint256)":"a782b7c9","getFruitsForSale()":"4427e150","getUserFruit(uint256)":"8580a834","getUserFruits()":"56fe7c0b","isRegistered()":"22366844","sellFruit(uint256,uint256)":"6d0811b5","userFruits(address,uint256)":"5ee96ead","users(address)":"a87430ba"}}}}}