{
  "_format": "hh-sol-artifact-1",
  "contractName": "NewFruitMarketPlace",
  "sourceName": "contracts/NewFruitMarketPlace.sol",
  "abi": [
    {
      "anonymous": false,
      "inputs": [
        {
          "indexed": true,
          "internalType": "uint256",
          "name": "fruitId",
          "type": "uint256"
        },
        {
          "indexed": false,
          "internalType": "string",
          "name": "name",
          "type": "string"
        },
        {
          "indexed": false,
          "internalType": "uint256",
          "name": "price",
          "type": "uint256"
        }
      ],
      "name": "FruitAdded",
      "type": "event"
    },
    {
      "anonymous": false,
      "inputs": [
        {
          "indexed": true,
          "internalType": "uint256",
          "name": "fruitId",
          "type": "uint256"
        },
        {
          "indexed": false,
          "internalType": "uint256",
          "name": "price",
          "type": "uint256"
        }
      ],
      "name": "FruitForSale",
      "type": "event"
    },
    {
      "anonymous": false,
      "inputs": [
        {
          "indexed": true,
          "internalType": "uint256",
          "name": "fruitId",
          "type": "uint256"
        },
        {
          "indexed": true,
          "internalType": "address",
          "name": "seller",
          "type": "address"
        },
        {
          "indexed": true,
          "internalType": "address",
          "name": "buyer",
          "type": "address"
        },
        {
          "indexed": false,
          "internalType": "uint256",
          "name": "price",
          "type": "uint256"
        }
      ],
      "name": "FruitSold",
      "type": "event"
    },
    {
      "anonymous": false,
      "inputs": [
        {
          "indexed": true,
          "internalType": "address",
          "name": "user",
          "type": "address"
        }
      ],
      "name": "Registration",
      "type": "event"
    },
    {
      "anonymous": false,
      "inputs": [
        {
          "indexed": true,
          "internalType": "address",
          "name": "seller",
          "type": "address"
        },
        {
          "indexed": true,
          "internalType": "address",
          "name": "buyer",
          "type": "address"
        },
        {
          "indexed": false,
          "internalType": "uint8",
          "name": "rating",
          "type": "uint8"
        },
        {
          "indexed": false,
          "internalType": "string",
          "name": "comment",
          "type": "string"
        }
      ],
      "name": "SellerRated",
      "type": "event"
    },
    {
      "inputs": [
        {
          "internalType": "string",
          "name": "_name",
          "type": "string"
        },
        {
          "internalType": "uint256",
          "name": "_price",
          "type": "uint256"
        }
      ],
      "name": "addFruit",
      "outputs": [],
      "stateMutability": "nonpayable",
      "type": "function"
    },
    {
      "inputs": [],
      "name": "createUser",
      "outputs": [],
      "stateMutability": "nonpayable",
      "type": "function"
    },
    {
      "inputs": [
        {
          "internalType": "uint256",
          "name": "",
          "type": "uint256"
        }
      ],
      "name": "fruitIdToIndex",
      "outputs": [
        {
          "internalType": "uint256",
          "name": "",
          "type": "uint256"
        }
      ],
      "stateMutability": "view",
      "type": "function"
    },
    {
      "inputs": [
        {
          "internalType": "string",
          "name": "",
          "type": "string"
        }
      ],
      "name": "fruitNameExists",
      "outputs": [
        {
          "internalType": "bool",
          "name": "",
          "type": "bool"
        }
      ],
      "stateMutability": "view",
      "type": "function"
    },
    {
      "inputs": [
        {
          "internalType": "uint256",
          "name": "",
          "type": "uint256"
        }
      ],
      "name": "fruits",
      "outputs": [
        {
          "internalType": "uint256",
          "name": "id",
          "type": "uint256"
        },
        {
          "internalType": "string",
          "name": "name",
          "type": "string"
        },
        {
          "internalType": "uint256",
          "name": "price",
          "type": "uint256"
        },
        {
          "internalType": "address",
          "name": "owner",
          "type": "address"
        },
        {
          "internalType": "bool",
          "name": "forSale",
          "type": "bool"
        }
      ],
      "stateMutability": "view",
      "type": "function"
    },
    {
      "inputs": [
        {
          "internalType": "uint256",
          "name": "_fruitId",
          "type": "uint256"
        }
      ],
      "name": "getFruitForSale",
      "outputs": [
        {
          "components": [
            {
              "internalType": "uint256",
              "name": "id",
              "type": "uint256"
            },
            {
              "internalType": "string",
              "name": "name",
              "type": "string"
            },
            {
              "internalType": "uint256",
              "name": "price",
              "type": "uint256"
            },
            {
              "internalType": "address",
              "name": "owner",
              "type": "address"
            },
            {
              "internalType": "bool",
              "name": "forSale",
              "type": "bool"
            }
          ],
          "internalType": "struct NewFruitMarketPlace.Fruit",
          "name": "",
          "type": "tuple"
        }
      ],
      "stateMutability": "view",
      "type": "function"
    },
    {
      "inputs": [],
      "name": "getFruitsForSale",
      "outputs": [
        {
          "internalType": "uint256[]",
          "name": "",
          "type": "uint256[]"
        }
      ],
      "stateMutability": "view",
      "type": "function"
    },
    {
      "inputs": [
        {
          "internalType": "uint256",
          "name": "_fruitId",
          "type": "uint256"
        }
      ],
      "name": "getUserFruit",
      "outputs": [
        {
          "components": [
            {
              "internalType": "uint256",
              "name": "id",
              "type": "uint256"
            },
            {
              "internalType": "string",
              "name": "name",
              "type": "string"
            },
            {
              "internalType": "uint256",
              "name": "price",
              "type": "uint256"
            },
            {
              "internalType": "address",
              "name": "owner",
              "type": "address"
            },
            {
              "internalType": "bool",
              "name": "forSale",
              "type": "bool"
            }
          ],
          "internalType": "struct NewFruitMarketPlace.Fruit",
          "name": "",
          "type": "tuple"
        }
      ],
      "stateMutability": "view",
      "type": "function"
    },
    {
      "inputs": [],
      "name": "getUserFruits",
      "outputs": [
        {
          "internalType": "uint256[]",
          "name": "",
          "type": "uint256[]"
        }
      ],
      "stateMutability": "view",
      "type": "function"
    },
    {
      "inputs": [],
      "name": "isRegistered",
      "outputs": [
        {
          "internalType": "bool",
          "name": "",
          "type": "bool"
        }
      ],
      "stateMutability": "view",
      "type": "function"
    },
    {
      "inputs": [
        {
          "internalType": "uint256",
          "name": "_fruitId",
          "type": "uint256"
        },
        {
          "internalType": "uint256",
          "name": "_price",
          "type": "uint256"
        }
      ],
      "name": "sellFruit",
      "outputs": [],
      "stateMutability": "nonpayable",
      "type": "function"
    },
    {
      "inputs": [
        {
          "internalType": "address",
          "name": "",
          "type": "address"
        },
        {
          "internalType": "uint256",
          "name": "",
          "type": "uint256"
        }
      ],
      "name": "userFruits",
      "outputs": [
        {
          "internalType": "uint256",
          "name": "",
          "type": "uint256"
        }
      ],
      "stateMutability": "view",
      "type": "function"
    },
    {
      "inputs": [
        {
          "internalType": "address",
          "name": "",
          "type": "address"
        }
      ],
      "name": "users",
      "outputs": [
        {
          "internalType": "bool",
          "name": "isRegistered",
          "type": "bool"
        }
      ],
      "stateMutability": "view",
      "type": "function"
    }
  ],
  "bytecode": "0x60806040526000600155348015601457600080fd5b50611ee3806100246000396000f3fe608060405234801561001057600080fd5b50600436106100cf5760003560e01c80635ee96ead1161008c5780638580a834116100665780638580a83414610200578063a782b7c914610230578063a87430ba14610260578063c417216214610290576100cf565b80635ee96ead146101845780636d0811b5146101b457806374b4531a146101d0576100cf565b8063039dfac6146100d45780631b3f48e714610104578063223668441461012057806325ad91ce1461013e5780634427e1501461014857806356fe7c0b14610166575b600080fd5b6100ee60048036038101906100e991906111f3565b6102c4565b6040516100fb919061122f565b60405180910390f35b61011e60048036038101906101199190611390565b6102dc565b005b6101286105a1565b6040516101359190611407565b60405180910390f35b6101466105f8565b005b6101506106ed565b60405161015d91906114e0565b60405180910390f35b61016e61089d565b60405161017b91906114e0565b60405180910390f35b61019e60048036038101906101999190611560565b610979565b6040516101ab919061122f565b60405180910390f35b6101ce60048036038101906101c991906115a0565b6109aa565b005b6101ea60048036038101906101e591906115e0565b610b74565b6040516101f79190611407565b60405180910390f35b61021a600480360381019061021591906111f3565b610baa565b604051610227919061173c565b60405180910390f35b61024a600480360381019061024591906111f3565b610e10565b604051610257919061173c565b60405180910390f35b61027a6004803603810190610275919061175e565b61103c565b6040516102879190611407565b60405180910390f35b6102aa60048036038101906102a591906111f3565b611067565b6040516102bb9594939291906117e4565b60405180910390f35b60056020528060005260406000206000915090505481565b6102e46105a1565b610323576040517f08c379a000000000000000000000000000000000000000000000000000000000815260040161031a906118b0565b60405180910390fd5b600282604051610333919061190c565b908152602001604051809103902060009054906101000a900460ff161561038f576040517f08c379a00000000000000000000000000000000000000000000000000000000081526004016103869061196f565b60405180910390fd5b6000600160008154809291906103a4906119be565b91905055905060016002846040516103bc919061190c565b908152602001604051809103902060006101000a81548160ff021916908315150217905550600080549050600560008381526020019081526020016000208190555060006040518060a001604052808381526020018581526020018481526020013373ffffffffffffffffffffffffffffffffffffffff1681526020016000151581525090806001815401808255809150506001900390600052602060002090600402016000909190919091506000820151816000015560208201518160010190816104889190611c12565b506040820151816002015560608201518160030160006101000a81548173ffffffffffffffffffffffffffffffffffffffff021916908373ffffffffffffffffffffffffffffffffffffffff16021790555060808201518160030160146101000a81548160ff0219169083151502179055505050600460003373ffffffffffffffffffffffffffffffffffffffff1673ffffffffffffffffffffffffffffffffffffffff168152602001908152602001600020819080600181540180825580915050600190039060005260206000200160009091909190915055807f739ce2e7a39c6bcaa33b49cfa6353b263c41f3722f21cd92b34d72f6c5b2d3098484604051610594929190611ce4565b60405180910390a2505050565b6000600360003373ffffffffffffffffffffffffffffffffffffffff1673ffffffffffffffffffffffffffffffffffffffff16815260200190815260200160002060000160009054906101000a900460ff16905090565b600360003373ffffffffffffffffffffffffffffffffffffffff1673ffffffffffffffffffffffffffffffffffffffff16815260200190815260200160002060000160009054906101000a900460ff166106eb576001600360003373ffffffffffffffffffffffffffffffffffffffff1673ffffffffffffffffffffffffffffffffffffffff16815260200190815260200160002060000160006101000a81548160ff0219169083151502179055503373ffffffffffffffffffffffffffffffffffffffff167f478f5152d8fc568db3f8de9fb402fd9d98a1a7541ecfe434e59cf574fbfc552460405160405180910390a25b565b60606106f76105a1565b610736576040517f08c379a000000000000000000000000000000000000000000000000000000000815260040161072d906118b0565b60405180910390fd5b6000805b60008054905081101561079b576000818154811061075b5761075a611d14565b5b906000526020600020906004020160030160149054906101000a900460ff161561078e57818061078a906119be565b9250505b808060010191505061073a565b5060008167ffffffffffffffff8111156107b8576107b7611265565b5b6040519080825280602002602001820160405280156107e65781602001602082028036833780820191505090505b5090506000805b600080549050811015610893576000818154811061080e5761080d611d14565b5b906000526020600020906004020160030160149054906101000a900460ff1615610886576000818154811061084657610845611d14565b5b90600052602060002090600402016000015483838151811061086b5761086a611d14565b5b6020026020010181815250508180610882906119be565b9250505b80806001019150506107ed565b5081935050505090565b60606108a76105a1565b6108e6576040517f08c379a00000000000000000000000000000000000000000000000000000000081526004016108dd906118b0565b60405180910390fd5b600460003373ffffffffffffffffffffffffffffffffffffffff1673ffffffffffffffffffffffffffffffffffffffff16815260200190815260200160002080548060200260200160405190810160405280929190818152602001828054801561096f57602002820191906000526020600020905b81548152602001906001019080831161095b575b5050505050905090565b6004602052816000526040600020818154811061099557600080fd5b90600052602060002001600091509150505481565b600080549050600560008481526020019081526020016000205410610a04576040517f08c379a00000000000000000000000000000000000000000000000000000000081526004016109fb90611d8f565b60405180910390fd5b6000600560008481526020019081526020016000205490503373ffffffffffffffffffffffffffffffffffffffff1660008281548110610a4757610a46611d14565b5b906000526020600020906004020160030160009054906101000a900473ffffffffffffffffffffffffffffffffffffffff1673ffffffffffffffffffffffffffffffffffffffff1614610acf576040517f08c379a0000000000000000000000000000000000000000000000000000000008152600401610ac690611e21565b60405180910390fd5b600160008281548110610ae557610ae4611d14565b5b906000526020600020906004020160030160146101000a81548160ff0219169083151502179055508160008281548110610b2257610b21611d14565b5b906000526020600020906004020160020181905550827f12837b86d796be7cebf41bb928648910d81a15528850a24e043963cb4e3aae4283604051610b67919061122f565b60405180910390a2505050565b6002818051602081018201805184825260208301602085012081835280955050505050506000915054906101000a900460ff1681565b610bb2611162565b610bba6105a1565b610bf9576040517f08c379a0000000000000000000000000000000000000000000000000000000008152600401610bf0906118b0565b60405180910390fd5b6000600560008481526020019081526020016000205490503373ffffffffffffffffffffffffffffffffffffffff1660008281548110610c3c57610c3b611d14565b5b906000526020600020906004020160030160009054906101000a900473ffffffffffffffffffffffffffffffffffffffff1673ffffffffffffffffffffffffffffffffffffffff1614610cc4576040517f08c379a0000000000000000000000000000000000000000000000000000000008152600401610cbb90611e21565b60405180910390fd5b60008181548110610cd857610cd7611d14565b5b90600052602060002090600402016040518060a001604052908160008201548152602001600182018054610d0b90611a35565b80601f0160208091040260200160405190810160405280929190818152602001828054610d3790611a35565b8015610d845780601f10610d5957610100808354040283529160200191610d84565b820191906000526020600020905b815481529060010190602001808311610d6757829003601f168201915b50505050508152602001600282015481526020016003820160009054906101000a900473ffffffffffffffffffffffffffffffffffffffff1673ffffffffffffffffffffffffffffffffffffffff1673ffffffffffffffffffffffffffffffffffffffff1681526020016003820160149054906101000a900460ff161515151581525050915050919050565b610e18611162565b610e206105a1565b610e5f576040517f08c379a0000000000000000000000000000000000000000000000000000000008152600401610e56906118b0565b60405180910390fd5b6000600560008481526020019081526020016000205490506001151560008281548110610e8f57610e8e611d14565b5b906000526020600020906004020160030160149054906101000a900460ff16151514610ef0576040517f08c379a0000000000000000000000000000000000000000000000000000000008152600401610ee790611e8d565b60405180910390fd5b60008181548110610f0457610f03611d14565b5b90600052602060002090600402016040518060a001604052908160008201548152602001600182018054610f3790611a35565b80601f0160208091040260200160405190810160405280929190818152602001828054610f6390611a35565b8015610fb05780601f10610f8557610100808354040283529160200191610fb0565b820191906000526020600020905b815481529060010190602001808311610f9357829003601f168201915b50505050508152602001600282015481526020016003820160009054906101000a900473ffffffffffffffffffffffffffffffffffffffff1673ffffffffffffffffffffffffffffffffffffffff1673ffffffffffffffffffffffffffffffffffffffff1681526020016003820160149054906101000a900460ff161515151581525050915050919050565b60036020528060005260406000206000915090508060000160009054906101000a900460ff16905081565b6000818154811061107757600080fd5b90600052602060002090600402016000915090508060000154908060010180546110a090611a35565b80601f01602080910402602001604051908101604052809291908181526020018280546110cc90611a35565b80156111195780601f106110ee57610100808354040283529160200191611119565b820191906000526020600020905b8154815290600101906020018083116110fc57829003601f168201915b5050505050908060020154908060030160009054906101000a900473ffffffffffffffffffffffffffffffffffffffff16908060030160149054906101000a900460ff16905085565b6040518060a00160405280600081526020016060815260200160008152602001600073ffffffffffffffffffffffffffffffffffffffff1681526020016000151581525090565b6000604051905090565b600080fd5b600080fd5b6000819050919050565b6111d0816111bd565b81146111db57600080fd5b50565b6000813590506111ed816111c7565b92915050565b600060208284031215611209576112086111b3565b5b6000611217848285016111de565b91505092915050565b611229816111bd565b82525050565b60006020820190506112446000830184611220565b92915050565b600080fd5b600080fd5b6000601f19601f8301169050919050565b7f4e487b7100000000000000000000000000000000000000000000000000000000600052604160045260246000fd5b61129d82611254565b810181811067ffffffffffffffff821117156112bc576112bb611265565b5b80604052505050565b60006112cf6111a9565b90506112db8282611294565b919050565b600067ffffffffffffffff8211156112fb576112fa611265565b5b61130482611254565b9050602081019050919050565b82818337600083830152505050565b600061133361132e846112e0565b6112c5565b90508281526020810184848401111561134f5761134e61124f565b5b61135a848285611311565b509392505050565b600082601f8301126113775761137661124a565b5b8135611387848260208601611320565b91505092915050565b600080604083850312156113a7576113a66111b3565b5b600083013567ffffffffffffffff8111156113c5576113c46111b8565b5b6113d185828601611362565b92505060206113e2858286016111de565b9150509250929050565b60008115159050919050565b611401816113ec565b82525050565b600060208201905061141c60008301846113f8565b92915050565b600081519050919050565b600082825260208201905092915050565b6000819050602082019050919050565b611457816111bd565b82525050565b6000611469838361144e565b60208301905092915050565b6000602082019050919050565b600061148d82611422565b611497818561142d565b93506114a28361143e565b8060005b838110156114d35781516114ba888261145d565b97506114c583611475565b9250506001810190506114a6565b5085935050505092915050565b600060208201905081810360008301526114fa8184611482565b905092915050565b600073ffffffffffffffffffffffffffffffffffffffff82169050919050565b600061152d82611502565b9050919050565b61153d81611522565b811461154857600080fd5b50565b60008135905061155a81611534565b92915050565b60008060408385031215611577576115766111b3565b5b60006115858582860161154b565b9250506020611596858286016111de565b9150509250929050565b600080604083850312156115b7576115b66111b3565b5b60006115c5858286016111de565b92505060206115d6858286016111de565b9150509250929050565b6000602082840312156115f6576115f56111b3565b5b600082013567ffffffffffffffff811115611614576116136111b8565b5b61162084828501611362565b91505092915050565b600081519050919050565b600082825260208201905092915050565b60005b83811015611663578082015181840152602081019050611648565b60008484015250505050565b600061167a82611629565b6116848185611634565b9350611694818560208601611645565b61169d81611254565b840191505092915050565b6116b181611522565b82525050565b6116c0816113ec565b82525050565b600060a0830160008301516116de600086018261144e565b50602083015184820360208601526116f6828261166f565b915050604083015161170b604086018261144e565b50606083015161171e60608601826116a8565b50608083015161173160808601826116b7565b508091505092915050565b6000602082019050818103600083015261175681846116c6565b905092915050565b600060208284031215611774576117736111b3565b5b60006117828482850161154b565b91505092915050565b600082825260208201905092915050565b60006117a782611629565b6117b1818561178b565b93506117c1818560208601611645565b6117ca81611254565b840191505092915050565b6117de81611522565b82525050565b600060a0820190506117f96000830188611220565b818103602083015261180b818761179c565b905061181a6040830186611220565b61182760608301856117d5565b61183460808301846113f8565b9695505050505050565b7f55736572206973206e6f7420726567697374657265642c20796f75206172652060008201527f6e6f7420616c6c6f77656420746f20646f207468697320616374696f6e2e0000602082015250565b600061189a603e8361178b565b91506118a58261183e565b604082019050919050565b600060208201905081810360008301526118c98161188d565b9050919050565b600081905092915050565b60006118e682611629565b6118f081856118d0565b9350611900818560208601611645565b80840191505092915050565b600061191882846118db565b915081905092915050565b7f467275697420616c7265616479206578697374732e0000000000000000000000600082015250565b600061195960158361178b565b915061196482611923565b602082019050919050565b600060208201905081810360008301526119888161194c565b9050919050565b7f4e487b7100000000000000000000000000000000000000000000000000000000600052601160045260246000fd5b60006119c9826111bd565b91507fffffffffffffffffffffffffffffffffffffffffffffffffffffffffffffffff82036119fb576119fa61198f565b5b600182019050919050565b7f4e487b7100000000000000000000000000000000000000000000000000000000600052602260045260246000fd5b60006002820490506001821680611a4d57607f821691505b602082108103611a6057611a5f611a06565b5b50919050565b60008190508160005260206000209050919050565b60006020601f8301049050919050565b600082821b905092915050565b600060088302611ac87fffffffffffffffffffffffffffffffffffffffffffffffffffffffffffffffff82611a8b565b611ad28683611a8b565b95508019841693508086168417925050509392505050565b6000819050919050565b6000611b0f611b0a611b05846111bd565b611aea565b6111bd565b9050919050565b6000819050919050565b611b2983611af4565b611b3d611b3582611b16565b848454611a98565b825550505050565b600090565b611b52611b45565b611b5d818484611b20565b505050565b5b81811015611b8157611b76600082611b4a565b600181019050611b63565b5050565b601f821115611bc657611b9781611a66565b611ba084611a7b565b81016020851015611baf578190505b611bc3611bbb85611a7b565b830182611b62565b50505b505050565b600082821c905092915050565b6000611be960001984600802611bcb565b1980831691505092915050565b6000611c028383611bd8565b9150826002028217905092915050565b611c1b82611629565b67ffffffffffffffff811115611c3457611c33611265565b5b611c3e8254611a35565b611c49828285611b85565b600060209050601f831160018114611c7c5760008415611c6a578287015190505b611c748582611bf6565b865550611cdc565b601f198416611c8a86611a66565b60005b82811015611cb257848901518255600182019150602085019450602081019050611c8d565b86831015611ccf5784890151611ccb601f891682611bd8565b8355505b6001600288020188555050505b505050505050565b60006040820190508181036000830152611cfe818561179c565b9050611d0d6020830184611220565b9392505050565b7f4e487b7100000000000000000000000000000000000000000000000000000000600052603260045260246000fd5b7f54686520667275697420646f6573206e6f742065786973740000000000000000600082015250565b6000611d7960188361178b565b9150611d8482611d43565b602082019050919050565b60006020820190508181036000830152611da881611d6c565b9050919050565b7f596f7520617265206e6f7420746865206f776e6572206f66207468697320667260008201527f7569740000000000000000000000000000000000000000000000000000000000602082015250565b6000611e0b60238361178b565b9150611e1682611daf565b604082019050919050565b60006020820190508181036000830152611e3a81611dfe565b9050919050565b7f54686973206672756974206973206e6f7420666f722073616c65210000000000600082015250565b6000611e77601b8361178b565b9150611e8282611e41565b602082019050919050565b60006020820190508181036000830152611ea681611e6a565b905091905056fea26469706673582212205cfebda3710e44639f85dbbae1aa87018a161f2c95e95770793a5d9703d9d35464736f6c634300081c0033",
  "linkReferences": {},
  "deployedLinkReferences": {}
}