{
  "_format": "hh-sol-artifact-1",
  "contractName": "NewFruitMarketPlace",
  "sourceName": "contracts/NewFruitMarketPlace.sol",
  "abi": [
    {
      "anonymous": false,
      "inputs": [
        {
          "indexed": true,
          "internalType": "uint256",
          "name": "fruitId",
          "type": "uint256"
        },
        {
          "indexed": false,
          "internalType": "string",
          "name": "name",
          "type": "string"
        },
        {
          "indexed": false,
          "internalType": "uint256",
          "name": "price",
          "type": "uint256"
        }
      ],
      "name": "FruitAdded",
      "type": "event"
    },
    {
      "anonymous": false,
      "inputs": [
        {
          "indexed": true,
          "internalType": "uint256",
          "name": "fruitId",
          "type": "uint256"
        },
        {
          "indexed": false,
          "internalType": "uint256",
          "name": "price",
          "type": "uint256"
        }
      ],
      "name": "FruitForSale",
      "type": "event"
    },
    {
      "anonymous": false,
      "inputs": [
        {
          "indexed": true,
          "internalType": "uint256",
          "name": "fruitId",
          "type": "uint256"
        },
        {
          "indexed": true,
          "internalType": "address",
          "name": "seller",
          "type": "address"
        },
        {
          "indexed": true,
          "internalType": "address",
          "name": "buyer",
          "type": "address"
        },
        {
          "indexed": false,
          "internalType": "uint256",
          "name": "price",
          "type": "uint256"
        }
      ],
      "name": "FruitSold",
      "type": "event"
    },
    {
      "anonymous": false,
      "inputs": [
        {
          "indexed": true,
          "internalType": "address",
          "name": "user",
          "type": "address"
        }
      ],
      "name": "Registration",
      "type": "event"
    },
    {
      "anonymous": false,
      "inputs": [
        {
          "indexed": true,
          "internalType": "address",
          "name": "seller",
          "type": "address"
        },
        {
          "indexed": true,
          "internalType": "address",
          "name": "buyer",
          "type": "address"
        },
        {
          "indexed": false,
          "internalType": "uint8",
          "name": "rating",
          "type": "uint8"
        },
        {
          "indexed": false,
          "internalType": "string",
          "name": "comment",
          "type": "string"
        }
      ],
      "name": "SellerRated",
      "type": "event"
    },
    {
      "inputs": [
        {
          "internalType": "string",
          "name": "_name",
          "type": "string"
        },
        {
          "internalType": "uint256",
          "name": "_price",
          "type": "uint256"
        }
      ],
      "name": "addFruit",
      "outputs": [],
      "stateMutability": "nonpayable",
      "type": "function"
    },
    {
      "inputs": [],
      "name": "createUser",
      "outputs": [],
      "stateMutability": "nonpayable",
      "type": "function"
    },
    {
      "inputs": [
        {
          "internalType": "uint256",
          "name": "",
          "type": "uint256"
        }
      ],
      "name": "fruitIdToIndex",
      "outputs": [
        {
          "internalType": "uint256",
          "name": "",
          "type": "uint256"
        }
      ],
      "stateMutability": "view",
      "type": "function"
    },
    {
      "inputs": [
        {
          "internalType": "string",
          "name": "",
          "type": "string"
        }
      ],
      "name": "fruitNameExists",
      "outputs": [
        {
          "internalType": "bool",
          "name": "",
          "type": "bool"
        }
      ],
      "stateMutability": "view",
      "type": "function"
    },
    {
      "inputs": [
        {
          "internalType": "uint256",
          "name": "",
          "type": "uint256"
        }
      ],
      "name": "fruits",
      "outputs": [
        {
          "internalType": "uint256",
          "name": "id",
          "type": "uint256"
        },
        {
          "internalType": "string",
          "name": "name",
          "type": "string"
        },
        {
          "internalType": "uint256",
          "name": "price",
          "type": "uint256"
        },
        {
          "internalType": "address",
          "name": "owner",
          "type": "address"
        },
        {
          "internalType": "bool",
          "name": "forSale",
          "type": "bool"
        }
      ],
      "stateMutability": "view",
      "type": "function"
    },
    {
      "inputs": [],
      "name": "isRegistered",
      "outputs": [
        {
          "internalType": "bool",
          "name": "",
          "type": "bool"
        }
      ],
      "stateMutability": "view",
      "type": "function"
    },
    {
      "inputs": [
        {
          "internalType": "uint256",
          "name": "_fruitId",
          "type": "uint256"
        },
        {
          "internalType": "uint256",
          "name": "_price",
          "type": "uint256"
        }
      ],
      "name": "sellFruit",
      "outputs": [],
      "stateMutability": "nonpayable",
      "type": "function"
    },
    {
      "inputs": [
        {
          "internalType": "address",
          "name": "",
          "type": "address"
        },
        {
          "internalType": "uint256",
          "name": "",
          "type": "uint256"
        }
      ],
      "name": "userFruits",
      "outputs": [
        {
          "internalType": "uint256",
          "name": "",
          "type": "uint256"
        }
      ],
      "stateMutability": "view",
      "type": "function"
    },
    {
      "inputs": [
        {
          "internalType": "address",
          "name": "",
          "type": "address"
        }
      ],
      "name": "users",
      "outputs": [
        {
          "internalType": "bool",
          "name": "isRegistered",
          "type": "bool"
        }
      ],
      "stateMutability": "view",
      "type": "function"
    }
  ],
  "bytecode": "0x60806040526000600155348015601457600080fd5b5061145a806100246000396000f3fe608060405234801561001057600080fd5b50600436106100935760003560e01c80635ee96ead116100665780635ee96ead1461010c5780636d0811b51461013c57806374b4531a14610158578063a87430ba14610188578063c4172162146101b857610093565b8063039dfac6146100985780631b3f48e7146100c857806322366844146100e457806325ad91ce14610102575b600080fd5b6100b260048036038101906100ad91906109b6565b6101ec565b6040516100bf91906109f2565b60405180910390f35b6100e260048036038101906100dd9190610b53565b610204565b005b6100ec6104c9565b6040516100f99190610bca565b60405180910390f35b61010a610520565b005b61012660048036038101906101219190610c43565b610615565b60405161013391906109f2565b60405180910390f35b61015660048036038101906101519190610c83565b610646565b005b610172600480360381019061016d9190610cc3565b610810565b60405161017f9190610bca565b60405180910390f35b6101a2600480360381019061019d9190610d0c565b610846565b6040516101af9190610bca565b60405180910390f35b6101d260048036038101906101cd91906109b6565b610871565b6040516101e3959493929190610dc7565b60405180910390f35b60056020528060005260406000206000915090505481565b61020c6104c9565b61024b576040517f08c379a000000000000000000000000000000000000000000000000000000000815260040161024290610e93565b60405180910390fd5b60028260405161025b9190610eef565b908152602001604051809103902060009054906101000a900460ff16156102b7576040517f08c379a00000000000000000000000000000000000000000000000000000000081526004016102ae90610f52565b60405180910390fd5b6000600160008154809291906102cc90610fa1565b91905055905060016002846040516102e49190610eef565b908152602001604051809103902060006101000a81548160ff021916908315150217905550600080549050600560008381526020019081526020016000208190555060006040518060a001604052808381526020018581526020018481526020013373ffffffffffffffffffffffffffffffffffffffff1681526020016000151581525090806001815401808255809150506001900390600052602060002090600402016000909190919091506000820151816000015560208201518160010190816103b091906111f5565b506040820151816002015560608201518160030160006101000a81548173ffffffffffffffffffffffffffffffffffffffff021916908373ffffffffffffffffffffffffffffffffffffffff16021790555060808201518160030160146101000a81548160ff0219169083151502179055505050600460003373ffffffffffffffffffffffffffffffffffffffff1673ffffffffffffffffffffffffffffffffffffffff168152602001908152602001600020819080600181540180825580915050600190039060005260206000200160009091909190915055807f739ce2e7a39c6bcaa33b49cfa6353b263c41f3722f21cd92b34d72f6c5b2d30984846040516104bc9291906112c7565b60405180910390a2505050565b6000600360003373ffffffffffffffffffffffffffffffffffffffff1673ffffffffffffffffffffffffffffffffffffffff16815260200190815260200160002060000160009054906101000a900460ff16905090565b600360003373ffffffffffffffffffffffffffffffffffffffff1673ffffffffffffffffffffffffffffffffffffffff16815260200190815260200160002060000160009054906101000a900460ff16610613576001600360003373ffffffffffffffffffffffffffffffffffffffff1673ffffffffffffffffffffffffffffffffffffffff16815260200190815260200160002060000160006101000a81548160ff0219169083151502179055503373ffffffffffffffffffffffffffffffffffffffff167f478f5152d8fc568db3f8de9fb402fd9d98a1a7541ecfe434e59cf574fbfc552460405160405180910390a25b565b6004602052816000526040600020818154811061063157600080fd5b90600052602060002001600091509150505481565b6000805490506005600084815260200190815260200160002054106106a0576040517f08c379a000000000000000000000000000000000000000000000000000000000815260040161069790611343565b60405180910390fd5b6000600560008481526020019081526020016000205490503373ffffffffffffffffffffffffffffffffffffffff16600082815481106106e3576106e2611363565b5b906000526020600020906004020160030160009054906101000a900473ffffffffffffffffffffffffffffffffffffffff1673ffffffffffffffffffffffffffffffffffffffff161461076b576040517f08c379a000000000000000000000000000000000000000000000000000000000815260040161076290611404565b60405180910390fd5b60016000828154811061078157610780611363565b5b906000526020600020906004020160030160146101000a81548160ff02191690831515021790555081600082815481106107be576107bd611363565b5b906000526020600020906004020160020181905550827f12837b86d796be7cebf41bb928648910d81a15528850a24e043963cb4e3aae428360405161080391906109f2565b60405180910390a2505050565b6002818051602081018201805184825260208301602085012081835280955050505050506000915054906101000a900460ff1681565b60036020528060005260406000206000915090508060000160009054906101000a900460ff16905081565b6000818154811061088157600080fd5b90600052602060002090600402016000915090508060000154908060010180546108aa90611018565b80601f01602080910402602001604051908101604052809291908181526020018280546108d690611018565b80156109235780601f106108f857610100808354040283529160200191610923565b820191906000526020600020905b81548152906001019060200180831161090657829003601f168201915b5050505050908060020154908060030160009054906101000a900473ffffffffffffffffffffffffffffffffffffffff16908060030160149054906101000a900460ff16905085565b6000604051905090565b600080fd5b600080fd5b6000819050919050565b61099381610980565b811461099e57600080fd5b50565b6000813590506109b08161098a565b92915050565b6000602082840312156109cc576109cb610976565b5b60006109da848285016109a1565b91505092915050565b6109ec81610980565b82525050565b6000602082019050610a0760008301846109e3565b92915050565b600080fd5b600080fd5b6000601f19601f8301169050919050565b7f4e487b7100000000000000000000000000000000000000000000000000000000600052604160045260246000fd5b610a6082610a17565b810181811067ffffffffffffffff82111715610a7f57610a7e610a28565b5b80604052505050565b6000610a9261096c565b9050610a9e8282610a57565b919050565b600067ffffffffffffffff821115610abe57610abd610a28565b5b610ac782610a17565b9050602081019050919050565b82818337600083830152505050565b6000610af6610af184610aa3565b610a88565b905082815260208101848484011115610b1257610b11610a12565b5b610b1d848285610ad4565b509392505050565b600082601f830112610b3a57610b39610a0d565b5b8135610b4a848260208601610ae3565b91505092915050565b60008060408385031215610b6a57610b69610976565b5b600083013567ffffffffffffffff811115610b8857610b8761097b565b5b610b9485828601610b25565b9250506020610ba5858286016109a1565b9150509250929050565b60008115159050919050565b610bc481610baf565b82525050565b6000602082019050610bdf6000830184610bbb565b92915050565b600073ffffffffffffffffffffffffffffffffffffffff82169050919050565b6000610c1082610be5565b9050919050565b610c2081610c05565b8114610c2b57600080fd5b50565b600081359050610c3d81610c17565b92915050565b60008060408385031215610c5a57610c59610976565b5b6000610c6885828601610c2e565b9250506020610c79858286016109a1565b9150509250929050565b60008060408385031215610c9a57610c99610976565b5b6000610ca8858286016109a1565b9250506020610cb9858286016109a1565b9150509250929050565b600060208284031215610cd957610cd8610976565b5b600082013567ffffffffffffffff811115610cf757610cf661097b565b5b610d0384828501610b25565b91505092915050565b600060208284031215610d2257610d21610976565b5b6000610d3084828501610c2e565b91505092915050565b600081519050919050565b600082825260208201905092915050565b60005b83811015610d73578082015181840152602081019050610d58565b60008484015250505050565b6000610d8a82610d39565b610d948185610d44565b9350610da4818560208601610d55565b610dad81610a17565b840191505092915050565b610dc181610c05565b82525050565b600060a082019050610ddc60008301886109e3565b8181036020830152610dee8187610d7f565b9050610dfd60408301866109e3565b610e0a6060830185610db8565b610e176080830184610bbb565b9695505050505050565b7f55736572206973206e6f7420726567697374657265642c20796f75206172652060008201527f6e6f7420616c6c6f77656420746f20646f207468697320616374696f6e2e0000602082015250565b6000610e7d603e83610d44565b9150610e8882610e21565b604082019050919050565b60006020820190508181036000830152610eac81610e70565b9050919050565b600081905092915050565b6000610ec982610d39565b610ed38185610eb3565b9350610ee3818560208601610d55565b80840191505092915050565b6000610efb8284610ebe565b915081905092915050565b7f467275697420616c7265616479206578697374732e0000000000000000000000600082015250565b6000610f3c601583610d44565b9150610f4782610f06565b602082019050919050565b60006020820190508181036000830152610f6b81610f2f565b9050919050565b7f4e487b7100000000000000000000000000000000000000000000000000000000600052601160045260246000fd5b6000610fac82610980565b91507fffffffffffffffffffffffffffffffffffffffffffffffffffffffffffffffff8203610fde57610fdd610f72565b5b600182019050919050565b7f4e487b7100000000000000000000000000000000000000000000000000000000600052602260045260246000fd5b6000600282049050600182168061103057607f821691505b60208210810361104357611042610fe9565b5b50919050565b60008190508160005260206000209050919050565b60006020601f8301049050919050565b600082821b905092915050565b6000600883026110ab7fffffffffffffffffffffffffffffffffffffffffffffffffffffffffffffffff8261106e565b6110b5868361106e565b95508019841693508086168417925050509392505050565b6000819050919050565b60006110f26110ed6110e884610980565b6110cd565b610980565b9050919050565b6000819050919050565b61110c836110d7565b611120611118826110f9565b84845461107b565b825550505050565b600090565b611135611128565b611140818484611103565b505050565b5b818110156111645761115960008261112d565b600181019050611146565b5050565b601f8211156111a95761117a81611049565b6111838461105e565b81016020851015611192578190505b6111a661119e8561105e565b830182611145565b50505b505050565b600082821c905092915050565b60006111cc600019846008026111ae565b1980831691505092915050565b60006111e583836111bb565b9150826002028217905092915050565b6111fe82610d39565b67ffffffffffffffff81111561121757611216610a28565b5b6112218254611018565b61122c828285611168565b600060209050601f83116001811461125f576000841561124d578287015190505b61125785826111d9565b8655506112bf565b601f19841661126d86611049565b60005b8281101561129557848901518255600182019150602085019450602081019050611270565b868310156112b257848901516112ae601f8916826111bb565b8355505b6001600288020188555050505b505050505050565b600060408201905081810360008301526112e18185610d7f565b90506112f060208301846109e3565b9392505050565b7f54686520667275697420646f6573206e6f742065786973740000000000000000600082015250565b600061132d601883610d44565b9150611338826112f7565b602082019050919050565b6000602082019050818103600083015261135c81611320565b9050919050565b7f4e487b7100000000000000000000000000000000000000000000000000000000600052603260045260246000fd5b7f596f7520617265206e6f7420746865206f776e6572206f66207468697320667260008201527f7569740000000000000000000000000000000000000000000000000000000000602082015250565b60006113ee602383610d44565b91506113f982611392565b604082019050919050565b6000602082019050818103600083015261141d816113e1565b905091905056fea2646970667358221220a035fd9cda834c47456c3655d7dae80748f6ee1df9b497ed9c0fa51dc5e17a7464736f6c634300081c0033",
  "linkReferences": {},
  "deployedLinkReferences": {}
}