{
  "_format": "hh-sol-artifact-1",
  "contractName": "NewFruitMarketPlace",
  "sourceName": "contracts/NewFruitMarketPlace.sol",
  "abi": [
    {
      "anonymous": false,
      "inputs": [
        {
          "indexed": true,
          "internalType": "uint256",
          "name": "fruitId",
          "type": "uint256"
        },
        {
          "indexed": false,
          "internalType": "string",
          "name": "name",
          "type": "string"
        },
        {
          "indexed": false,
          "internalType": "uint256",
          "name": "price",
          "type": "uint256"
        }
      ],
      "name": "FruitAdded",
      "type": "event"
    },
    {
      "anonymous": false,
      "inputs": [
        {
          "indexed": true,
          "internalType": "uint256",
          "name": "fruitId",
          "type": "uint256"
        },
        {
          "indexed": false,
          "internalType": "uint256",
          "name": "price",
          "type": "uint256"
        }
      ],
      "name": "FruitForSale",
      "type": "event"
    },
    {
      "anonymous": false,
      "inputs": [
        {
          "indexed": true,
          "internalType": "uint256",
          "name": "fruitId",
          "type": "uint256"
        },
        {
          "indexed": true,
          "internalType": "address",
          "name": "seller",
          "type": "address"
        },
        {
          "indexed": true,
          "internalType": "address",
          "name": "buyer",
          "type": "address"
        },
        {
          "indexed": false,
          "internalType": "uint256",
          "name": "price",
          "type": "uint256"
        }
      ],
      "name": "FruitSold",
      "type": "event"
    },
    {
      "anonymous": false,
      "inputs": [
        {
          "indexed": true,
          "internalType": "address",
          "name": "user",
          "type": "address"
        }
      ],
      "name": "Registration",
      "type": "event"
    },
    {
      "anonymous": false,
      "inputs": [
        {
          "indexed": true,
          "internalType": "address",
          "name": "seller",
          "type": "address"
        },
        {
          "indexed": true,
          "internalType": "address",
          "name": "buyer",
          "type": "address"
        },
        {
          "indexed": false,
          "internalType": "uint8",
          "name": "rating",
          "type": "uint8"
        },
        {
          "indexed": false,
          "internalType": "string",
          "name": "comment",
          "type": "string"
        }
      ],
      "name": "SellerRated",
      "type": "event"
    },
    {
      "inputs": [
        {
          "internalType": "string",
          "name": "_name",
          "type": "string"
        },
        {
          "internalType": "uint256",
          "name": "_price",
          "type": "uint256"
        }
      ],
      "name": "addFruit",
      "outputs": [],
      "stateMutability": "nonpayable",
      "type": "function"
    },
    {
      "inputs": [],
      "name": "createUser",
      "outputs": [],
      "stateMutability": "nonpayable",
      "type": "function"
    },
    {
      "inputs": [
        {
          "internalType": "uint256",
          "name": "_fruitId",
          "type": "uint256"
        }
      ],
      "name": "getFruitForSale",
      "outputs": [
        {
          "components": [
            {
              "internalType": "uint256",
              "name": "id",
              "type": "uint256"
            },
            {
              "internalType": "string",
              "name": "name",
              "type": "string"
            },
            {
              "internalType": "uint256",
              "name": "price",
              "type": "uint256"
            },
            {
              "internalType": "address",
              "name": "owner",
              "type": "address"
            },
            {
              "internalType": "bool",
              "name": "forSale",
              "type": "bool"
            }
          ],
          "internalType": "struct NewFruitMarketPlace.Fruit",
          "name": "",
          "type": "tuple"
        }
      ],
      "stateMutability": "view",
      "type": "function"
    },
    {
      "inputs": [],
      "name": "getFruitsForSale",
      "outputs": [
        {
          "internalType": "uint256[]",
          "name": "",
          "type": "uint256[]"
        }
      ],
      "stateMutability": "view",
      "type": "function"
    },
    {
      "inputs": [
        {
          "internalType": "uint256",
          "name": "_fruitId",
          "type": "uint256"
        }
      ],
      "name": "getUserFruit",
      "outputs": [
        {
          "components": [
            {
              "internalType": "uint256",
              "name": "id",
              "type": "uint256"
            },
            {
              "internalType": "string",
              "name": "name",
              "type": "string"
            },
            {
              "internalType": "uint256",
              "name": "price",
              "type": "uint256"
            },
            {
              "internalType": "address",
              "name": "owner",
              "type": "address"
            },
            {
              "internalType": "bool",
              "name": "forSale",
              "type": "bool"
            }
          ],
          "internalType": "struct NewFruitMarketPlace.Fruit",
          "name": "",
          "type": "tuple"
        }
      ],
      "stateMutability": "view",
      "type": "function"
    },
    {
      "inputs": [],
      "name": "getUserFruits",
      "outputs": [
        {
          "internalType": "uint256[]",
          "name": "",
          "type": "uint256[]"
        }
      ],
      "stateMutability": "view",
      "type": "function"
    },
    {
      "inputs": [],
      "name": "isRegistered",
      "outputs": [
        {
          "internalType": "bool",
          "name": "",
          "type": "bool"
        }
      ],
      "stateMutability": "view",
      "type": "function"
    },
    {
      "inputs": [
        {
          "internalType": "uint256",
          "name": "_fruitId",
          "type": "uint256"
        },
        {
          "internalType": "uint256",
          "name": "_price",
          "type": "uint256"
        }
      ],
      "name": "sellFruit",
      "outputs": [],
      "stateMutability": "nonpayable",
      "type": "function"
    }
  ],
  "bytecode": "0x60806040526000600155348015601457600080fd5b50611b78806100246000396000f3fe608060405234801561001057600080fd5b50600436106100885760003560e01c806356fe7c0b1161005b57806356fe7c0b146100ef5780636d0811b51461010d5780638580a83414610129578063a782b7c91461015957610088565b80631b3f48e71461008d57806322366844146100a957806325ad91ce146100c75780634427e150146100d1575b600080fd5b6100a760048036038101906100a291906112fe565b610189565b005b6100b16104a3565b6040516100be9190611375565b60405180910390f35b6100cf6104fa565b005b6100d96105ef565b6040516100e6919061144e565b60405180910390f35b6100f76107bb565b604051610104919061144e565b60405180910390f35b61012760048036038101906101229190611470565b6108b3565b005b610143600480360381019061013e91906114b0565b610a4a565b6040516101509190611622565b60405180910390f35b610173600480360381019061016e91906114b0565b610cfe565b6040516101809190611622565b60405180910390f35b6101916104a3565b6040518060600160405280603e8152602001611b05603e9139906101eb576040517f08c379a00000000000000000000000000000000000000000000000000000000081526004016101e2919061168e565b60405180910390fd5b506002826040516101fc91906116ec565b908152602001604051809103902060009054906101000a900460ff16156040518060400160405280601581526020017f467275697420616c7265616479206578697374732e000000000000000000000081525090610290576040517f08c379a0000000000000000000000000000000000000000000000000000000008152600401610287919061168e565b60405180910390fd5b506000600160008154809291906102a690611732565b91905055905060016002846040516102be91906116ec565b908152602001604051809103902060006101000a81548160ff021916908315150217905550600080549050600560008381526020019081526020016000208190555060006040518060a001604052808381526020018581526020018481526020013373ffffffffffffffffffffffffffffffffffffffff16815260200160001515815250908060018154018082558091505060019003906000526020600020906004020160009091909190915060008201518160000155602082015181600101908161038a9190611986565b506040820151816002015560608201518160030160006101000a81548173ffffffffffffffffffffffffffffffffffffffff021916908373ffffffffffffffffffffffffffffffffffffffff16021790555060808201518160030160146101000a81548160ff0219169083151502179055505050600460003373ffffffffffffffffffffffffffffffffffffffff1673ffffffffffffffffffffffffffffffffffffffff168152602001908152602001600020819080600181540180825580915050600190039060005260206000200160009091909190915055807f739ce2e7a39c6bcaa33b49cfa6353b263c41f3722f21cd92b34d72f6c5b2d3098484604051610496929190611a67565b60405180910390a2505050565b6000600360003373ffffffffffffffffffffffffffffffffffffffff1673ffffffffffffffffffffffffffffffffffffffff16815260200190815260200160002060000160009054906101000a900460ff16905090565b600360003373ffffffffffffffffffffffffffffffffffffffff1673ffffffffffffffffffffffffffffffffffffffff16815260200190815260200160002060000160009054906101000a900460ff166105ed576001600360003373ffffffffffffffffffffffffffffffffffffffff1673ffffffffffffffffffffffffffffffffffffffff16815260200190815260200160002060000160006101000a81548160ff0219169083151502179055503373ffffffffffffffffffffffffffffffffffffffff167f478f5152d8fc568db3f8de9fb402fd9d98a1a7541ecfe434e59cf574fbfc552460405160405180910390a25b565b60606105f96104a3565b6040518060600160405280603e8152602001611b05603e913990610653576040517f08c379a000000000000000000000000000000000000000000000000000000000815260040161064a919061168e565b60405180910390fd5b506000805b6000805490508110156106b9576000818154811061067957610678611a97565b5b906000526020600020906004020160030160149054906101000a900460ff16156106ac5781806106a890611732565b9250505b8080600101915050610658565b5060008167ffffffffffffffff8111156106d6576106d561119d565b5b6040519080825280602002602001820160405280156107045781602001602082028036833780820191505090505b5090506000805b6000805490508110156107b1576000818154811061072c5761072b611a97565b5b906000526020600020906004020160030160149054906101000a900460ff16156107a4576000818154811061076457610763611a97565b5b90600052602060002090600402016000015483838151811061078957610788611a97565b5b60200260200101818152505081806107a090611732565b9250505b808060010191505061070b565b5081935050505090565b60606107c56104a3565b6040518060600160405280603e8152602001611b05603e91399061081f576040517f08c379a0000000000000000000000000000000000000000000000000000000008152600401610816919061168e565b60405180910390fd5b50600460003373ffffffffffffffffffffffffffffffffffffffff1673ffffffffffffffffffffffffffffffffffffffff1681526020019081526020016000208054806020026020016040519081016040528092919081815260200182805480156108a957602002820191906000526020600020905b815481526020019060010190808311610895575b5050505050905090565b6108bc82610fcf565b6040518060400160405280601881526020017f54686520667275697420646f6573206e6f74206578697374000000000000000081525090610933576040517f08c379a000000000000000000000000000000000000000000000000000000000815260040161092a919061168e565b60405180910390fd5b50600061093f8361104a565b905061094a81611067565b604051806060016040528060238152602001611ae260239139906109a4576040517f08c379a000000000000000000000000000000000000000000000000000000000815260040161099b919061168e565b60405180910390fd5b506001600082815481106109bb576109ba611a97565b5b906000526020600020906004020160030160146101000a81548160ff02191690831515021790555081600082815481106109f8576109f7611a97565b5b906000526020600020906004020160020181905550827f12837b86d796be7cebf41bb928648910d81a15528850a24e043963cb4e3aae4283604051610a3d9190611ac6565b60405180910390a2505050565b610a52611127565b610a5a6104a3565b6040518060600160405280603e8152602001611b05603e913990610ab4576040517f08c379a0000000000000000000000000000000000000000000000000000000008152600401610aab919061168e565b60405180910390fd5b50610abe82610fcf565b6040518060400160405280601881526020017f54686520667275697420646f6573206e6f74206578697374000000000000000081525090610b35576040517f08c379a0000000000000000000000000000000000000000000000000000000008152600401610b2c919061168e565b60405180910390fd5b50600060056000848152602001908152602001600020549050610b5781611067565b604051806060016040528060238152602001611ae26023913990610bb1576040517f08c379a0000000000000000000000000000000000000000000000000000000008152600401610ba8919061168e565b60405180910390fd5b5060008181548110610bc657610bc5611a97565b5b90600052602060002090600402016040518060a001604052908160008201548152602001600182018054610bf9906117a9565b80601f0160208091040260200160405190810160405280929190818152602001828054610c25906117a9565b8015610c725780601f10610c4757610100808354040283529160200191610c72565b820191906000526020600020905b815481529060010190602001808311610c5557829003601f168201915b50505050508152602001600282015481526020016003820160009054906101000a900473ffffffffffffffffffffffffffffffffffffffff1673ffffffffffffffffffffffffffffffffffffffff1673ffffffffffffffffffffffffffffffffffffffff1681526020016003820160149054906101000a900460ff161515151581525050915050919050565b610d06611127565b610d0e6104a3565b6040518060600160405280603e8152602001611b05603e913990610d68576040517f08c379a0000000000000000000000000000000000000000000000000000000008152600401610d5f919061168e565b60405180910390fd5b50610d7282610fcf565b6040518060400160405280601881526020017f54686520667275697420646f6573206e6f74206578697374000000000000000081525090610de9576040517f08c379a0000000000000000000000000000000000000000000000000000000008152600401610de0919061168e565b60405180910390fd5b50600060056000848152602001908152602001600020549050610e0b816110e4565b6040518060400160405280601b81526020017f54686973206672756974206973206e6f7420666f722073616c6521000000000081525090610e82576040517f08c379a0000000000000000000000000000000000000000000000000000000008152600401610e79919061168e565b60405180910390fd5b5060008181548110610e9757610e96611a97565b5b90600052602060002090600402016040518060a001604052908160008201548152602001600182018054610eca906117a9565b80601f0160208091040260200160405190810160405280929190818152602001828054610ef6906117a9565b8015610f435780601f10610f1857610100808354040283529160200191610f43565b820191906000526020600020905b815481529060010190602001808311610f2657829003601f168201915b50505050508152602001600282015481526020016003820160009054906101000a900473ffffffffffffffffffffffffffffffffffffffff1673ffffffffffffffffffffffffffffffffffffffff1673ffffffffffffffffffffffffffffffffffffffff1681526020016003820160149054906101000a900460ff161515151581525050915050919050565b600080805490506005600084815260200190815260200160002054101561104057600060056000848152602001908152602001600020549050826000828154811061101d5761101c611a97565b5b9060005260206000209060040201600001540361103e576001915050611045565b505b600090505b919050565b600060056000838152602001908152602001600020549050919050565b60003373ffffffffffffffffffffffffffffffffffffffff166000838154811061109457611093611a97565b5b906000526020600020906004020160030160009054906101000a900473ffffffffffffffffffffffffffffffffffffffff1673ffffffffffffffffffffffffffffffffffffffff16149050919050565b600060011515600083815481106110fe576110fd611a97565b5b906000526020600020906004020160030160149054906101000a900460ff161515149050919050565b6040518060a00160405280600081526020016060815260200160008152602001600073ffffffffffffffffffffffffffffffffffffffff1681526020016000151581525090565b6000604051905090565b600080fd5b600080fd5b600080fd5b600080fd5b6000601f19601f8301169050919050565b7f4e487b7100000000000000000000000000000000000000000000000000000000600052604160045260246000fd5b6111d58261118c565b810181811067ffffffffffffffff821117156111f4576111f361119d565b5b80604052505050565b600061120761116e565b905061121382826111cc565b919050565b600067ffffffffffffffff8211156112335761123261119d565b5b61123c8261118c565b9050602081019050919050565b82818337600083830152505050565b600061126b61126684611218565b6111fd565b90508281526020810184848401111561128757611286611187565b5b611292848285611249565b509392505050565b600082601f8301126112af576112ae611182565b5b81356112bf848260208601611258565b91505092915050565b6000819050919050565b6112db816112c8565b81146112e657600080fd5b50565b6000813590506112f8816112d2565b92915050565b6000806040838503121561131557611314611178565b5b600083013567ffffffffffffffff8111156113335761133261117d565b5b61133f8582860161129a565b9250506020611350858286016112e9565b9150509250929050565b60008115159050919050565b61136f8161135a565b82525050565b600060208201905061138a6000830184611366565b92915050565b600081519050919050565b600082825260208201905092915050565b6000819050602082019050919050565b6113c5816112c8565b82525050565b60006113d783836113bc565b60208301905092915050565b6000602082019050919050565b60006113fb82611390565b611405818561139b565b9350611410836113ac565b8060005b8381101561144157815161142888826113cb565b9750611433836113e3565b925050600181019050611414565b5085935050505092915050565b6000602082019050818103600083015261146881846113f0565b905092915050565b6000806040838503121561148757611486611178565b5b6000611495858286016112e9565b92505060206114a6858286016112e9565b9150509250929050565b6000602082840312156114c6576114c5611178565b5b60006114d4848285016112e9565b91505092915050565b600081519050919050565b600082825260208201905092915050565b60005b838110156115175780820151818401526020810190506114fc565b60008484015250505050565b600061152e826114dd565b61153881856114e8565b93506115488185602086016114f9565b6115518161118c565b840191505092915050565b600073ffffffffffffffffffffffffffffffffffffffff82169050919050565b60006115878261155c565b9050919050565b6115978161157c565b82525050565b6115a68161135a565b82525050565b600060a0830160008301516115c460008601826113bc565b50602083015184820360208601526115dc8282611523565b91505060408301516115f160408601826113bc565b506060830151611604606086018261158e565b506080830151611617608086018261159d565b508091505092915050565b6000602082019050818103600083015261163c81846115ac565b905092915050565b600082825260208201905092915050565b6000611660826114dd565b61166a8185611644565b935061167a8185602086016114f9565b6116838161118c565b840191505092915050565b600060208201905081810360008301526116a88184611655565b905092915050565b600081905092915050565b60006116c6826114dd565b6116d081856116b0565b93506116e08185602086016114f9565b80840191505092915050565b60006116f882846116bb565b915081905092915050565b7f4e487b7100000000000000000000000000000000000000000000000000000000600052601160045260246000fd5b600061173d826112c8565b91507fffffffffffffffffffffffffffffffffffffffffffffffffffffffffffffffff820361176f5761176e611703565b5b600182019050919050565b7f4e487b7100000000000000000000000000000000000000000000000000000000600052602260045260246000fd5b600060028204905060018216806117c157607f821691505b6020821081036117d4576117d361177a565b5b50919050565b60008190508160005260206000209050919050565b60006020601f8301049050919050565b600082821b905092915050565b60006008830261183c7fffffffffffffffffffffffffffffffffffffffffffffffffffffffffffffffff826117ff565b61184686836117ff565b95508019841693508086168417925050509392505050565b6000819050919050565b600061188361187e611879846112c8565b61185e565b6112c8565b9050919050565b6000819050919050565b61189d83611868565b6118b16118a98261188a565b84845461180c565b825550505050565b600090565b6118c66118b9565b6118d1818484611894565b505050565b5b818110156118f5576118ea6000826118be565b6001810190506118d7565b5050565b601f82111561193a5761190b816117da565b611914846117ef565b81016020851015611923578190505b61193761192f856117ef565b8301826118d6565b50505b505050565b600082821c905092915050565b600061195d6000198460080261193f565b1980831691505092915050565b6000611976838361194c565b9150826002028217905092915050565b61198f826114dd565b67ffffffffffffffff8111156119a8576119a761119d565b5b6119b282546117a9565b6119bd8282856118f9565b600060209050601f8311600181146119f057600084156119de578287015190505b6119e8858261196a565b865550611a50565b601f1984166119fe866117da565b60005b82811015611a2657848901518255600182019150602085019450602081019050611a01565b86831015611a435784890151611a3f601f89168261194c565b8355505b6001600288020188555050505b505050505050565b611a61816112c8565b82525050565b60006040820190508181036000830152611a818185611655565b9050611a906020830184611a58565b9392505050565b7f4e487b7100000000000000000000000000000000000000000000000000000000600052603260045260246000fd5b6000602082019050611adb6000830184611a58565b9291505056fe596f7520617265206e6f7420746865206f776e6572206f66207468697320667275697455736572206973206e6f7420726567697374657265642c20796f7520617265206e6f7420616c6c6f77656420746f20646f207468697320616374696f6e2ea264697066735822122017d7ede616d2d2f9bee2ccdd96893409408ca50f091ca7b607b3e080cc40254a64736f6c634300081c0033",
  "linkReferences": {},
  "deployedLinkReferences": {}
}