{
  "_format": "hh-sol-artifact-1",
  "contractName": "FruitMarketplace",
  "sourceName": "contracts/FruitMarketPlace.sol",
  "abi": [
    {
      "inputs": [],
      "stateMutability": "nonpayable",
      "type": "constructor"
    },
    {
      "anonymous": false,
      "inputs": [
        {
          "indexed": false,
          "internalType": "string",
          "name": "name",
          "type": "string"
        },
        {
          "indexed": false,
          "internalType": "uint256",
          "name": "price",
          "type": "uint256"
        },
        {
          "indexed": true,
          "internalType": "string",
          "name": "seller",
          "type": "string"
        }
      ],
      "name": "FruitAdded",
      "type": "event"
    },
    {
      "inputs": [
        {
          "internalType": "string",
          "name": "name",
          "type": "string"
        },
        {
          "internalType": "uint256",
          "name": "price",
          "type": "uint256"
        },
        {
          "internalType": "string",
          "name": "seller",
          "type": "string"
        }
      ],
      "name": "addFruit",
      "outputs": [],
      "stateMutability": "nonpayable",
      "type": "function"
    },
    {
      "inputs": [
        {
          "internalType": "uint256",
          "name": "",
          "type": "uint256"
        }
      ],
      "name": "fruits",
      "outputs": [
        {
          "internalType": "string",
          "name": "name",
          "type": "string"
        },
        {
          "internalType": "uint256",
          "name": "price",
          "type": "uint256"
        },
        {
          "internalType": "string",
          "name": "seller",
          "type": "string"
        }
      ],
      "stateMutability": "view",
      "type": "function"
    },
    {
      "inputs": [
        {
          "internalType": "uint256",
          "name": "index",
          "type": "uint256"
        }
      ],
      "name": "getFruit",
      "outputs": [
        {
          "internalType": "string",
          "name": "",
          "type": "string"
        },
        {
          "internalType": "uint256",
          "name": "",
          "type": "uint256"
        },
        {
          "internalType": "string",
          "name": "",
          "type": "string"
        }
      ],
      "stateMutability": "view",
      "type": "function"
    },
    {
      "inputs": [],
      "name": "getFruitsCount",
      "outputs": [
        {
          "internalType": "uint256",
          "name": "",
          "type": "uint256"
        }
      ],
      "stateMutability": "view",
      "type": "function"
    }
  ],
  "bytecode": "0x608060405234801561001057600080fd5b50600060405180606001604052806040518060400160405280600581526020017f4170706c650000000000000000000000000000000000000000000000000000008152508152602001671b9de674df07000081526020016040518060600160405280602a81526020016119fd602a9139815250908060018154018082558091505060019003906000526020600020906003020160009091909190915060008201518160000190816100c19190610aa4565b506020820151816001015560408201518160020190816100e19190610aa4565b505050600060405180606001604052806040518060400160405280600681526020017f42616e616e6100000000000000000000000000000000000000000000000000008152508152602001670dbd2fc137a3000081526020016040518060600160405280602a8152602001611955602a9139815250908060018154018082558091505060019003906000526020600020906003020160009091909190915060008201518160000190816101949190610aa4565b506020820151816001015560408201518160020190816101b49190610aa4565b505050600060405180606001604052806040518060400160405280600681526020017f4f72616e6765000000000000000000000000000000000000000000000000000081525081526020016711e7002a5041000081526020016040518060600160405280602a8152602001611a51602a9139815250908060018154018082558091505060019003906000526020600020906003020160009091909190915060008201518160000190816102679190610aa4565b506020820151816001015560408201518160020190816102879190610aa4565b505050600060405180606001604052806040518060400160405280600681526020017f4772617065730000000000000000000000000000000000000000000000000000815250815260200167228e41ceb2b9000081526020016040518060600160405280602a8152602001611a27602a91398152509080600181540180825580915050600190039060005260206000209060030201600090919091909150600082015181600001908161033a9190610aa4565b5060208201518160010155604082015181600201908161035a9190610aa4565b505050600060405180606001604052806040518060400160405280600581526020017f5065616368000000000000000000000000000000000000000000000000000000815250815260200167297e9d28866b000081526020016040518060600160405280602a8152602001611aa5602a91398152509080600181540180825580915050600190039060005260206000209060030201600090919091909150600082015181600001908161040d9190610aa4565b5060208201518160010155604082015181600201908161042d9190610aa4565b505050600060405180606001604052806040518060400160405280600981526020017f50696e656170706c65000000000000000000000000000000000000000000000081525081526020016731442230f8a3000081526020016040518060600160405280602a81526020016119d3602a9139815250908060018154018082558091505060019003906000526020600020906003020160009091909190915060008201518160000190816104e09190610aa4565b506020820151816001015560408201518160020190816105009190610aa4565b505050600060405180606001604052806040518060400160405280600581526020017f4d616e676f00000000000000000000000000000000000000000000000000000081525081526020016726b81237cb57000081526020016040518060600160405280602a8152602001611a7b602a9139815250908060018154018082558091505060019003906000526020600020906003020160009091909190915060008201518160000190816105b39190610aa4565b506020820151816001015560408201518160020190816105d39190610aa4565b505050600060405180606001604052806040518060400160405280600a81526020017f5374726177626572727900000000000000000000000000000000000000000000815250815260200167375f53dc2dcf000081526020016040518060600160405280602a815260200161197f602a9139815250908060018154018082558091505060019003906000526020600020906003020160009091909190915060008201518160000190816106869190610aa4565b506020820151816001015560408201518160020190816106a69190610aa4565b505050600060405180606001604052806040518060400160405280600981526020017f426c7565626572727900000000000000000000000000000000000000000000008152508152602001673e4faf360181000081526020016040518060600160405280602a815260200161192b602a9139815250908060018154018082558091505060019003906000526020600020906003020160009091909190915060008201518160000190816107599190610aa4565b506020820151816001015560408201518160020190816107799190610aa4565b505050600060405180606001604052806040518060400160405280600681526020017f4368657272790000000000000000000000000000000000000000000000000000815250815260200167480695809047000081526020016040518060600160405280602a81526020016119a9602a91398152509080600181540180825580915050600190039060005260206000209060030201600090919091909150600082015181600001908161082c9190610aa4565b5060208201518160010155604082015181600201908161084c9190610aa4565b505050610b76565b600081519050919050565b7f4e487b7100000000000000000000000000000000000000000000000000000000600052604160045260246000fd5b7f4e487b7100000000000000000000000000000000000000000000000000000000600052602260045260246000fd5b600060028204905060018216806108d557607f821691505b6020821081036108e8576108e761088e565b5b50919050565b60008190508160005260206000209050919050565b60006020601f8301049050919050565b600082821b905092915050565b6000600883026109507fffffffffffffffffffffffffffffffffffffffffffffffffffffffffffffffff82610913565b61095a8683610913565b95508019841693508086168417925050509392505050565b6000819050919050565b6000819050919050565b60006109a161099c61099784610972565b61097c565b610972565b9050919050565b6000819050919050565b6109bb83610986565b6109cf6109c7826109a8565b848454610920565b825550505050565b600090565b6109e46109d7565b6109ef8184846109b2565b505050565b5b81811015610a1357610a086000826109dc565b6001810190506109f5565b5050565b601f821115610a5857610a29816108ee565b610a3284610903565b81016020851015610a41578190505b610a55610a4d85610903565b8301826109f4565b50505b505050565b600082821c905092915050565b6000610a7b60001984600802610a5d565b1980831691505092915050565b6000610a948383610a6a565b9150826002028217905092915050565b610aad82610854565b67ffffffffffffffff811115610ac657610ac561085f565b5b610ad082546108bd565b610adb828285610a17565b600060209050601f831160018114610b0e5760008415610afc578287015190505b610b068582610a88565b865550610b6e565b601f198416610b1c866108ee565b60005b82811015610b4457848901518255600182019150602085019450602081019050610b1f565b86831015610b615784890151610b5d601f891682610a6a565b8355505b6001600288020188555050505b505050505050565b610da680610b856000396000f3fe608060405234801561001057600080fd5b506004361061004c5760003560e01c8063590ef8c51461005157806376ce7fe91461006d5780639a9be79c1461009f578063c4172162146100bd575b600080fd5b61006b600480360381019061006691906106f6565b6100ef565b005b61008760048036038101906100829190610781565b610248565b6040516100969392919061083c565b60405180910390f35b6100a7610410565b6040516100b49190610881565b60405180910390f35b6100d760048036038101906100d29190610781565b61041c565b6040516100e69392919061083c565b60405180910390f35b6000835111610133576040517f08c379a000000000000000000000000000000000000000000000000000000000815260040161012a906108e8565b60405180910390fd5b60008211610176576040517f08c379a000000000000000000000000000000000000000000000000000000000815260040161016d90610954565b60405180910390fd5b6000604051806060016040528085815260200184815260200183815250908060018154018082558091505060019003906000526020600020906003020160009091909190915060008201518160000190816101d19190610b80565b506020820151816001015560408201518160020190816101f19190610b80565b505050806040516102029190610c8e565b60405180910390207f6707d3a9fb837906f8122466a52a0982d8ce3729d952384572e7cd6f261a8daa848460405161023b929190610ca5565b60405180910390a2505050565b6060600060606000805490508410610295576040517f08c379a000000000000000000000000000000000000000000000000000000000815260040161028c90610d21565b60405180910390fd5b60008085815481106102aa576102a9610d41565b5b90600052602060002090600302016040518060600160405290816000820180546102d3906109a3565b80601f01602080910402602001604051908101604052809291908181526020018280546102ff906109a3565b801561034c5780601f106103215761010080835404028352916020019161034c565b820191906000526020600020905b81548152906001019060200180831161032f57829003601f168201915b505050505081526020016001820154815260200160028201805461036f906109a3565b80601f016020809104026020016040519081016040528092919081815260200182805461039b906109a3565b80156103e85780601f106103bd576101008083540402835291602001916103e8565b820191906000526020600020905b8154815290600101906020018083116103cb57829003601f168201915b5050505050815250509050806000015181602001518260400151935093509350509193909250565b60008080549050905090565b6000818154811061042c57600080fd5b906000526020600020906003020160009150905080600001805461044f906109a3565b80601f016020809104026020016040519081016040528092919081815260200182805461047b906109a3565b80156104c85780601f1061049d576101008083540402835291602001916104c8565b820191906000526020600020905b8154815290600101906020018083116104ab57829003601f168201915b5050505050908060010154908060020180546104e3906109a3565b80601f016020809104026020016040519081016040528092919081815260200182805461050f906109a3565b801561055c5780601f106105315761010080835404028352916020019161055c565b820191906000526020600020905b81548152906001019060200180831161053f57829003601f168201915b5050505050905083565b6000604051905090565b600080fd5b600080fd5b600080fd5b600080fd5b6000601f19601f8301169050919050565b7f4e487b7100000000000000000000000000000000000000000000000000000000600052604160045260246000fd5b6105cd82610584565b810181811067ffffffffffffffff821117156105ec576105eb610595565b5b80604052505050565b60006105ff610566565b905061060b82826105c4565b919050565b600067ffffffffffffffff82111561062b5761062a610595565b5b61063482610584565b9050602081019050919050565b82818337600083830152505050565b600061066361065e84610610565b6105f5565b90508281526020810184848401111561067f5761067e61057f565b5b61068a848285610641565b509392505050565b600082601f8301126106a7576106a661057a565b5b81356106b7848260208601610650565b91505092915050565b6000819050919050565b6106d3816106c0565b81146106de57600080fd5b50565b6000813590506106f0816106ca565b92915050565b60008060006060848603121561070f5761070e610570565b5b600084013567ffffffffffffffff81111561072d5761072c610575565b5b61073986828701610692565b935050602061074a868287016106e1565b925050604084013567ffffffffffffffff81111561076b5761076a610575565b5b61077786828701610692565b9150509250925092565b60006020828403121561079757610796610570565b5b60006107a5848285016106e1565b91505092915050565b600081519050919050565b600082825260208201905092915050565b60005b838110156107e85780820151818401526020810190506107cd565b60008484015250505050565b60006107ff826107ae565b61080981856107b9565b93506108198185602086016107ca565b61082281610584565b840191505092915050565b610836816106c0565b82525050565b6000606082019050818103600083015261085681866107f4565b9050610865602083018561082d565b818103604083015261087781846107f4565b9050949350505050565b6000602082019050610896600083018461082d565b92915050565b7f4672756974206e616d652073686f756c64206e6f7420626520656d7074790000600082015250565b60006108d2601e836107b9565b91506108dd8261089c565b602082019050919050565b60006020820190508181036000830152610901816108c5565b9050919050565b7f546865207072696365206d7573742062652067726561746572207468616e2030600082015250565b600061093e6020836107b9565b915061094982610908565b602082019050919050565b6000602082019050818103600083015261096d81610931565b9050919050565b7f4e487b7100000000000000000000000000000000000000000000000000000000600052602260045260246000fd5b600060028204905060018216806109bb57607f821691505b6020821081036109ce576109cd610974565b5b50919050565b60008190508160005260206000209050919050565b60006020601f8301049050919050565b600082821b905092915050565b600060088302610a367fffffffffffffffffffffffffffffffffffffffffffffffffffffffffffffffff826109f9565b610a4086836109f9565b95508019841693508086168417925050509392505050565b6000819050919050565b6000610a7d610a78610a73846106c0565b610a58565b6106c0565b9050919050565b6000819050919050565b610a9783610a62565b610aab610aa382610a84565b848454610a06565b825550505050565b600090565b610ac0610ab3565b610acb818484610a8e565b505050565b5b81811015610aef57610ae4600082610ab8565b600181019050610ad1565b5050565b601f821115610b3457610b05816109d4565b610b0e846109e9565b81016020851015610b1d578190505b610b31610b29856109e9565b830182610ad0565b50505b505050565b600082821c905092915050565b6000610b5760001984600802610b39565b1980831691505092915050565b6000610b708383610b46565b9150826002028217905092915050565b610b89826107ae565b67ffffffffffffffff811115610ba257610ba1610595565b5b610bac82546109a3565b610bb7828285610af3565b600060209050601f831160018114610bea5760008415610bd8578287015190505b610be28582610b64565b865550610c4a565b601f198416610bf8866109d4565b60005b82811015610c2057848901518255600182019150602085019450602081019050610bfb565b86831015610c3d5784890151610c39601f891682610b46565b8355505b6001600288020188555050505b505050505050565b600081905092915050565b6000610c68826107ae565b610c728185610c52565b9350610c828185602086016107ca565b80840191505092915050565b6000610c9a8284610c5d565b915081905092915050565b60006040820190508181036000830152610cbf81856107f4565b9050610cce602083018461082d565b9392505050565b7f467275697420696e6578697374616e7400000000000000000000000000000000600082015250565b6000610d0b6010836107b9565b9150610d1682610cd5565b602082019050919050565b60006020820190508181036000830152610d3a81610cfe565b9050919050565b7f4e487b7100000000000000000000000000000000000000000000000000000000600052603260045260246000fdfea26469706673582212200ca1b667bf20247f8aa3101b5cd742b8e878463b1d035875eafc0fc214d26fcd64736f6c634300081c0033307842396530633666333436454633383236413531356441334637333637353634343645354639443646307835664531413562363139413745344564363544344533466436323061386234626235423662463246307831433545396633624436383942396235653966464565356233623534323044376439346237443045307844466137323841383335466443426566633943333865314332453939393136333637363835453344307837333965396441316535394637366265436561313245344432334337393830364539374332666532307844333444626545663946376131433634443162383335356239336141664444344230633664353061307841623233433564373535386138453963374635623565313041663343313146354137446666443744307845344239353335423930416537466436433864313235623246643235343436343142326343316532307846356235394232323346353765324330423838414338624434386145363245323132396433383835307830453946353034323966386639376546336661373466316339423536344565353563416634333631",
  "linkReferences": {},
  "deployedLinkReferences": {}
}