{
  "_format": "hh-sol-artifact-1",
  "contractName": "FruitMarketplace",
  "sourceName": "contracts/FruitMarketPlace.sol",
  "abi": [
    {
      "inputs": [],
      "stateMutability": "nonpayable",
      "type": "constructor"
    },
    {
      "anonymous": false,
      "inputs": [
        {
          "indexed": false,
          "internalType": "string",
          "name": "name",
          "type": "string"
        },
        {
          "indexed": false,
          "internalType": "uint256",
          "name": "price",
          "type": "uint256"
        },
        {
          "indexed": true,
          "internalType": "address",
          "name": "owner",
          "type": "address"
        }
      ],
      "name": "FruitAdded",
      "type": "event"
    },
    {
      "inputs": [
        {
          "internalType": "string",
          "name": "name",
          "type": "string"
        },
        {
          "internalType": "string",
          "name": "typeOfFruit",
          "type": "string"
        },
        {
          "internalType": "uint256",
          "name": "price",
          "type": "uint256"
        },
        {
          "internalType": "string",
          "name": "seller",
          "type": "string"
        },
        {
          "internalType": "string",
          "name": "icon",
          "type": "string"
        }
      ],
      "name": "addFruit",
      "outputs": [],
      "stateMutability": "nonpayable",
      "type": "function"
    },
    {
      "inputs": [
        {
          "internalType": "uint256",
          "name": "",
          "type": "uint256"
        }
      ],
      "name": "fruits",
      "outputs": [
        {
          "internalType": "string",
          "name": "name",
          "type": "string"
        },
        {
          "internalType": "string",
          "name": "typeOfFruit",
          "type": "string"
        },
        {
          "internalType": "uint256",
          "name": "price",
          "type": "uint256"
        },
        {
          "internalType": "string",
          "name": "seller",
          "type": "string"
        },
        {
          "internalType": "string",
          "name": "icon",
          "type": "string"
        }
      ],
      "stateMutability": "view",
      "type": "function"
    },
    {
      "inputs": [
        {
          "internalType": "uint256",
          "name": "index",
          "type": "uint256"
        }
      ],
      "name": "getFruit",
      "outputs": [
        {
          "internalType": "string",
          "name": "",
          "type": "string"
        },
        {
          "internalType": "string",
          "name": "",
          "type": "string"
        },
        {
          "internalType": "uint256",
          "name": "",
          "type": "uint256"
        },
        {
          "internalType": "string",
          "name": "",
          "type": "string"
        }
      ],
      "stateMutability": "view",
      "type": "function"
    },
    {
      "inputs": [],
      "name": "getFruits",
      "outputs": [
        {
          "components": [
            {
              "internalType": "string",
              "name": "name",
              "type": "string"
            },
            {
              "internalType": "string",
              "name": "typeOfFruit",
              "type": "string"
            },
            {
              "internalType": "uint256",
              "name": "price",
              "type": "uint256"
            },
            {
              "internalType": "string",
              "name": "seller",
              "type": "string"
            },
            {
              "internalType": "string",
              "name": "icon",
              "type": "string"
            }
          ],
          "internalType": "struct FruitMarketplace.Fruit[]",
          "name": "",
          "type": "tuple[]"
        }
      ],
      "stateMutability": "view",
      "type": "function"
    },
    {
      "inputs": [],
      "name": "getFruitsCount",
      "outputs": [
        {
          "internalType": "uint256",
          "name": "",
          "type": "uint256"
        }
      ],
      "stateMutability": "view",
      "type": "function"
    }
  ],
  "bytecode": "0x608060405234801561001057600080fd5b5060006040518060a001604052806040518060400160405280600581526020017f4170706c6500000000000000000000000000000000000000000000000000000081525081526020016040518060400160405280600581526020017f46727569740000000000000000000000000000000000000000000000000000008152508152602001671b9de674df07000081526020016040518060600160405280602a815260200161280a602a913981526020016040518060400160405280600981526020017f49636f6e4170706c6500000000000000000000000000000000000000000000008152508152509080600181540180825580915050600190039060005260206000209060050201600090919091909150600082015181600001908161013791906110f8565b50602082015181600101908161014d91906110f8565b5060408201518160020155606082015181600301908161016d91906110f8565b50608082015181600401908161018391906110f8565b50505060006040518060a001604052806040518060400160405280600681526020017f42616e616e61000000000000000000000000000000000000000000000000000081525081526020016040518060400160405280600581526020017f46727569740000000000000000000000000000000000000000000000000000008152508152602001670dbd2fc137a3000081526020016040518060600160405280602a8152602001612762602a913981526020016040518060400160405280600981526020017f49636f6e4170706c650000000000000000000000000000000000000000000000815250815250908060018154018082558091505060019003906000526020600020906005020160009091909190915060008201518160000190816102ac91906110f8565b5060208201518160010190816102c291906110f8565b506040820151816002015560608201518160030190816102e291906110f8565b5060808201518160040190816102f891906110f8565b50505060006040518060a001604052806040518060400160405280600681526020017f4f72616e6765000000000000000000000000000000000000000000000000000081525081526020016040518060400160405280600581526020017f467275697400000000000000000000000000000000000000000000000000000081525081526020016711e7002a5041000081526020016040518060600160405280602a815260200161285e602a913981526020016040518060400160405280600981526020017f49636f6e4c656d6f6e00000000000000000000000000000000000000000000008152508152509080600181540180825580915050600190039060005260206000209060050201600090919091909150600082015181600001908161042191906110f8565b50602082015181600101908161043791906110f8565b5060408201518160020155606082015181600301908161045791906110f8565b50608082015181600401908161046d91906110f8565b50505060006040518060a001604052806040518060400160405280600681526020017f477261706573000000000000000000000000000000000000000000000000000081525081526020016040518060400160405280600581526020017f4672756974000000000000000000000000000000000000000000000000000000815250815260200167228e41ceb2b9000081526020016040518060600160405280602a8152602001612834602a913981526020016040518060400160405280600981526020017f49636f6e4c656d6f6e00000000000000000000000000000000000000000000008152508152509080600181540180825580915050600190039060005260206000209060050201600090919091909150600082015181600001908161059691906110f8565b5060208201518160010190816105ac91906110f8565b506040820151816002015560608201518160030190816105cc91906110f8565b5060808201518160040190816105e291906110f8565b50505060006040518060a001604052806040518060400160405280600581526020017f506561636800000000000000000000000000000000000000000000000000000081525081526020016040518060400160405280600581526020017f4672756974000000000000000000000000000000000000000000000000000000815250815260200167297e9d28866b000081526020016040518060600160405280602a81526020016128b2602a913981526020016040518060400160405280600981526020017f49636f6e4c656d6f6e00000000000000000000000000000000000000000000008152508152509080600181540180825580915050600190039060005260206000209060050201600090919091909150600082015181600001908161070b91906110f8565b50602082015181600101908161072191906110f8565b5060408201518160020155606082015181600301908161074191906110f8565b50608082015181600401908161075791906110f8565b50505060006040518060a001604052806040518060400160405280600981526020017f50696e656170706c65000000000000000000000000000000000000000000000081525081526020016040518060400160405280600581526020017f467275697400000000000000000000000000000000000000000000000000000081525081526020016730927f74c9de000081526020016040518060600160405280602a81526020016127e0602a913981526020016040518060400160405280600981526020017f49636f6e4c656d6f6e00000000000000000000000000000000000000000000008152508152509080600181540180825580915050600190039060005260206000209060050201600090919091909150600082015181600001908161088091906110f8565b50602082015181600101908161089691906110f8565b506040820151816002015560608201518160030190816108b691906110f8565b5060808201518160040190816108cc91906110f8565b50505060006040518060a001604052806040518060400160405280600581526020017f4d616e676f00000000000000000000000000000000000000000000000000000081525081526020016040518060400160405280600581526020017f467275697400000000000000000000000000000000000000000000000000000081525081526020016726b81237cb57000081526020016040518060600160405280602a8152602001612888602a913981526020016040518060400160405280600981526020017f49636f6e4c656d6f6e0000000000000000000000000000000000000000000000815250815250908060018154018082558091505060019003906000526020600020906005020160009091909190915060008201518160000190816109f591906110f8565b506020820151816001019081610a0b91906110f8565b50604082015181600201556060820151816003019081610a2b91906110f8565b506080820151816004019081610a4191906110f8565b50505060006040518060a001604052806040518060400160405280600a81526020017f537472617762657272790000000000000000000000000000000000000000000081525081526020016040518060400160405280600581526020017f4672756974000000000000000000000000000000000000000000000000000000815250815260200167375f53dc2dcf000081526020016040518060600160405280602a815260200161278c602a913981526020016040518060400160405280600981526020017f49636f6e4c656d6f6e000000000000000000000000000000000000000000000081525081525090806001815401808255809150506001900390600052602060002090600502016000909190919091506000820151816000019081610b6a91906110f8565b506020820151816001019081610b8091906110f8565b50604082015181600201556060820151816003019081610ba091906110f8565b506080820151816004019081610bb691906110f8565b50505060006040518060a001604052806040518060400160405280600981526020017f426c75656265727279000000000000000000000000000000000000000000000081525081526020016040518060400160405280600581526020017f46727569740000000000000000000000000000000000000000000000000000008152508152602001673e4faf360181000081526020016040518060600160405280602a8152602001612738602a913981526020016040518060400160405280600981526020017f49636f6e4170706c65000000000000000000000000000000000000000000000081525081525090806001815401808255809150506001900390600052602060002090600502016000909190919091506000820151816000019081610cdf91906110f8565b506020820151816001019081610cf591906110f8565b50604082015181600201556060820151816003019081610d1591906110f8565b506080820151816004019081610d2b91906110f8565b50505060006040518060a001604052806040518060400160405280600681526020017f436865727279000000000000000000000000000000000000000000000000000081525081526020016040518060400160405280600581526020017f4672756974000000000000000000000000000000000000000000000000000000815250815260200167480695809047000081526020016040518060600160405280602a81526020016127b6602a913981526020016040518060400160405280600981526020017f49636f6e4170706c65000000000000000000000000000000000000000000000081525081525090806001815401808255809150506001900390600052602060002090600502016000909190919091506000820151816000019081610e5491906110f8565b506020820151816001019081610e6a91906110f8565b50604082015181600201556060820151816003019081610e8a91906110f8565b506080820151816004019081610ea091906110f8565b5050506111ca565b600081519050919050565b7f4e487b7100000000000000000000000000000000000000000000000000000000600052604160045260246000fd5b7f4e487b7100000000000000000000000000000000000000000000000000000000600052602260045260246000fd5b60006002820490506001821680610f2957607f821691505b602082108103610f3c57610f3b610ee2565b5b50919050565b60008190508160005260206000209050919050565b60006020601f8301049050919050565b600082821b905092915050565b600060088302610fa47fffffffffffffffffffffffffffffffffffffffffffffffffffffffffffffffff82610f67565b610fae8683610f67565b95508019841693508086168417925050509392505050565b6000819050919050565b6000819050919050565b6000610ff5610ff0610feb84610fc6565b610fd0565b610fc6565b9050919050565b6000819050919050565b61100f83610fda565b61102361101b82610ffc565b848454610f74565b825550505050565b600090565b61103861102b565b611043818484611006565b505050565b5b818110156110675761105c600082611030565b600181019050611049565b5050565b601f8211156110ac5761107d81610f42565b61108684610f57565b81016020851015611095578190505b6110a96110a185610f57565b830182611048565b50505b505050565b600082821c905092915050565b60006110cf600019846008026110b1565b1980831691505092915050565b60006110e883836110be565b9150826002028217905092915050565b61110182610ea8565b67ffffffffffffffff81111561111a57611119610eb3565b5b6111248254610f11565b61112f82828561106b565b600060209050601f8311600181146111625760008415611150578287015190505b61115a85826110dc565b8655506111c2565b601f19841661117086610f42565b60005b8281101561119857848901518255600182019150602085019450602081019050611173565b868310156111b557848901516111b1601f8916826110be565b8355505b6001600288020188555050505b505050505050565b61155f806111d96000396000f3fe608060405234801561001057600080fd5b50600436106100575760003560e01c806376ce7fe91461005c5780639a9be79c1461008f578063c4172162146100ad578063cf34e1d6146100e1578063e6958cf7146100fd575b600080fd5b61007660048036038101906100719190610b10565b61011b565b6040516100869493929190610bdc565b60405180910390f35b61009761040f565b6040516100a49190610c36565b60405180910390f35b6100c760048036038101906100c29190610b10565b61041b565b6040516100d8959493929190610c51565b60405180910390f35b6100fb60048036038101906100f69190610df5565b610681565b005b610105610815565b6040516101129190611086565b60405180910390f35b606080600060606000805490508510610169576040517f08c379a0000000000000000000000000000000000000000000000000000000008152600401610160906110f4565b60405180910390fd5b600080868154811061017e5761017d611114565b5b90600052602060002090600502016040518060a00160405290816000820180546101a790611172565b80601f01602080910402602001604051908101604052809291908181526020018280546101d390611172565b80156102205780601f106101f557610100808354040283529160200191610220565b820191906000526020600020905b81548152906001019060200180831161020357829003601f168201915b5050505050815260200160018201805461023990611172565b80601f016020809104026020016040519081016040528092919081815260200182805461026590611172565b80156102b25780601f10610287576101008083540402835291602001916102b2565b820191906000526020600020905b81548152906001019060200180831161029557829003601f168201915b50505050508152602001600282015481526020016003820180546102d590611172565b80601f016020809104026020016040519081016040528092919081815260200182805461030190611172565b801561034e5780601f106103235761010080835404028352916020019161034e565b820191906000526020600020905b81548152906001019060200180831161033157829003601f168201915b5050505050815260200160048201805461036790611172565b80601f016020809104026020016040519081016040528092919081815260200182805461039390611172565b80156103e05780601f106103b5576101008083540402835291602001916103e0565b820191906000526020600020905b8154815290600101906020018083116103c357829003601f168201915b505050505081525050905080600001518160200151826040015183606001519450945094509450509193509193565b60008080549050905090565b6000818154811061042b57600080fd5b906000526020600020906005020160009150905080600001805461044e90611172565b80601f016020809104026020016040519081016040528092919081815260200182805461047a90611172565b80156104c75780601f1061049c576101008083540402835291602001916104c7565b820191906000526020600020905b8154815290600101906020018083116104aa57829003601f168201915b5050505050908060010180546104dc90611172565b80601f016020809104026020016040519081016040528092919081815260200182805461050890611172565b80156105555780601f1061052a57610100808354040283529160200191610555565b820191906000526020600020905b81548152906001019060200180831161053857829003601f168201915b50505050509080600201549080600301805461057090611172565b80601f016020809104026020016040519081016040528092919081815260200182805461059c90611172565b80156105e95780601f106105be576101008083540402835291602001916105e9565b820191906000526020600020905b8154815290600101906020018083116105cc57829003601f168201915b5050505050908060040180546105fe90611172565b80601f016020809104026020016040519081016040528092919081815260200182805461062a90611172565b80156106775780601f1061064c57610100808354040283529160200191610677565b820191906000526020600020905b81548152906001019060200180831161065a57829003601f168201915b5050505050905085565b60008551116106c5576040517f08c379a00000000000000000000000000000000000000000000000000000000081526004016106bc906111ef565b60405180910390fd5b60008311610708576040517f08c379a00000000000000000000000000000000000000000000000000000000081526004016106ff9061125b565b60405180910390fd5b60006040518060a00160405280878152602001868152602001858152602001848152602001838152509080600181540180825580915050600190039060005260206000209060050201600090919091909150600082015181600001908161076f9190611427565b5060208201518160010190816107859190611427565b506040820151816002015560608201518160030190816107a59190611427565b5060808201518160040190816107bb9190611427565b5050503373ffffffffffffffffffffffffffffffffffffffff167f343ea0f43346c1e3c2fadd853cce952f53d43f91b20fdfaaf1f572ab650dad3086856040516108069291906114f9565b60405180910390a25050505050565b60606000805480602002602001604051908101604052809291908181526020016000905b82821015610abd57838290600052602060002090600502016040518060a001604052908160008201805461086c90611172565b80601f016020809104026020016040519081016040528092919081815260200182805461089890611172565b80156108e55780601f106108ba576101008083540402835291602001916108e5565b820191906000526020600020905b8154815290600101906020018083116108c857829003601f168201915b505050505081526020016001820180546108fe90611172565b80601f016020809104026020016040519081016040528092919081815260200182805461092a90611172565b80156109775780601f1061094c57610100808354040283529160200191610977565b820191906000526020600020905b81548152906001019060200180831161095a57829003601f168201915b505050505081526020016002820154815260200160038201805461099a90611172565b80601f01602080910402602001604051908101604052809291908181526020018280546109c690611172565b8015610a135780601f106109e857610100808354040283529160200191610a13565b820191906000526020600020905b8154815290600101906020018083116109f657829003601f168201915b50505050508152602001600482018054610a2c90611172565b80601f0160208091040260200160405190810160405280929190818152602001828054610a5890611172565b8015610aa55780601f10610a7a57610100808354040283529160200191610aa5565b820191906000526020600020905b815481529060010190602001808311610a8857829003601f168201915b50505050508152505081526020019060010190610839565b50505050905090565b6000604051905090565b600080fd5b600080fd5b6000819050919050565b610aed81610ada565b8114610af857600080fd5b50565b600081359050610b0a81610ae4565b92915050565b600060208284031215610b2657610b25610ad0565b5b6000610b3484828501610afb565b91505092915050565b600081519050919050565b600082825260208201905092915050565b60005b83811015610b77578082015181840152602081019050610b5c565b60008484015250505050565b6000601f19601f8301169050919050565b6000610b9f82610b3d565b610ba98185610b48565b9350610bb9818560208601610b59565b610bc281610b83565b840191505092915050565b610bd681610ada565b82525050565b60006080820190508181036000830152610bf68187610b94565b90508181036020830152610c0a8186610b94565b9050610c196040830185610bcd565b8181036060830152610c2b8184610b94565b905095945050505050565b6000602082019050610c4b6000830184610bcd565b92915050565b600060a0820190508181036000830152610c6b8188610b94565b90508181036020830152610c7f8187610b94565b9050610c8e6040830186610bcd565b8181036060830152610ca08185610b94565b90508181036080830152610cb48184610b94565b90509695505050505050565b600080fd5b600080fd5b7f4e487b7100000000000000000000000000000000000000000000000000000000600052604160045260246000fd5b610d0282610b83565b810181811067ffffffffffffffff82111715610d2157610d20610cca565b5b80604052505050565b6000610d34610ac6565b9050610d408282610cf9565b919050565b600067ffffffffffffffff821115610d6057610d5f610cca565b5b610d6982610b83565b9050602081019050919050565b82818337600083830152505050565b6000610d98610d9384610d45565b610d2a565b905082815260208101848484011115610db457610db3610cc5565b5b610dbf848285610d76565b509392505050565b600082601f830112610ddc57610ddb610cc0565b5b8135610dec848260208601610d85565b91505092915050565b600080600080600060a08688031215610e1157610e10610ad0565b5b600086013567ffffffffffffffff811115610e2f57610e2e610ad5565b5b610e3b88828901610dc7565b955050602086013567ffffffffffffffff811115610e5c57610e5b610ad5565b5b610e6888828901610dc7565b9450506040610e7988828901610afb565b935050606086013567ffffffffffffffff811115610e9a57610e99610ad5565b5b610ea688828901610dc7565b925050608086013567ffffffffffffffff811115610ec757610ec6610ad5565b5b610ed388828901610dc7565b9150509295509295909350565b600081519050919050565b600082825260208201905092915050565b6000819050602082019050919050565b600082825260208201905092915050565b6000610f2882610b3d565b610f328185610f0c565b9350610f42818560208601610b59565b610f4b81610b83565b840191505092915050565b610f5f81610ada565b82525050565b600060a0830160008301518482036000860152610f828282610f1d565b91505060208301518482036020860152610f9c8282610f1d565b9150506040830151610fb16040860182610f56565b5060608301518482036060860152610fc98282610f1d565b91505060808301518482036080860152610fe38282610f1d565b9150508091505092915050565b6000610ffc8383610f65565b905092915050565b6000602082019050919050565b600061101c82610ee0565b6110268185610eeb565b93508360208202850161103885610efc565b8060005b8581101561107457848403895281516110558582610ff0565b945061106083611004565b925060208a0199505060018101905061103c565b50829750879550505050505092915050565b600060208201905081810360008301526110a08184611011565b905092915050565b7f467275697420696e6578697374616e7400000000000000000000000000000000600082015250565b60006110de601083610b48565b91506110e9826110a8565b602082019050919050565b6000602082019050818103600083015261110d816110d1565b9050919050565b7f4e487b7100000000000000000000000000000000000000000000000000000000600052603260045260246000fd5b7f4e487b7100000000000000000000000000000000000000000000000000000000600052602260045260246000fd5b6000600282049050600182168061118a57607f821691505b60208210810361119d5761119c611143565b5b50919050565b7f4672756974206e616d652073686f756c64206e6f7420626520656d7074790000600082015250565b60006111d9601e83610b48565b91506111e4826111a3565b602082019050919050565b60006020820190508181036000830152611208816111cc565b9050919050565b7f546865207072696365206d7573742062652067726561746572207468616e2030600082015250565b6000611245602083610b48565b91506112508261120f565b602082019050919050565b6000602082019050818103600083015261127481611238565b9050919050565b60008190508160005260206000209050919050565b60006020601f8301049050919050565b600082821b905092915050565b6000600883026112dd7fffffffffffffffffffffffffffffffffffffffffffffffffffffffffffffffff826112a0565b6112e786836112a0565b95508019841693508086168417925050509392505050565b6000819050919050565b600061132461131f61131a84610ada565b6112ff565b610ada565b9050919050565b6000819050919050565b61133e83611309565b61135261134a8261132b565b8484546112ad565b825550505050565b600090565b61136761135a565b611372818484611335565b505050565b5b818110156113965761138b60008261135f565b600181019050611378565b5050565b601f8211156113db576113ac8161127b565b6113b584611290565b810160208510156113c4578190505b6113d86113d085611290565b830182611377565b50505b505050565b600082821c905092915050565b60006113fe600019846008026113e0565b1980831691505092915050565b600061141783836113ed565b9150826002028217905092915050565b61143082610b3d565b67ffffffffffffffff81111561144957611448610cca565b5b6114538254611172565b61145e82828561139a565b600060209050601f831160018114611491576000841561147f578287015190505b611489858261140b565b8655506114f1565b601f19841661149f8661127b565b60005b828110156114c7578489015182556001820191506020850194506020810190506114a2565b868310156114e457848901516114e0601f8916826113ed565b8355505b6001600288020188555050505b505050505050565b600060408201905081810360008301526115138185610b94565b90506115226020830184610bcd565b939250505056fea264697066735822122056d70a393bb5a86d3d0145ac9b8309682d7f1f050fc9685d08f636a9c3b7d08964736f6c634300081c0033307842396530633666333436454633383236413531356441334637333637353634343645354639443646307835664531413562363139413745344564363544344533466436323061386234626235423662463246307831433545396633624436383942396235653966464565356233623534323044376439346237443045307844466137323841383335466443426566633943333865314332453939393136333637363835453344307837333965396441316535394637366265436561313245344432334337393830364539374332666532307844333444626545663946376131433634443162383335356239336141664444344230633664353061307841623233433564373535386138453963374635623565313041663343313146354137446666443744307845344239353335423930416537466436433864313235623246643235343436343142326343316532307846356235394232323346353765324330423838414338624434386145363245323132396433383835307830453946353034323966386639376546336661373466316339423536344565353563416634333631",
  "linkReferences": {},
  "deployedLinkReferences": {}
}