{
  "_format": "hh-sol-artifact-1",
  "contractName": "FruitMarketplace",
  "sourceName": "contracts/FruitMarketplace.sol",
  "abi": [
    {
      "inputs": [],
      "stateMutability": "nonpayable",
      "type": "constructor"
    },
    {
      "anonymous": false,
      "inputs": [
        {
          "indexed": false,
          "internalType": "string",
          "name": "name",
          "type": "string"
        },
        {
          "indexed": false,
          "internalType": "uint256",
          "name": "price",
          "type": "uint256"
        },
        {
          "indexed": true,
          "internalType": "string",
          "name": "seller",
          "type": "string"
        }
      ],
      "name": "FruitAdded",
      "type": "event"
    },
    {
      "inputs": [
        {
          "internalType": "string",
          "name": "name",
          "type": "string"
        },
        {
          "internalType": "uint256",
          "name": "price",
          "type": "uint256"
        },
        {
          "internalType": "string",
          "name": "seller",
          "type": "string"
        }
      ],
      "name": "addFruit",
      "outputs": [],
      "stateMutability": "nonpayable",
      "type": "function"
    },
    {
      "inputs": [
        {
          "internalType": "uint256",
          "name": "",
          "type": "uint256"
        }
      ],
      "name": "fruits",
      "outputs": [
        {
          "internalType": "string",
          "name": "name",
          "type": "string"
        },
        {
          "internalType": "uint256",
          "name": "price",
          "type": "uint256"
        },
        {
          "internalType": "string",
          "name": "seller",
          "type": "string"
        }
      ],
      "stateMutability": "view",
      "type": "function"
    },
    {
      "inputs": [
        {
          "internalType": "uint256",
          "name": "index",
          "type": "uint256"
        }
      ],
      "name": "getFruit",
      "outputs": [
        {
          "internalType": "string",
          "name": "",
          "type": "string"
        },
        {
          "internalType": "uint256",
          "name": "",
          "type": "uint256"
        },
        {
          "internalType": "string",
          "name": "",
          "type": "string"
        }
      ],
      "stateMutability": "view",
      "type": "function"
    },
    {
      "inputs": [],
      "name": "getFruits",
      "outputs": [
        {
          "components": [
            {
              "internalType": "string",
              "name": "name",
              "type": "string"
            },
            {
              "internalType": "uint256",
              "name": "price",
              "type": "uint256"
            },
            {
              "internalType": "string",
              "name": "seller",
              "type": "string"
            }
          ],
          "internalType": "struct FruitMarketplace.Fruit[]",
          "name": "",
          "type": "tuple[]"
        }
      ],
      "stateMutability": "view",
      "type": "function"
    },
    {
      "inputs": [],
      "name": "getFruitsCount",
      "outputs": [
        {
          "internalType": "uint256",
          "name": "",
          "type": "uint256"
        }
      ],
      "stateMutability": "view",
      "type": "function"
    }
  ],
  "bytecode": "0x608060405234801561001057600080fd5b50600060405180606001604052806040518060400160405280600581526020017f4170706c650000000000000000000000000000000000000000000000000000008152508152602001671b9de674df07000081526020016040518060600160405280602a8152602001611d47602a9139815250908060018154018082558091505060019003906000526020600020906003020160009091909190915060008201518160000190816100c19190610aa4565b506020820151816001015560408201518160020190816100e19190610aa4565b505050600060405180606001604052806040518060400160405280600681526020017f42616e616e6100000000000000000000000000000000000000000000000000008152508152602001670dbd2fc137a3000081526020016040518060600160405280602a8152602001611c9f602a9139815250908060018154018082558091505060019003906000526020600020906003020160009091909190915060008201518160000190816101949190610aa4565b506020820151816001015560408201518160020190816101b49190610aa4565b505050600060405180606001604052806040518060400160405280600681526020017f4f72616e6765000000000000000000000000000000000000000000000000000081525081526020016711e7002a5041000081526020016040518060600160405280602a8152602001611d9b602a9139815250908060018154018082558091505060019003906000526020600020906003020160009091909190915060008201518160000190816102679190610aa4565b506020820151816001015560408201518160020190816102879190610aa4565b505050600060405180606001604052806040518060400160405280600681526020017f4772617065730000000000000000000000000000000000000000000000000000815250815260200167228e41ceb2b9000081526020016040518060600160405280602a8152602001611d71602a91398152509080600181540180825580915050600190039060005260206000209060030201600090919091909150600082015181600001908161033a9190610aa4565b5060208201518160010155604082015181600201908161035a9190610aa4565b505050600060405180606001604052806040518060400160405280600581526020017f5065616368000000000000000000000000000000000000000000000000000000815250815260200167297e9d28866b000081526020016040518060600160405280602a8152602001611def602a91398152509080600181540180825580915050600190039060005260206000209060030201600090919091909150600082015181600001908161040d9190610aa4565b5060208201518160010155604082015181600201908161042d9190610aa4565b505050600060405180606001604052806040518060400160405280600981526020017f50696e656170706c65000000000000000000000000000000000000000000000081525081526020016731442230f8a3000081526020016040518060600160405280602a8152602001611d1d602a9139815250908060018154018082558091505060019003906000526020600020906003020160009091909190915060008201518160000190816104e09190610aa4565b506020820151816001015560408201518160020190816105009190610aa4565b505050600060405180606001604052806040518060400160405280600581526020017f4d616e676f00000000000000000000000000000000000000000000000000000081525081526020016726b81237cb57000081526020016040518060600160405280602a8152602001611dc5602a9139815250908060018154018082558091505060019003906000526020600020906003020160009091909190915060008201518160000190816105b39190610aa4565b506020820151816001015560408201518160020190816105d39190610aa4565b505050600060405180606001604052806040518060400160405280600a81526020017f5374726177626572727900000000000000000000000000000000000000000000815250815260200167375f53dc2dcf000081526020016040518060600160405280602a8152602001611cc9602a9139815250908060018154018082558091505060019003906000526020600020906003020160009091909190915060008201518160000190816106869190610aa4565b506020820151816001015560408201518160020190816106a69190610aa4565b505050600060405180606001604052806040518060400160405280600981526020017f426c7565626572727900000000000000000000000000000000000000000000008152508152602001673e4faf360181000081526020016040518060600160405280602a8152602001611c75602a9139815250908060018154018082558091505060019003906000526020600020906003020160009091909190915060008201518160000190816107599190610aa4565b506020820151816001015560408201518160020190816107799190610aa4565b505050600060405180606001604052806040518060400160405280600681526020017f4368657272790000000000000000000000000000000000000000000000000000815250815260200167480695809047000081526020016040518060600160405280602a8152602001611cf3602a91398152509080600181540180825580915050600190039060005260206000209060030201600090919091909150600082015181600001908161082c9190610aa4565b5060208201518160010155604082015181600201908161084c9190610aa4565b505050610b76565b600081519050919050565b7f4e487b7100000000000000000000000000000000000000000000000000000000600052604160045260246000fd5b7f4e487b7100000000000000000000000000000000000000000000000000000000600052602260045260246000fd5b600060028204905060018216806108d557607f821691505b6020821081036108e8576108e761088e565b5b50919050565b60008190508160005260206000209050919050565b60006020601f8301049050919050565b600082821b905092915050565b6000600883026109507fffffffffffffffffffffffffffffffffffffffffffffffffffffffffffffffff82610913565b61095a8683610913565b95508019841693508086168417925050509392505050565b6000819050919050565b6000819050919050565b60006109a161099c61099784610972565b61097c565b610972565b9050919050565b6000819050919050565b6109bb83610986565b6109cf6109c7826109a8565b848454610920565b825550505050565b600090565b6109e46109d7565b6109ef8184846109b2565b505050565b5b81811015610a1357610a086000826109dc565b6001810190506109f5565b5050565b601f821115610a5857610a29816108ee565b610a3284610903565b81016020851015610a41578190505b610a55610a4d85610903565b8301826109f4565b50505b505050565b600082821c905092915050565b6000610a7b60001984600802610a5d565b1980831691505092915050565b6000610a948383610a6a565b9150826002028217905092915050565b610aad82610854565b67ffffffffffffffff811115610ac657610ac561085f565b5b610ad082546108bd565b610adb828285610a17565b600060209050601f831160018114610b0e5760008415610afc578287015190505b610b068582610a88565b865550610b6e565b601f198416610b1c866108ee565b60005b82811015610b4457848901518255600182019150602085019450602081019050610b1f565b86831015610b615784890151610b5d601f891682610a6a565b8355505b6001600288020188555050505b505050505050565b6110f080610b856000396000f3fe608060405234801561001057600080fd5b50600436106100575760003560e01c8063590ef8c51461005c57806376ce7fe9146100785780639a9be79c146100aa578063c4172162146100c8578063e6958cf7146100fa575b600080fd5b610076600480360381019061007191906108ac565b610118565b005b610092600480360381019061008d9190610937565b610271565b6040516100a1939291906109f2565b60405180910390f35b6100b2610439565b6040516100bf9190610a37565b60405180910390f35b6100e260048036038101906100dd9190610937565b610445565b6040516100f1939291906109f2565b60405180910390f35b61010261058f565b60405161010f9190610bc4565b60405180910390f35b600083511161015c576040517f08c379a000000000000000000000000000000000000000000000000000000000815260040161015390610c32565b60405180910390fd5b6000821161019f576040517f08c379a000000000000000000000000000000000000000000000000000000000815260040161019690610c9e565b60405180910390fd5b6000604051806060016040528085815260200184815260200183815250908060018154018082558091505060019003906000526020600020906003020160009091909190915060008201518160000190816101fa9190610eca565b5060208201518160010155604082015181600201908161021a9190610eca565b5050508060405161022b9190610fd8565b60405180910390207f6707d3a9fb837906f8122466a52a0982d8ce3729d952384572e7cd6f261a8daa8484604051610264929190610fef565b60405180910390a2505050565b60606000606060008054905084106102be576040517f08c379a00000000000000000000000000000000000000000000000000000000081526004016102b59061106b565b60405180910390fd5b60008085815481106102d3576102d261108b565b5b90600052602060002090600302016040518060600160405290816000820180546102fc90610ced565b80601f016020809104026020016040519081016040528092919081815260200182805461032890610ced565b80156103755780601f1061034a57610100808354040283529160200191610375565b820191906000526020600020905b81548152906001019060200180831161035857829003601f168201915b505050505081526020016001820154815260200160028201805461039890610ced565b80601f01602080910402602001604051908101604052809291908181526020018280546103c490610ced565b80156104115780601f106103e657610100808354040283529160200191610411565b820191906000526020600020905b8154815290600101906020018083116103f457829003601f168201915b5050505050815250509050806000015181602001518260400151935093509350509193909250565b60008080549050905090565b6000818154811061045557600080fd5b906000526020600020906003020160009150905080600001805461047890610ced565b80601f01602080910402602001604051908101604052809291908181526020018280546104a490610ced565b80156104f15780601f106104c6576101008083540402835291602001916104f1565b820191906000526020600020905b8154815290600101906020018083116104d457829003601f168201915b50505050509080600101549080600201805461050c90610ced565b80601f016020809104026020016040519081016040528092919081815260200182805461053890610ced565b80156105855780601f1061055a57610100808354040283529160200191610585565b820191906000526020600020905b81548152906001019060200180831161056857829003601f168201915b5050505050905083565b60606000805480602002602001604051908101604052809291908181526020016000905b8282101561071357838290600052602060002090600302016040518060600160405290816000820180546105e690610ced565b80601f016020809104026020016040519081016040528092919081815260200182805461061290610ced565b801561065f5780601f106106345761010080835404028352916020019161065f565b820191906000526020600020905b81548152906001019060200180831161064257829003601f168201915b505050505081526020016001820154815260200160028201805461068290610ced565b80601f01602080910402602001604051908101604052809291908181526020018280546106ae90610ced565b80156106fb5780601f106106d0576101008083540402835291602001916106fb565b820191906000526020600020905b8154815290600101906020018083116106de57829003601f168201915b505050505081525050815260200190600101906105b3565b50505050905090565b6000604051905090565b600080fd5b600080fd5b600080fd5b600080fd5b6000601f19601f8301169050919050565b7f4e487b7100000000000000000000000000000000000000000000000000000000600052604160045260246000fd5b6107838261073a565b810181811067ffffffffffffffff821117156107a2576107a161074b565b5b80604052505050565b60006107b561071c565b90506107c1828261077a565b919050565b600067ffffffffffffffff8211156107e1576107e061074b565b5b6107ea8261073a565b9050602081019050919050565b82818337600083830152505050565b6000610819610814846107c6565b6107ab565b90508281526020810184848401111561083557610834610735565b5b6108408482856107f7565b509392505050565b600082601f83011261085d5761085c610730565b5b813561086d848260208601610806565b91505092915050565b6000819050919050565b61088981610876565b811461089457600080fd5b50565b6000813590506108a681610880565b92915050565b6000806000606084860312156108c5576108c4610726565b5b600084013567ffffffffffffffff8111156108e3576108e261072b565b5b6108ef86828701610848565b935050602061090086828701610897565b925050604084013567ffffffffffffffff8111156109215761092061072b565b5b61092d86828701610848565b9150509250925092565b60006020828403121561094d5761094c610726565b5b600061095b84828501610897565b91505092915050565b600081519050919050565b600082825260208201905092915050565b60005b8381101561099e578082015181840152602081019050610983565b60008484015250505050565b60006109b582610964565b6109bf818561096f565b93506109cf818560208601610980565b6109d88161073a565b840191505092915050565b6109ec81610876565b82525050565b60006060820190508181036000830152610a0c81866109aa565b9050610a1b60208301856109e3565b8181036040830152610a2d81846109aa565b9050949350505050565b6000602082019050610a4c60008301846109e3565b92915050565b600081519050919050565b600082825260208201905092915050565b6000819050602082019050919050565b600082825260208201905092915050565b6000610a9a82610964565b610aa48185610a7e565b9350610ab4818560208601610980565b610abd8161073a565b840191505092915050565b610ad181610876565b82525050565b60006060830160008301518482036000860152610af48282610a8f565b9150506020830151610b096020860182610ac8565b5060408301518482036040860152610b218282610a8f565b9150508091505092915050565b6000610b3a8383610ad7565b905092915050565b6000602082019050919050565b6000610b5a82610a52565b610b648185610a5d565b935083602082028501610b7685610a6e565b8060005b85811015610bb25784840389528151610b938582610b2e565b9450610b9e83610b42565b925060208a01995050600181019050610b7a565b50829750879550505050505092915050565b60006020820190508181036000830152610bde8184610b4f565b905092915050565b7f4672756974206e616d652073686f756c64206e6f7420626520656d7074790000600082015250565b6000610c1c601e8361096f565b9150610c2782610be6565b602082019050919050565b60006020820190508181036000830152610c4b81610c0f565b9050919050565b7f546865207072696365206d7573742062652067726561746572207468616e2030600082015250565b6000610c8860208361096f565b9150610c9382610c52565b602082019050919050565b60006020820190508181036000830152610cb781610c7b565b9050919050565b7f4e487b7100000000000000000000000000000000000000000000000000000000600052602260045260246000fd5b60006002820490506001821680610d0557607f821691505b602082108103610d1857610d17610cbe565b5b50919050565b60008190508160005260206000209050919050565b60006020601f8301049050919050565b600082821b905092915050565b600060088302610d807fffffffffffffffffffffffffffffffffffffffffffffffffffffffffffffffff82610d43565b610d8a8683610d43565b95508019841693508086168417925050509392505050565b6000819050919050565b6000610dc7610dc2610dbd84610876565b610da2565b610876565b9050919050565b6000819050919050565b610de183610dac565b610df5610ded82610dce565b848454610d50565b825550505050565b600090565b610e0a610dfd565b610e15818484610dd8565b505050565b5b81811015610e3957610e2e600082610e02565b600181019050610e1b565b5050565b601f821115610e7e57610e4f81610d1e565b610e5884610d33565b81016020851015610e67578190505b610e7b610e7385610d33565b830182610e1a565b50505b505050565b600082821c905092915050565b6000610ea160001984600802610e83565b1980831691505092915050565b6000610eba8383610e90565b9150826002028217905092915050565b610ed382610964565b67ffffffffffffffff811115610eec57610eeb61074b565b5b610ef68254610ced565b610f01828285610e3d565b600060209050601f831160018114610f345760008415610f22578287015190505b610f2c8582610eae565b865550610f94565b601f198416610f4286610d1e565b60005b82811015610f6a57848901518255600182019150602085019450602081019050610f45565b86831015610f875784890151610f83601f891682610e90565b8355505b6001600288020188555050505b505050505050565b600081905092915050565b6000610fb282610964565b610fbc8185610f9c565b9350610fcc818560208601610980565b80840191505092915050565b6000610fe48284610fa7565b915081905092915050565b6000604082019050818103600083015261100981856109aa565b905061101860208301846109e3565b9392505050565b7f467275697420696e6578697374616e7400000000000000000000000000000000600082015250565b600061105560108361096f565b91506110608261101f565b602082019050919050565b6000602082019050818103600083015261108481611048565b9050919050565b7f4e487b7100000000000000000000000000000000000000000000000000000000600052603260045260246000fdfea2646970667358221220d42d6b0f44aa462952eb88b6a7ec26f64c2fc7b4854f4426c5af58eb970dcebb64736f6c634300081c0033307842396530633666333436454633383236413531356441334637333637353634343645354639443646307835664531413562363139413745344564363544344533466436323061386234626235423662463246307831433545396633624436383942396235653966464565356233623534323044376439346237443045307844466137323841383335466443426566633943333865314332453939393136333637363835453344307837333965396441316535394637366265436561313245344432334337393830364539374332666532307844333444626545663946376131433634443162383335356239336141664444344230633664353061307841623233433564373535386138453963374635623565313041663343313146354137446666443744307845344239353335423930416537466436433864313235623246643235343436343142326343316532307846356235394232323346353765324330423838414338624434386145363245323132396433383835307830453946353034323966386639376546336661373466316339423536344565353563416634333631",
  "linkReferences": {},
  "deployedLinkReferences": {}
}