{
  "_format": "hh-sol-artifact-1",
  "contractName": "NewFruitMarketPlace",
  "sourceName": "contracts/NewFruitMarketPlace.sol",
  "abi": [
    {
      "anonymous": false,
      "inputs": [
        {
          "indexed": true,
          "internalType": "uint256",
          "name": "fruitId",
          "type": "uint256"
        },
        {
          "indexed": false,
          "internalType": "string",
          "name": "name",
          "type": "string"
        },
        {
          "indexed": false,
          "internalType": "uint256",
          "name": "price",
          "type": "uint256"
        }
      ],
      "name": "FruitAdded",
      "type": "event"
    },
    {
      "anonymous": false,
      "inputs": [
        {
          "indexed": true,
          "internalType": "uint256",
          "name": "fruitId",
          "type": "uint256"
        },
        {
          "indexed": false,
          "internalType": "uint256",
          "name": "price",
          "type": "uint256"
        }
      ],
      "name": "FruitForSale",
      "type": "event"
    },
    {
      "anonymous": false,
      "inputs": [
        {
          "indexed": true,
          "internalType": "uint256",
          "name": "fruitId",
          "type": "uint256"
        },
        {
          "indexed": true,
          "internalType": "address",
          "name": "seller",
          "type": "address"
        },
        {
          "indexed": true,
          "internalType": "address",
          "name": "buyer",
          "type": "address"
        },
        {
          "indexed": false,
          "internalType": "uint256",
          "name": "price",
          "type": "uint256"
        }
      ],
      "name": "FruitSold",
      "type": "event"
    },
    {
      "anonymous": false,
      "inputs": [
        {
          "indexed": true,
          "internalType": "address",
          "name": "user",
          "type": "address"
        }
      ],
      "name": "Registration",
      "type": "event"
    },
    {
      "anonymous": false,
      "inputs": [
        {
          "indexed": true,
          "internalType": "address",
          "name": "seller",
          "type": "address"
        },
        {
          "indexed": true,
          "internalType": "address",
          "name": "buyer",
          "type": "address"
        },
        {
          "indexed": false,
          "internalType": "uint8",
          "name": "rating",
          "type": "uint8"
        },
        {
          "indexed": false,
          "internalType": "string",
          "name": "comment",
          "type": "string"
        }
      ],
      "name": "SellerRated",
      "type": "event"
    },
    {
      "inputs": [
        {
          "internalType": "string",
          "name": "_name",
          "type": "string"
        },
        {
          "internalType": "uint256",
          "name": "_price",
          "type": "uint256"
        }
      ],
      "name": "addFruit",
      "outputs": [],
      "stateMutability": "nonpayable",
      "type": "function"
    },
    {
      "inputs": [
        {
          "internalType": "uint256",
          "name": "_fruitId",
          "type": "uint256"
        }
      ],
      "name": "buyFruit",
      "outputs": [],
      "stateMutability": "payable",
      "type": "function"
    },
    {
      "inputs": [],
      "name": "createUser",
      "outputs": [],
      "stateMutability": "nonpayable",
      "type": "function"
    },
    {
      "inputs": [
        {
          "internalType": "uint256",
          "name": "_fruitId",
          "type": "uint256"
        }
      ],
      "name": "getFruitForSale",
      "outputs": [
        {
          "components": [
            {
              "internalType": "uint256",
              "name": "id",
              "type": "uint256"
            },
            {
              "internalType": "string",
              "name": "name",
              "type": "string"
            },
            {
              "internalType": "uint256",
              "name": "price",
              "type": "uint256"
            },
            {
              "internalType": "address",
              "name": "owner",
              "type": "address"
            },
            {
              "internalType": "address",
              "name": "prevOwner",
              "type": "address"
            },
            {
              "internalType": "bool",
              "name": "forSale",
              "type": "bool"
            }
          ],
          "internalType": "struct NewFruitMarketPlace.Fruit",
          "name": "",
          "type": "tuple"
        }
      ],
      "stateMutability": "view",
      "type": "function"
    },
    {
      "inputs": [],
      "name": "getFruitsForSale",
      "outputs": [
        {
          "internalType": "uint256[]",
          "name": "",
          "type": "uint256[]"
        }
      ],
      "stateMutability": "view",
      "type": "function"
    },
    {
      "inputs": [
        {
          "internalType": "uint256",
          "name": "_fruitId",
          "type": "uint256"
        }
      ],
      "name": "getUserFruit",
      "outputs": [
        {
          "components": [
            {
              "internalType": "uint256",
              "name": "id",
              "type": "uint256"
            },
            {
              "internalType": "string",
              "name": "name",
              "type": "string"
            },
            {
              "internalType": "uint256",
              "name": "price",
              "type": "uint256"
            },
            {
              "internalType": "address",
              "name": "owner",
              "type": "address"
            },
            {
              "internalType": "address",
              "name": "prevOwner",
              "type": "address"
            },
            {
              "internalType": "bool",
              "name": "forSale",
              "type": "bool"
            }
          ],
          "internalType": "struct NewFruitMarketPlace.Fruit",
          "name": "",
          "type": "tuple"
        }
      ],
      "stateMutability": "view",
      "type": "function"
    },
    {
      "inputs": [],
      "name": "getUserFruits",
      "outputs": [
        {
          "internalType": "uint256[]",
          "name": "",
          "type": "uint256[]"
        }
      ],
      "stateMutability": "view",
      "type": "function"
    },
    {
      "inputs": [],
      "name": "getUserRatings",
      "outputs": [
        {
          "components": [
            {
              "internalType": "address",
              "name": "buyer",
              "type": "address"
            },
            {
              "internalType": "string",
              "name": "comment",
              "type": "string"
            },
            {
              "internalType": "uint8",
              "name": "rating",
              "type": "uint8"
            }
          ],
          "internalType": "struct NewFruitMarketPlace.UserRating[]",
          "name": "",
          "type": "tuple[]"
        }
      ],
      "stateMutability": "view",
      "type": "function"
    },
    {
      "inputs": [],
      "name": "isRegistered",
      "outputs": [
        {
          "internalType": "bool",
          "name": "",
          "type": "bool"
        }
      ],
      "stateMutability": "view",
      "type": "function"
    },
    {
      "inputs": [
        {
          "internalType": "string",
          "name": "_comment",
          "type": "string"
        },
        {
          "internalType": "uint8",
          "name": "_rating",
          "type": "uint8"
        },
        {
          "internalType": "uint256",
          "name": "_fruitId",
          "type": "uint256"
        }
      ],
      "name": "rate",
      "outputs": [],
      "stateMutability": "nonpayable",
      "type": "function"
    },
    {
      "inputs": [
        {
          "internalType": "uint256",
          "name": "_fruitId",
          "type": "uint256"
        },
        {
          "internalType": "uint256",
          "name": "_price",
          "type": "uint256"
        }
      ],
      "name": "sellFruit",
      "outputs": [],
      "stateMutability": "nonpayable",
      "type": "function"
    }
  ],
  "bytecode": "0x60806040526000600155348015601457600080fd5b50612cfc806100246000396000f3fe60806040526004361061009c5760003560e01c80636d0811b5116100645780636d0811b5146101625780637656bac61461018b5780638580a834146101b65780639d08b346146101f3578063a782b7c91461020f578063f07327b61461024c5761009c565b80631b3f48e7146100a157806322366844146100ca57806325ad91ce146100f55780634427e1501461010c57806356fe7c0b14610137575b600080fd5b3480156100ad57600080fd5b506100c860048036038101906100c391906121b5565b610275565b005b3480156100d657600080fd5b506100df6105f2565b6040516100ec919061222c565b60405180910390f35b34801561010157600080fd5b5061010a610649565b005b34801561011857600080fd5b5061012161073e565b60405161012e9190612305565b60405180910390f35b34801561014357600080fd5b5061014c61090a565b6040516101599190612305565b60405180910390f35b34801561016e57600080fd5b5061018960048036038101906101849190612327565b610a02565b005b34801561019757600080fd5b506101a0610bfd565b6040516101ad9190612555565b60405180910390f35b3480156101c257600080fd5b506101dd60048036038101906101d89190612577565b610e04565b6040516101ea919061263c565b60405180910390f35b61020d60048036038101906102089190612577565b61117f565b005b34801561021b57600080fd5b5061023660048036038101906102319190612577565b6115be565b604051610243919061263c565b60405180910390f35b34801561025857600080fd5b50610273600480360381019061026e919061268a565b6118e5565b005b61027d6105f2565b6040518060600160405280603e8152602001612c89603e9139906102d7576040517f08c379a00000000000000000000000000000000000000000000000000000000081526004016102ce9190612743565b60405180910390fd5b506002826040516102e891906127a1565b908152602001604051809103902060009054906101000a900460ff16156040518060400160405280601581526020017f467275697420616c7265616479206578697374732e00000000000000000000008152509061037c576040517f08c379a00000000000000000000000000000000000000000000000000000000081526004016103739190612743565b60405180910390fd5b50600060016000815480929190610392906127e7565b91905055905060016002846040516103aa91906127a1565b908152602001604051809103902060006101000a81548160ff021916908315150217905550600080549050600560008381526020019081526020016000208190555060006040518060c001604052808381526020018581526020018481526020013373ffffffffffffffffffffffffffffffffffffffff1681526020013373ffffffffffffffffffffffffffffffffffffffff1681526020016000151581525090806001815401808255809150506001900390600052602060002090600502016000909190919091506000820151816000015560208201518160010190816104929190612a3b565b506040820151816002015560608201518160030160006101000a81548173ffffffffffffffffffffffffffffffffffffffff021916908373ffffffffffffffffffffffffffffffffffffffff16021790555060808201518160040160006101000a81548173ffffffffffffffffffffffffffffffffffffffff021916908373ffffffffffffffffffffffffffffffffffffffff16021790555060a08201518160040160146101000a81548160ff0219169083151502179055505050600460003373ffffffffffffffffffffffffffffffffffffffff1673ffffffffffffffffffffffffffffffffffffffff168152602001908152602001600020819080600181540180825580915050600190039060005260206000200160009091909190915055807f739ce2e7a39c6bcaa33b49cfa6353b263c41f3722f21cd92b34d72f6c5b2d30984846040516105e5929190612b1c565b60405180910390a2505050565b6000600360003373ffffffffffffffffffffffffffffffffffffffff1673ffffffffffffffffffffffffffffffffffffffff16815260200190815260200160002060000160009054906101000a900460ff16905090565b600360003373ffffffffffffffffffffffffffffffffffffffff1673ffffffffffffffffffffffffffffffffffffffff16815260200190815260200160002060000160009054906101000a900460ff1661073c576001600360003373ffffffffffffffffffffffffffffffffffffffff1673ffffffffffffffffffffffffffffffffffffffff16815260200190815260200160002060000160006101000a81548160ff0219169083151502179055503373ffffffffffffffffffffffffffffffffffffffff167f478f5152d8fc568db3f8de9fb402fd9d98a1a7541ecfe434e59cf574fbfc552460405160405180910390a25b565b60606107486105f2565b6040518060600160405280603e8152602001612c89603e9139906107a2576040517f08c379a00000000000000000000000000000000000000000000000000000000081526004016107999190612743565b60405180910390fd5b506000805b60008054905081101561080857600081815481106107c8576107c7612b4c565b5b906000526020600020906005020160040160149054906101000a900460ff16156107fb5781806107f7906127e7565b9250505b80806001019150506107a7565b5060008167ffffffffffffffff81111561082557610824612054565b5b6040519080825280602002602001820160405280156108535781602001602082028036833780820191505090505b5090506000805b600080549050811015610900576000818154811061087b5761087a612b4c565b5b906000526020600020906005020160040160149054906101000a900460ff16156108f357600081815481106108b3576108b2612b4c565b5b9060005260206000209060050201600001548383815181106108d8576108d7612b4c565b5b60200260200101818152505081806108ef906127e7565b9250505b808060010191505061085a565b5081935050505090565b60606109146105f2565b6040518060600160405280603e8152602001612c89603e91399061096e576040517f08c379a00000000000000000000000000000000000000000000000000000000081526004016109659190612743565b60405180910390fd5b50600460003373ffffffffffffffffffffffffffffffffffffffff1673ffffffffffffffffffffffffffffffffffffffff1681526020019081526020016000208054806020026020016040519081016040528092919081815260200182805480156109f857602002820191906000526020600020905b8154815260200190600101908083116109e4575b5050505050905090565b610a0b82611cf3565b6040518060400160405280601881526020017f54686520667275697420646f6573206e6f74206578697374000000000000000081525090610a82576040517f08c379a0000000000000000000000000000000000000000000000000000000008152600401610a799190612743565b60405180910390fd5b506000610a8e83611d55565b9050610a9981611d72565b604051806060016040528060238152602001612c396023913990610af3576040517f08c379a0000000000000000000000000000000000000000000000000000000008152600401610aea9190612743565b60405180910390fd5b50600160008281548110610b0a57610b09612b4c565b5b906000526020600020906005020160040160146101000a81548160ff0219169083151502179055503360008281548110610b4757610b46612b4c565b5b906000526020600020906005020160040160006101000a81548173ffffffffffffffffffffffffffffffffffffffff021916908373ffffffffffffffffffffffffffffffffffffffff1602179055508160008281548110610bab57610baa612b4c565b5b906000526020600020906005020160020181905550827f12837b86d796be7cebf41bb928648910d81a15528850a24e043963cb4e3aae4283604051610bf09190612b7b565b60405180910390a2505050565b6060610c076105f2565b6040518060600160405280603e8152602001612c89603e913990610c61576040517f08c379a0000000000000000000000000000000000000000000000000000000008152600401610c589190612743565b60405180910390fd5b50600360003373ffffffffffffffffffffffffffffffffffffffff1673ffffffffffffffffffffffffffffffffffffffff168152602001908152602001600020600101805480602002602001604051908101604052809291908181526020016000905b82821015610dfb57838290600052602060002090600302016040518060600160405290816000820160009054906101000a900473ffffffffffffffffffffffffffffffffffffffff1673ffffffffffffffffffffffffffffffffffffffff1673ffffffffffffffffffffffffffffffffffffffff168152602001600182018054610d4d9061285e565b80601f0160208091040260200160405190810160405280929190818152602001828054610d799061285e565b8015610dc65780601f10610d9b57610100808354040283529160200191610dc6565b820191906000526020600020905b815481529060010190602001808311610da957829003601f168201915b505050505081526020016002820160009054906101000a900460ff1660ff1660ff168152505081526020019060010190610cc4565b50505050905090565b610e0c611fc1565b610e146105f2565b6040518060600160405280603e8152602001612c89603e913990610e6e576040517f08c379a0000000000000000000000000000000000000000000000000000000008152600401610e659190612743565b60405180910390fd5b50610e7882611cf3565b6040518060400160405280601881526020017f54686520667275697420646f6573206e6f74206578697374000000000000000081525090610eef576040517f08c379a0000000000000000000000000000000000000000000000000000000008152600401610ee69190612743565b60405180910390fd5b506000600460003373ffffffffffffffffffffffffffffffffffffffff1673ffffffffffffffffffffffffffffffffffffffff168152602001908152602001600020905060005b81805490508110156111245783828281548110610f5657610f55612b4c565b5b906000526020600020015403611117576000610f7185611d55565b905060008181548110610f8757610f86612b4c565b5b90600052602060002090600502016040518060c001604052908160008201548152602001600182018054610fba9061285e565b80601f0160208091040260200160405190810160405280929190818152602001828054610fe69061285e565b80156110335780601f1061100857610100808354040283529160200191611033565b820191906000526020600020905b81548152906001019060200180831161101657829003601f168201915b50505050508152602001600282015481526020016003820160009054906101000a900473ffffffffffffffffffffffffffffffffffffffff1673ffffffffffffffffffffffffffffffffffffffff1673ffffffffffffffffffffffffffffffffffffffff1681526020016004820160009054906101000a900473ffffffffffffffffffffffffffffffffffffffff1673ffffffffffffffffffffffffffffffffffffffff1673ffffffffffffffffffffffffffffffffffffffff1681526020016004820160149054906101000a900460ff161515151581525050935050505061117a565b8080600101915050610f36565b50604051806060016040528060238152602001612c39602391396040517f08c379a00000000000000000000000000000000000000000000000000000000081526004016111719190612743565b60405180910390fd5b919050565b6111876105f2565b6040518060600160405280603e8152602001612c89603e9139906111e1576040517f08c379a00000000000000000000000000000000000000000000000000000000081526004016111d89190612743565b60405180910390fd5b506111eb81611cf3565b6040518060400160405280601881526020017f54686520667275697420646f6573206e6f74206578697374000000000000000081525090611262576040517f08c379a00000000000000000000000000000000000000000000000000000000081526004016112599190612743565b60405180910390fd5b5060006005600083815260200190815260200160002054905061128481611def565b6040518060400160405280601b81526020017f54686973206672756974206973206e6f7420666f722073616c65210000000000815250906112fb576040517f08c379a00000000000000000000000000000000000000000000000000000000081526004016112f29190612743565b60405180910390fd5b5061130581611e32565b6040518060400160405280601b81526020017f54686520667275697420697320616c726561647920796f7572732e00000000008152509061137c576040517f08c379a00000000000000000000000000000000000000000000000000000000081526004016113739190612743565b60405180910390fd5b50600080828154811061139257611391612b4c565b5b906000526020600020906005020190506113af8160020154611eb0565b6040518060600160405280602d8152602001612c5c602d913990611409576040517f08c379a00000000000000000000000000000000000000000000000000000000081526004016114009190612743565b60405180910390fd5b5060008160030160009054906101000a900473ffffffffffffffffffffffffffffffffffffffff1690508073ffffffffffffffffffffffffffffffffffffffff166108fc83600201549081150290604051600060405180830381858888f1935050505015801561147d573d6000803e3d6000fd5b50338260030160006101000a81548173ffffffffffffffffffffffffffffffffffffffff021916908373ffffffffffffffffffffffffffffffffffffffff16021790555060008260040160146101000a81548160ff0219169083151502179055506114e88185611ebd565b600460003373ffffffffffffffffffffffffffffffffffffffff1673ffffffffffffffffffffffffffffffffffffffff1681526020019081526020016000208490806001815401808255809150506001900390600052602060002001600090919091909150553373ffffffffffffffffffffffffffffffffffffffff168173ffffffffffffffffffffffffffffffffffffffff16857f0f0fcf12f6f1dcccf07a79f712229e4f9ed8fbdf14b404a60d553aecdc611bf985600201546040516115b09190612b7b565b60405180910390a450505050565b6115c6611fc1565b6115ce6105f2565b6040518060600160405280603e8152602001612c89603e913990611628576040517f08c379a000000000000000000000000000000000000000000000000000000000815260040161161f9190612743565b60405180910390fd5b5061163282611cf3565b6040518060400160405280601881526020017f54686520667275697420646f6573206e6f742065786973740000000000000000815250906116a9576040517f08c379a00000000000000000000000000000000000000000000000000000000081526004016116a09190612743565b60405180910390fd5b506000600560008481526020019081526020016000205490506116cb81611def565b6040518060400160405280601b81526020017f54686973206672756974206973206e6f7420666f722073616c6521000000000081525090611742576040517f08c379a00000000000000000000000000000000000000000000000000000000081526004016117399190612743565b60405180910390fd5b506000818154811061175757611756612b4c565b5b90600052602060002090600502016040518060c00160405290816000820154815260200160018201805461178a9061285e565b80601f01602080910402602001604051908101604052809291908181526020018280546117b69061285e565b80156118035780601f106117d857610100808354040283529160200191611803565b820191906000526020600020905b8154815290600101906020018083116117e657829003601f168201915b50505050508152602001600282015481526020016003820160009054906101000a900473ffffffffffffffffffffffffffffffffffffffff1673ffffffffffffffffffffffffffffffffffffffff1673ffffffffffffffffffffffffffffffffffffffff1681526020016004820160009054906101000a900473ffffffffffffffffffffffffffffffffffffffff1673ffffffffffffffffffffffffffffffffffffffff1673ffffffffffffffffffffffffffffffffffffffff1681526020016004820160149054906101000a900460ff161515151581525050915050919050565b6118ed6105f2565b6040518060600160405280603e8152602001612c89603e913990611947576040517f08c379a000000000000000000000000000000000000000000000000000000000815260040161193e9190612743565b60405180910390fd5b5061195181611cf3565b6040518060400160405280601881526020017f54686520667275697420646f6573206e6f742065786973740000000000000000815250906119c8576040517f08c379a00000000000000000000000000000000000000000000000000000000081526004016119bf9190612743565b60405180910390fd5b506000600560008381526020019081526020016000205490506119ea81611d72565b604051806060016040528060238152602001612c396023913990611a44576040517f08c379a0000000000000000000000000000000000000000000000000000000008152600401611a3b9190612743565b60405180910390fd5b506000808281548110611a5a57611a59612b4c565b5b9060005260206000209060050201905060008160040160009054906101000a900473ffffffffffffffffffffffffffffffffffffffff1690503373ffffffffffffffffffffffffffffffffffffffff168260040160009054906101000a900473ffffffffffffffffffffffffffffffffffffffff1673ffffffffffffffffffffffffffffffffffffffff1614156040518060400160405280601981526020017f596f752063616e6e6f74207261746520796f757273656c662e0000000000000081525090611b5e576040517f08c379a0000000000000000000000000000000000000000000000000000000008152600401611b559190612743565b60405180910390fd5b50600060405180606001604052803373ffffffffffffffffffffffffffffffffffffffff1681526020018881526020018760ff168152509050600360008373ffffffffffffffffffffffffffffffffffffffff1673ffffffffffffffffffffffffffffffffffffffff16815260200190815260200160002060010181908060018154018082558091505060019003906000526020600020906003020160009091909190915060008201518160000160006101000a81548173ffffffffffffffffffffffffffffffffffffffff021916908373ffffffffffffffffffffffffffffffffffffffff1602179055506020820151816001019081611c5f9190612a3b565b5060408201518160020160006101000a81548160ff021916908360ff16021790555050503373ffffffffffffffffffffffffffffffffffffffff168273ffffffffffffffffffffffffffffffffffffffff167f7cdbe6811744e16762e405a8e546658e934e5b1b364a8227b984320f04646630888a604051611ce2929190612ba5565b60405180910390a350505050505050565b60006001548210611d075760009050611d50565b6000611d1283611d55565b905060008054905081108015611d4c57508260008281548110611d3857611d37612b4c565b5b906000526020600020906005020160000154145b9150505b919050565b600060056000838152602001908152602001600020549050919050565b60003373ffffffffffffffffffffffffffffffffffffffff1660008381548110611d9f57611d9e612b4c565b5b906000526020600020906005020160030160009054906101000a900473ffffffffffffffffffffffffffffffffffffffff1673ffffffffffffffffffffffffffffffffffffffff16149050919050565b60006001151560008381548110611e0957611e08612b4c565b5b906000526020600020906005020160040160149054906101000a900460ff161515149050919050565b60003373ffffffffffffffffffffffffffffffffffffffff1660008381548110611e5f57611e5e612b4c565b5b906000526020600020906005020160030160009054906101000a900473ffffffffffffffffffffffffffffffffffffffff1673ffffffffffffffffffffffffffffffffffffffff1614159050919050565b6000813410159050919050565b6000600460008473ffffffffffffffffffffffffffffffffffffffff1673ffffffffffffffffffffffffffffffffffffffff168152602001908152602001600020905060005b8180549050811015611fbb5782828281548110611f2357611f22612b4c565b5b906000526020600020015403611fae578160018380549050611f459190612bd5565b81548110611f5657611f55612b4c565b5b9060005260206000200154828281548110611f7457611f73612b4c565b5b906000526020600020018190555081805480611f9357611f92612c09565b5b60019003818190600052602060002001600090559055611fbb565b8080600101915050611f03565b50505050565b6040518060c00160405280600081526020016060815260200160008152602001600073ffffffffffffffffffffffffffffffffffffffff168152602001600073ffffffffffffffffffffffffffffffffffffffff1681526020016000151581525090565b6000604051905090565b600080fd5b600080fd5b600080fd5b600080fd5b6000601f19601f8301169050919050565b7f4e487b7100000000000000000000000000000000000000000000000000000000600052604160045260246000fd5b61208c82612043565b810181811067ffffffffffffffff821117156120ab576120aa612054565b5b80604052505050565b60006120be612025565b90506120ca8282612083565b919050565b600067ffffffffffffffff8211156120ea576120e9612054565b5b6120f382612043565b9050602081019050919050565b82818337600083830152505050565b600061212261211d846120cf565b6120b4565b90508281526020810184848401111561213e5761213d61203e565b5b612149848285612100565b509392505050565b600082601f83011261216657612165612039565b5b813561217684826020860161210f565b91505092915050565b6000819050919050565b6121928161217f565b811461219d57600080fd5b50565b6000813590506121af81612189565b92915050565b600080604083850312156121cc576121cb61202f565b5b600083013567ffffffffffffffff8111156121ea576121e9612034565b5b6121f685828601612151565b9250506020612207858286016121a0565b9150509250929050565b60008115159050919050565b61222681612211565b82525050565b6000602082019050612241600083018461221d565b92915050565b600081519050919050565b600082825260208201905092915050565b6000819050602082019050919050565b61227c8161217f565b82525050565b600061228e8383612273565b60208301905092915050565b6000602082019050919050565b60006122b282612247565b6122bc8185612252565b93506122c783612263565b8060005b838110156122f85781516122df8882612282565b97506122ea8361229a565b9250506001810190506122cb565b5085935050505092915050565b6000602082019050818103600083015261231f81846122a7565b905092915050565b6000806040838503121561233e5761233d61202f565b5b600061234c858286016121a0565b925050602061235d858286016121a0565b9150509250929050565b600081519050919050565b600082825260208201905092915050565b6000819050602082019050919050565b600073ffffffffffffffffffffffffffffffffffffffff82169050919050565b60006123be82612393565b9050919050565b6123ce816123b3565b82525050565b600081519050919050565b600082825260208201905092915050565b60005b8381101561240e5780820151818401526020810190506123f3565b60008484015250505050565b6000612425826123d4565b61242f81856123df565b935061243f8185602086016123f0565b61244881612043565b840191505092915050565b600060ff82169050919050565b61246981612453565b82525050565b600060608301600083015161248760008601826123c5565b506020830151848203602086015261249f828261241a565b91505060408301516124b46040860182612460565b508091505092915050565b60006124cb838361246f565b905092915050565b6000602082019050919050565b60006124eb82612367565b6124f58185612372565b93508360208202850161250785612383565b8060005b85811015612543578484038952815161252485826124bf565b945061252f836124d3565b925060208a0199505060018101905061250b565b50829750879550505050505092915050565b6000602082019050818103600083015261256f81846124e0565b905092915050565b60006020828403121561258d5761258c61202f565b5b600061259b848285016121a0565b91505092915050565b6125ad81612211565b82525050565b600060c0830160008301516125cb6000860182612273565b50602083015184820360208601526125e3828261241a565b91505060408301516125f86040860182612273565b50606083015161260b60608601826123c5565b50608083015161261e60808601826123c5565b5060a083015161263160a08601826125a4565b508091505092915050565b6000602082019050818103600083015261265681846125b3565b905092915050565b61266781612453565b811461267257600080fd5b50565b6000813590506126848161265e565b92915050565b6000806000606084860312156126a3576126a261202f565b5b600084013567ffffffffffffffff8111156126c1576126c0612034565b5b6126cd86828701612151565b93505060206126de86828701612675565b92505060406126ef868287016121a0565b9150509250925092565b600082825260208201905092915050565b6000612715826123d4565b61271f81856126f9565b935061272f8185602086016123f0565b61273881612043565b840191505092915050565b6000602082019050818103600083015261275d818461270a565b905092915050565b600081905092915050565b600061277b826123d4565b6127858185612765565b93506127958185602086016123f0565b80840191505092915050565b60006127ad8284612770565b915081905092915050565b7f4e487b7100000000000000000000000000000000000000000000000000000000600052601160045260246000fd5b60006127f28261217f565b91507fffffffffffffffffffffffffffffffffffffffffffffffffffffffffffffffff8203612824576128236127b8565b5b600182019050919050565b7f4e487b7100000000000000000000000000000000000000000000000000000000600052602260045260246000fd5b6000600282049050600182168061287657607f821691505b6020821081036128895761288861282f565b5b50919050565b60008190508160005260206000209050919050565b60006020601f8301049050919050565b600082821b905092915050565b6000600883026128f17fffffffffffffffffffffffffffffffffffffffffffffffffffffffffffffffff826128b4565b6128fb86836128b4565b95508019841693508086168417925050509392505050565b6000819050919050565b600061293861293361292e8461217f565b612913565b61217f565b9050919050565b6000819050919050565b6129528361291d565b61296661295e8261293f565b8484546128c1565b825550505050565b600090565b61297b61296e565b612986818484612949565b505050565b5b818110156129aa5761299f600082612973565b60018101905061298c565b5050565b601f8211156129ef576129c08161288f565b6129c9846128a4565b810160208510156129d8578190505b6129ec6129e4856128a4565b83018261298b565b50505b505050565b600082821c905092915050565b6000612a12600019846008026129f4565b1980831691505092915050565b6000612a2b8383612a01565b9150826002028217905092915050565b612a44826123d4565b67ffffffffffffffff811115612a5d57612a5c612054565b5b612a67825461285e565b612a728282856129ae565b600060209050601f831160018114612aa55760008415612a93578287015190505b612a9d8582612a1f565b865550612b05565b601f198416612ab38661288f565b60005b82811015612adb57848901518255600182019150602085019450602081019050612ab6565b86831015612af85784890151612af4601f891682612a01565b8355505b6001600288020188555050505b505050505050565b612b168161217f565b82525050565b60006040820190508181036000830152612b36818561270a565b9050612b456020830184612b0d565b9392505050565b7f4e487b7100000000000000000000000000000000000000000000000000000000600052603260045260246000fd5b6000602082019050612b906000830184612b0d565b92915050565b612b9f81612453565b82525050565b6000604082019050612bba6000830185612b96565b8181036020830152612bcc818461270a565b90509392505050565b6000612be08261217f565b9150612beb8361217f565b9250828203905081811115612c0357612c026127b8565b5b92915050565b7f4e487b7100000000000000000000000000000000000000000000000000000000600052603160045260246000fdfe596f7520617265206e6f7420746865206f776e6572206f662074686973206672756974596f7520646f206e6f74206861766520656e6f7567682045544820746f2062757920746869732066727569742e55736572206973206e6f7420726567697374657265642c20796f7520617265206e6f7420616c6c6f77656420746f20646f207468697320616374696f6e2ea2646970667358221220015ac8f5e2e1dcbfc4b6ba36eb19ebdb31cef03049a40e9d6e34ffea0075687964736f6c634300081c0033",
  "linkReferences": {},
  "deployedLinkReferences": {}
}