{
  "contractName": "FruitMarketplace",
  "abi": [
    {
      "inputs": [],
      "stateMutability": "nonpayable",
      "type": "constructor"
    },
    {
      "anonymous": false,
      "inputs": [
        {
          "indexed": false,
          "internalType": "string",
          "name": "name",
          "type": "string"
        },
        {
          "indexed": false,
          "internalType": "uint256",
          "name": "price",
          "type": "uint256"
        },
        {
          "indexed": true,
          "internalType": "address",
          "name": "owner",
          "type": "address"
        }
      ],
      "name": "FruitAdded",
      "type": "event"
    },
    {
      "inputs": [
        {
          "internalType": "uint256",
          "name": "",
          "type": "uint256"
        }
      ],
      "name": "fruits",
      "outputs": [
        {
          "internalType": "string",
          "name": "name",
          "type": "string"
        },
        {
          "internalType": "string",
          "name": "typeOfFruit",
          "type": "string"
        },
        {
          "internalType": "uint256",
          "name": "price",
          "type": "uint256"
        },
        {
          "internalType": "string",
          "name": "seller",
          "type": "string"
        },
        {
          "internalType": "string",
          "name": "icon",
          "type": "string"
        }
      ],
      "stateMutability": "view",
      "type": "function"
    },
    {
      "inputs": [
        {
          "internalType": "string",
          "name": "name",
          "type": "string"
        },
        {
          "internalType": "string",
          "name": "typeOfFruit",
          "type": "string"
        },
        {
          "internalType": "uint256",
          "name": "price",
          "type": "uint256"
        },
        {
          "internalType": "string",
          "name": "seller",
          "type": "string"
        },
        {
          "internalType": "string",
          "name": "icon",
          "type": "string"
        }
      ],
      "name": "addFruit",
      "outputs": [],
      "stateMutability": "nonpayable",
      "type": "function"
    },
    {
      "inputs": [],
      "name": "getFruits",
      "outputs": [
        {
          "components": [
            {
              "internalType": "string",
              "name": "name",
              "type": "string"
            },
            {
              "internalType": "string",
              "name": "typeOfFruit",
              "type": "string"
            },
            {
              "internalType": "uint256",
              "name": "price",
              "type": "uint256"
            },
            {
              "internalType": "string",
              "name": "seller",
              "type": "string"
            },
            {
              "internalType": "string",
              "name": "icon",
              "type": "string"
            }
          ],
          "internalType": "struct FruitMarketplace.Fruit[]",
          "name": "",
          "type": "tuple[]"
        }
      ],
      "stateMutability": "view",
      "type": "function"
    },
    {
      "inputs": [
        {
          "internalType": "uint256",
          "name": "index",
          "type": "uint256"
        }
      ],
      "name": "getFruit",
      "outputs": [
        {
          "internalType": "string",
          "name": "",
          "type": "string"
        },
        {
          "internalType": "string",
          "name": "",
          "type": "string"
        },
        {
          "internalType": "uint256",
          "name": "",
          "type": "uint256"
        },
        {
          "internalType": "string",
          "name": "",
          "type": "string"
        }
      ],
      "stateMutability": "view",
      "type": "function"
    },
    {
      "inputs": [],
      "name": "getFruitsCount",
      "outputs": [
        {
          "internalType": "uint256",
          "name": "",
          "type": "uint256"
        }
      ],
      "stateMutability": "view",
      "type": "function"
    }
  ],
  "bytecode": "0x608060405234801562000010575f80fd5b505f6040518060a001604052806040518060400160405280600581526020017f4170706c6500000000000000000000000000000000000000000000000000000081525081526020016040518060400160405280600581526020017f46727569740000000000000000000000000000000000000000000000000000008152508152602001671b9de674df07000081526020016040518060600160405280602a8152602001620027c4602a913981526020016040518060400160405280600981526020017f49636f6e4170706c650000000000000000000000000000000000000000000000815250815250908060018154018082558091505060019003905f5260205f2090600502015f909190919091505f820151815f0190816200013491906200112b565b5060208201518160010190816200014c91906200112b565b506040820151816002015560608201518160030190816200016e91906200112b565b5060808201518160040190816200018691906200112b565b5050505f6040518060a001604052806040518060400160405280600681526020017f42616e616e61000000000000000000000000000000000000000000000000000081525081526020016040518060400160405280600581526020017f46727569740000000000000000000000000000000000000000000000000000008152508152602001670dbd2fc137a3000081526020016040518060600160405280602a81526020016200271c602a913981526020016040518060400160405280600981526020017f49636f6e4170706c650000000000000000000000000000000000000000000000815250815250908060018154018082558091505060019003905f5260205f2090600502015f909190919091505f820151815f019081620002ac91906200112b565b506020820151816001019081620002c491906200112b565b50604082015181600201556060820151816003019081620002e691906200112b565b506080820151816004019081620002fe91906200112b565b5050505f6040518060a001604052806040518060400160405280600681526020017f4f72616e6765000000000000000000000000000000000000000000000000000081525081526020016040518060400160405280600581526020017f467275697400000000000000000000000000000000000000000000000000000081525081526020016711e7002a5041000081526020016040518060600160405280602a815260200162002818602a913981526020016040518060400160405280600981526020017f49636f6e4c656d6f6e0000000000000000000000000000000000000000000000815250815250908060018154018082558091505060019003905f5260205f2090600502015f909190919091505f820151815f0190816200042491906200112b565b5060208201518160010190816200043c91906200112b565b506040820151816002015560608201518160030190816200045e91906200112b565b5060808201518160040190816200047691906200112b565b5050505f6040518060a001604052806040518060400160405280600681526020017f477261706573000000000000000000000000000000000000000000000000000081525081526020016040518060400160405280600581526020017f4672756974000000000000000000000000000000000000000000000000000000815250815260200167228e41ceb2b9000081526020016040518060600160405280602a8152602001620027ee602a913981526020016040518060400160405280600981526020017f49636f6e4c656d6f6e0000000000000000000000000000000000000000000000815250815250908060018154018082558091505060019003905f5260205f2090600502015f909190919091505f820151815f0190816200059c91906200112b565b506020820151816001019081620005b491906200112b565b50604082015181600201556060820151816003019081620005d691906200112b565b506080820151816004019081620005ee91906200112b565b5050505f6040518060a001604052806040518060400160405280600581526020017f506561636800000000000000000000000000000000000000000000000000000081525081526020016040518060400160405280600581526020017f4672756974000000000000000000000000000000000000000000000000000000815250815260200167297e9d28866b000081526020016040518060600160405280602a81526020016200286c602a913981526020016040518060400160405280600981526020017f49636f6e4c656d6f6e0000000000000000000000000000000000000000000000815250815250908060018154018082558091505060019003905f5260205f2090600502015f909190919091505f820151815f0190816200071491906200112b565b5060208201518160010190816200072c91906200112b565b506040820151816002015560608201518160030190816200074e91906200112b565b5060808201518160040190816200076691906200112b565b5050505f6040518060a001604052806040518060400160405280600981526020017f50696e656170706c65000000000000000000000000000000000000000000000081525081526020016040518060400160405280600581526020017f467275697400000000000000000000000000000000000000000000000000000081525081526020016730927f74c9de000081526020016040518060600160405280602a81526020016200279a602a913981526020016040518060400160405280600981526020017f49636f6e4c656d6f6e0000000000000000000000000000000000000000000000815250815250908060018154018082558091505060019003905f5260205f2090600502015f909190919091505f820151815f0190816200088c91906200112b565b506020820151816001019081620008a491906200112b565b50604082015181600201556060820151816003019081620008c691906200112b565b506080820151816004019081620008de91906200112b565b5050505f6040518060a001604052806040518060400160405280600581526020017f4d616e676f00000000000000000000000000000000000000000000000000000081525081526020016040518060400160405280600581526020017f467275697400000000000000000000000000000000000000000000000000000081525081526020016726b81237cb57000081526020016040518060600160405280602a815260200162002842602a913981526020016040518060400160405280600981526020017f49636f6e4c656d6f6e0000000000000000000000000000000000000000000000815250815250908060018154018082558091505060019003905f5260205f2090600502015f909190919091505f820151815f01908162000a0491906200112b565b50602082015181600101908162000a1c91906200112b565b5060408201518160020155606082015181600301908162000a3e91906200112b565b50608082015181600401908162000a5691906200112b565b5050505f6040518060a001604052806040518060400160405280600a81526020017f537472617762657272790000000000000000000000000000000000000000000081525081526020016040518060400160405280600581526020017f4672756974000000000000000000000000000000000000000000000000000000815250815260200167375f53dc2dcf000081526020016040518060600160405280602a815260200162002746602a913981526020016040518060400160405280600981526020017f49636f6e4c656d6f6e0000000000000000000000000000000000000000000000815250815250908060018154018082558091505060019003905f5260205f2090600502015f909190919091505f820151815f01908162000b7c91906200112b565b50602082015181600101908162000b9491906200112b565b5060408201518160020155606082015181600301908162000bb691906200112b565b50608082015181600401908162000bce91906200112b565b5050505f6040518060a001604052806040518060400160405280600981526020017f426c75656265727279000000000000000000000000000000000000000000000081525081526020016040518060400160405280600581526020017f46727569740000000000000000000000000000000000000000000000000000008152508152602001673e4faf360181000081526020016040518060600160405280602a8152602001620026f2602a913981526020016040518060400160405280600981526020017f49636f6e4170706c650000000000000000000000000000000000000000000000815250815250908060018154018082558091505060019003905f5260205f2090600502015f909190919091505f820151815f01908162000cf491906200112b565b50602082015181600101908162000d0c91906200112b565b5060408201518160020155606082015181600301908162000d2e91906200112b565b50608082015181600401908162000d4691906200112b565b5050505f6040518060a001604052806040518060400160405280600681526020017f436865727279000000000000000000000000000000000000000000000000000081525081526020016040518060400160405280600581526020017f4672756974000000000000000000000000000000000000000000000000000000815250815260200167480695809047000081526020016040518060600160405280602a815260200162002770602a913981526020016040518060400160405280600981526020017f49636f6e4170706c650000000000000000000000000000000000000000000000815250815250908060018154018082558091505060019003905f5260205f2090600502015f909190919091505f820151815f01908162000e6c91906200112b565b50602082015181600101908162000e8491906200112b565b5060408201518160020155606082015181600301908162000ea691906200112b565b50608082015181600401908162000ebe91906200112b565b5050506200120f565b5f81519050919050565b7f4e487b71000000000000000000000000000000000000000000000000000000005f52604160045260245ffd5b7f4e487b71000000000000000000000000000000000000000000000000000000005f52602260045260245ffd5b5f600282049050600182168062000f4357607f821691505b60208210810362000f595762000f5862000efe565b5b50919050565b5f819050815f5260205f209050919050565b5f6020601f8301049050919050565b5f82821b905092915050565b5f6008830262000fbd7fffffffffffffffffffffffffffffffffffffffffffffffffffffffffffffffff8262000f80565b62000fc9868362000f80565b95508019841693508086168417925050509392505050565b5f819050919050565b5f819050919050565b5f620010136200100d620010078462000fe1565b62000fea565b62000fe1565b9050919050565b5f819050919050565b6200102e8362000ff3565b620010466200103d826200101a565b84845462000f8c565b825550505050565b5f90565b6200105c6200104e565b6200106981848462001023565b505050565b5b818110156200109057620010845f8262001052565b6001810190506200106f565b5050565b601f821115620010df57620010a98162000f5f565b620010b48462000f71565b81016020851015620010c4578190505b620010dc620010d38562000f71565b8301826200106e565b50505b505050565b5f82821c905092915050565b5f620011015f1984600802620010e4565b1980831691505092915050565b5f6200111b8383620010f0565b9150826002028217905092915050565b620011368262000ec7565b67ffffffffffffffff81111562001152576200115162000ed1565b5b6200115e825462000f2b565b6200116b82828562001094565b5f60209050601f831160018114620011a1575f84156200118c578287015190505b6200119885826200110e565b86555062001207565b601f198416620011b18662000f5f565b5f5b82811015620011da57848901518255600182019150602085019450602081019050620011b3565b86831015620011fa5784890151620011f6601f891682620010f0565b8355505b6001600288020188555050505b505050505050565b6114d5806200121d5f395ff3fe608060405234801561000f575f80fd5b5060043610610055575f3560e01c806376ce7fe9146100595780639a9be79c1461008c578063c4172162146100aa578063cf34e1d6146100de578063e6958cf7146100fa575b5f80fd5b610073600480360381019061006e9190610ad4565b610118565b6040516100839493929190610b98565b60405180910390f35b6100946103fd565b6040516100a19190610bf0565b60405180910390f35b6100c460048036038101906100bf9190610ad4565b610408565b6040516100d5959493929190610c09565b60405180910390f35b6100f860048036038101906100f39190610da2565b610660565b005b6101026107ec565b60405161010f9190611023565b60405180910390f35b6060805f60605f805490508510610164576040517f08c379a000000000000000000000000000000000000000000000000000000000815260040161015b9061108d565b60405180910390fd5b5f808681548110610178576101776110ab565b5b905f5260205f2090600502016040518060a00160405290815f8201805461019e90611105565b80601f01602080910402602001604051908101604052809291908181526020018280546101ca90611105565b80156102155780601f106101ec57610100808354040283529160200191610215565b820191905f5260205f20905b8154815290600101906020018083116101f857829003601f168201915b5050505050815260200160018201805461022e90611105565b80601f016020809104026020016040519081016040528092919081815260200182805461025a90611105565b80156102a55780601f1061027c576101008083540402835291602001916102a5565b820191905f5260205f20905b81548152906001019060200180831161028857829003601f168201915b50505050508152602001600282015481526020016003820180546102c890611105565b80601f01602080910402602001604051908101604052809291908181526020018280546102f490611105565b801561033f5780601f106103165761010080835404028352916020019161033f565b820191905f5260205f20905b81548152906001019060200180831161032257829003601f168201915b5050505050815260200160048201805461035890611105565b80601f016020809104026020016040519081016040528092919081815260200182805461038490611105565b80156103cf5780601f106103a6576101008083540402835291602001916103cf565b820191905f5260205f20905b8154815290600101906020018083116103b257829003601f168201915b5050505050815250509050805f01518160200151826040015183606001519450945094509450509193509193565b5f8080549050905090565b5f8181548110610416575f80fd5b905f5260205f2090600502015f91509050805f01805461043590611105565b80601f016020809104026020016040519081016040528092919081815260200182805461046190611105565b80156104ac5780601f10610483576101008083540402835291602001916104ac565b820191905f5260205f20905b81548152906001019060200180831161048f57829003601f168201915b5050505050908060010180546104c190611105565b80601f01602080910402602001604051908101604052809291908181526020018280546104ed90611105565b80156105385780601f1061050f57610100808354040283529160200191610538565b820191905f5260205f20905b81548152906001019060200180831161051b57829003601f168201915b50505050509080600201549080600301805461055390611105565b80601f016020809104026020016040519081016040528092919081815260200182805461057f90611105565b80156105ca5780601f106105a1576101008083540402835291602001916105ca565b820191905f5260205f20905b8154815290600101906020018083116105ad57829003601f168201915b5050505050908060040180546105df90611105565b80601f016020809104026020016040519081016040528092919081815260200182805461060b90611105565b80156106565780601f1061062d57610100808354040283529160200191610656565b820191905f5260205f20905b81548152906001019060200180831161063957829003601f168201915b5050505050905085565b5f8551116106a3576040517f08c379a000000000000000000000000000000000000000000000000000000000815260040161069a9061117f565b60405180910390fd5b5f83116106e5576040517f08c379a00000000000000000000000000000000000000000000000000000000081526004016106dc906111e7565b60405180910390fd5b5f6040518060a0016040528087815260200186815260200185815260200184815260200183815250908060018154018082558091505060019003905f5260205f2090600502015f909190919091505f820151815f01908161074691906113a2565b50602082015181600101908161075c91906113a2565b5060408201518160020155606082015181600301908161077c91906113a2565b50608082015181600401908161079291906113a2565b5050503373ffffffffffffffffffffffffffffffffffffffff167f343ea0f43346c1e3c2fadd853cce952f53d43f91b20fdfaaf1f572ab650dad3086856040516107dd929190611471565b60405180910390a25050505050565b60605f805480602002602001604051908101604052809291908181526020015f905b82821015610a87578382905f5260205f2090600502016040518060a00160405290815f8201805461083e90611105565b80601f016020809104026020016040519081016040528092919081815260200182805461086a90611105565b80156108b55780601f1061088c576101008083540402835291602001916108b5565b820191905f5260205f20905b81548152906001019060200180831161089857829003601f168201915b505050505081526020016001820180546108ce90611105565b80601f01602080910402602001604051908101604052809291908181526020018280546108fa90611105565b80156109455780601f1061091c57610100808354040283529160200191610945565b820191905f5260205f20905b81548152906001019060200180831161092857829003601f168201915b505050505081526020016002820154815260200160038201805461096890611105565b80601f016020809104026020016040519081016040528092919081815260200182805461099490611105565b80156109df5780601f106109b6576101008083540402835291602001916109df565b820191905f5260205f20905b8154815290600101906020018083116109c257829003601f168201915b505050505081526020016004820180546109f890611105565b80601f0160208091040260200160405190810160405280929190818152602001828054610a2490611105565b8015610a6f5780601f10610a4657610100808354040283529160200191610a6f565b820191905f5260205f20905b815481529060010190602001808311610a5257829003601f168201915b5050505050815250508152602001906001019061080e565b50505050905090565b5f604051905090565b5f80fd5b5f80fd5b5f819050919050565b610ab381610aa1565b8114610abd575f80fd5b50565b5f81359050610ace81610aaa565b92915050565b5f60208284031215610ae957610ae8610a99565b5b5f610af684828501610ac0565b91505092915050565b5f81519050919050565b5f82825260208201905092915050565b5f5b83811015610b36578082015181840152602081019050610b1b565b5f8484015250505050565b5f601f19601f8301169050919050565b5f610b5b82610aff565b610b658185610b09565b9350610b75818560208601610b19565b610b7e81610b41565b840191505092915050565b610b9281610aa1565b82525050565b5f6080820190508181035f830152610bb08187610b51565b90508181036020830152610bc48186610b51565b9050610bd36040830185610b89565b8181036060830152610be58184610b51565b905095945050505050565b5f602082019050610c035f830184610b89565b92915050565b5f60a0820190508181035f830152610c218188610b51565b90508181036020830152610c358187610b51565b9050610c446040830186610b89565b8181036060830152610c568185610b51565b90508181036080830152610c6a8184610b51565b90509695505050505050565b5f80fd5b5f80fd5b7f4e487b71000000000000000000000000000000000000000000000000000000005f52604160045260245ffd5b610cb482610b41565b810181811067ffffffffffffffff82111715610cd357610cd2610c7e565b5b80604052505050565b5f610ce5610a90565b9050610cf18282610cab565b919050565b5f67ffffffffffffffff821115610d1057610d0f610c7e565b5b610d1982610b41565b9050602081019050919050565b828183375f83830152505050565b5f610d46610d4184610cf6565b610cdc565b905082815260208101848484011115610d6257610d61610c7a565b5b610d6d848285610d26565b509392505050565b5f82601f830112610d8957610d88610c76565b5b8135610d99848260208601610d34565b91505092915050565b5f805f805f60a08688031215610dbb57610dba610a99565b5b5f86013567ffffffffffffffff811115610dd857610dd7610a9d565b5b610de488828901610d75565b955050602086013567ffffffffffffffff811115610e0557610e04610a9d565b5b610e1188828901610d75565b9450506040610e2288828901610ac0565b935050606086013567ffffffffffffffff811115610e4357610e42610a9d565b5b610e4f88828901610d75565b925050608086013567ffffffffffffffff811115610e7057610e6f610a9d565b5b610e7c88828901610d75565b9150509295509295909350565b5f81519050919050565b5f82825260208201905092915050565b5f819050602082019050919050565b5f82825260208201905092915050565b5f610ecc82610aff565b610ed68185610eb2565b9350610ee6818560208601610b19565b610eef81610b41565b840191505092915050565b610f0381610aa1565b82525050565b5f60a083015f8301518482035f860152610f238282610ec2565b91505060208301518482036020860152610f3d8282610ec2565b9150506040830151610f526040860182610efa565b5060608301518482036060860152610f6a8282610ec2565b91505060808301518482036080860152610f848282610ec2565b9150508091505092915050565b5f610f9c8383610f09565b905092915050565b5f602082019050919050565b5f610fba82610e89565b610fc48185610e93565b935083602082028501610fd685610ea3565b805f5b858110156110115784840389528151610ff28582610f91565b9450610ffd83610fa4565b925060208a01995050600181019050610fd9565b50829750879550505050505092915050565b5f6020820190508181035f83015261103b8184610fb0565b905092915050565b7f467275697420696e6578697374616e74000000000000000000000000000000005f82015250565b5f611077601083610b09565b915061108282611043565b602082019050919050565b5f6020820190508181035f8301526110a48161106b565b9050919050565b7f4e487b71000000000000000000000000000000000000000000000000000000005f52603260045260245ffd5b7f4e487b71000000000000000000000000000000000000000000000000000000005f52602260045260245ffd5b5f600282049050600182168061111c57607f821691505b60208210810361112f5761112e6110d8565b5b50919050565b7f4672756974206e616d652073686f756c64206e6f7420626520656d70747900005f82015250565b5f611169601e83610b09565b915061117482611135565b602082019050919050565b5f6020820190508181035f8301526111968161115d565b9050919050565b7f546865207072696365206d7573742062652067726561746572207468616e20305f82015250565b5f6111d1602083610b09565b91506111dc8261119d565b602082019050919050565b5f6020820190508181035f8301526111fe816111c5565b9050919050565b5f819050815f5260205f209050919050565b5f6020601f8301049050919050565b5f82821b905092915050565b5f600883026112617fffffffffffffffffffffffffffffffffffffffffffffffffffffffffffffffff82611226565b61126b8683611226565b95508019841693508086168417925050509392505050565b5f819050919050565b5f6112a66112a161129c84610aa1565b611283565b610aa1565b9050919050565b5f819050919050565b6112bf8361128c565b6112d36112cb826112ad565b848454611232565b825550505050565b5f90565b6112e76112db565b6112f28184846112b6565b505050565b5b818110156113155761130a5f826112df565b6001810190506112f8565b5050565b601f82111561135a5761132b81611205565b61133484611217565b81016020851015611343578190505b61135761134f85611217565b8301826112f7565b50505b505050565b5f82821c905092915050565b5f61137a5f198460080261135f565b1980831691505092915050565b5f611392838361136b565b9150826002028217905092915050565b6113ab82610aff565b67ffffffffffffffff8111156113c4576113c3610c7e565b5b6113ce8254611105565b6113d9828285611319565b5f60209050601f83116001811461140a575f84156113f8578287015190505b6114028582611387565b865550611469565b601f19841661141886611205565b5f5b8281101561143f5784890151825560018201915060208501945060208101905061141a565b8683101561145c5784890151611458601f89168261136b565b8355505b6001600288020188555050505b505050505050565b5f6040820190508181035f8301526114898185610b51565b90506114986020830184610b89565b939250505056fea264697066735822122056679ec58c0b0cbacfc50f661f6e9abdede971f153fbcd3d3647da5318b4f55d64736f6c63430008150033307842396530633666333436454633383236413531356441334637333637353634343645354639443646307835664531413562363139413745344564363544344533466436323061386234626235423662463246307831433545396633624436383942396235653966464565356233623534323044376439346237443045307844466137323841383335466443426566633943333865314332453939393136333637363835453344307837333965396441316535394637366265436561313245344432334337393830364539374332666532307844333444626545663946376131433634443162383335356239336141664444344230633664353061307841623233433564373535386138453963374635623565313041663343313146354137446666443744307845344239353335423930416537466436433864313235623246643235343436343142326343316532307846356235394232323346353765324330423838414338624434386145363245323132396433383835307830453946353034323966386639376546336661373466316339423536344565353563416634333631",
  "immutableReferences": {},
  "source": "// SPDX-License-Identifier: UNLICENSED\npragma solidity ^0.8.0;\n\ncontract FruitMarketplace {\n    struct Fruit {\n        string name;\n        string typeOfFruit;\n        uint256 price;\n        string seller;\n        string icon;\n    }\n\n    Fruit[] public fruits;\n\n    constructor() {\n        fruits.push(Fruit(\"Apple\", \"Fruit\", 1.99 ether, \"0xD34DbeEf9F7a1C64D1b8355b93aAfDD4B0c6d50a\", \"IconApple\"));\n        fruits.push(Fruit(\"Banana\", \"Fruit\", 0.99 ether, \"0x5fE1A5b619A7E4Ed65D4E3Fd620a8b4bb5B6bF2F\", \"IconApple\"));\n        fruits.push(Fruit(\"Orange\", \"Fruit\", 1.29 ether, \"0xE4B9535B90Ae7Fd6C8d125b2Fd2544641B2cC1e2\", \"IconLemon\"));\n        fruits.push(Fruit(\"Grapes\", \"Fruit\", 2.49 ether, \"0xAb23C5d7558a8E9c7F5b5e10Af3C11F5A7DffD7D\", \"IconLemon\"));\n        fruits.push(Fruit(\"Peach\", \"Fruit\", 2.99 ether, \"0x0E9F50429f8f97eF3fa74f1c9B564Ee55cAf4361\", \"IconLemon\"));\n        fruits.push(Fruit(\"Pineapple\", \"Fruit\", 3.5 ether, \"0x739e9dA1e59F76beCea12E4D23C79806E97C2fe2\", \"IconLemon\"));\n        fruits.push(Fruit(\"Mango\", \"Fruit\", 2.79 ether, \"0xF5b59B223F57e2C0B88AC8bD48aE62E2129d3885\", \"IconLemon\"));\n        fruits.push(Fruit(\"Strawberry\", \"Fruit\", 3.99 ether, \"0x1C5E9f3bD689B9b5e9fFEe5b3b5420D7d94b7D0E\", \"IconLemon\"));\n        fruits.push(Fruit(\"Blueberry\", \"Fruit\", 4.49 ether, \"0xB9e0c6f346EF3826A515dA3F736756446E5F9D6F\", \"IconApple\"));\n        fruits.push(Fruit(\"Cherry\", \"Fruit\", 5.19 ether, \"0xDFa728A835FdCBefc9C38e1C2E99916367685E3D\", \"IconApple\"));\n    }\n\n    event FruitAdded(string name, uint price, address indexed owner);\n\n    function addFruit(string memory name, string memory typeOfFruit, uint price, string memory seller, string memory icon) public {\n        require(bytes(name).length > 0, \"Fruit name should not be empty\");\n        require(price > 0, \"The price must be greater than 0\");\n \n        fruits.push(Fruit(name, typeOfFruit, price, seller, icon));\n\n        emit FruitAdded(name, price, msg.sender);\n    }\n\n    function getFruits() public view returns (Fruit[]memory) {\n        return fruits;\n    }\n\n    function getFruit(uint index) public view returns (string memory, string memory, uint, string memory) {\n        require(index < fruits.length, \"Fruit inexistant\");\n\n        Fruit memory fruit = fruits[index];\n        return (fruit.name, fruit.typeOfFruit, fruit.price, fruit.seller);\n    }\n\n    function getFruitsCount() public view returns (uint) {\n        return fruits.length;\n    }\n}",
  "sourcePath": "/Users/wguilbert/Documents/fruity-dapp/contracts/FruitMarketplace.sol",
  "compiler": {
    "name": "solc",
    "version": "0.8.21+commit.d9974bed.Emscripten.clang"
  },
  "schemaVersion": "3.4.16",
  "updatedAt": "2025-03-31T15:52:13.728Z",
  "devdoc": {
    "kind": "dev",
    "methods": {},
    "version": 1
  },
  "userdoc": {
    "kind": "user",
    "methods": {},
    "version": 1
  }
}