{
  "contractName": "FruitMarketplace",
  "abi": [
    {
      "anonymous": false,
      "inputs": [
        {
          "indexed": false,
          "internalType": "string",
          "name": "name",
          "type": "string"
        },
        {
          "indexed": false,
          "internalType": "uint256",
          "name": "price",
          "type": "uint256"
        },
        {
          "indexed": true,
          "internalType": "address",
          "name": "owner",
          "type": "address"
        }
      ],
      "name": "FruitAdded",
      "type": "event"
    },
    {
      "inputs": [
        {
          "internalType": "uint256",
          "name": "",
          "type": "uint256"
        }
      ],
      "name": "fruits",
      "outputs": [
        {
          "internalType": "string",
          "name": "name",
          "type": "string"
        },
        {
          "internalType": "string",
          "name": "typeOfFruit",
          "type": "string"
        },
        {
          "internalType": "uint256",
          "name": "price",
          "type": "uint256"
        },
        {
          "internalType": "string",
          "name": "seller",
          "type": "string"
        }
      ],
      "stateMutability": "view",
      "type": "function"
    },
    {
      "inputs": [
        {
          "internalType": "string",
          "name": "name",
          "type": "string"
        },
        {
          "internalType": "string",
          "name": "typeOfFruit",
          "type": "string"
        },
        {
          "internalType": "uint256",
          "name": "price",
          "type": "uint256"
        },
        {
          "internalType": "string",
          "name": "seller",
          "type": "string"
        }
      ],
      "name": "addFruit",
      "outputs": [],
      "stateMutability": "nonpayable",
      "type": "function"
    },
    {
      "inputs": [
        {
          "internalType": "uint256",
          "name": "index",
          "type": "uint256"
        }
      ],
      "name": "getFruit",
      "outputs": [
        {
          "internalType": "string",
          "name": "",
          "type": "string"
        },
        {
          "internalType": "string",
          "name": "",
          "type": "string"
        },
        {
          "internalType": "uint256",
          "name": "",
          "type": "uint256"
        },
        {
          "internalType": "string",
          "name": "",
          "type": "string"
        }
      ],
      "stateMutability": "view",
      "type": "function"
    },
    {
      "inputs": [],
      "name": "getFruitsCount",
      "outputs": [
        {
          "internalType": "uint256",
          "name": "",
          "type": "uint256"
        }
      ],
      "stateMutability": "view",
      "type": "function"
    }
  ],
  "bytecode": "0x608060405234801561000f575f80fd5b50610e788061001d5f395ff3fe608060405234801561000f575f80fd5b506004361061004a575f3560e01c806376ce7fe91461004e5780639a9be79c14610081578063c41721621461009f578063cf1da83c146100d2575b5f80fd5b610068600480360381019061006391906106cd565b6100ee565b6040516100789493929190610791565b60405180910390f35b610089610343565b60405161009691906107e9565b60405180910390f35b6100b960048036038101906100b491906106cd565b61034e565b6040516100c99493929190610791565b60405180910390f35b6100ec60048036038101906100e7919061092e565b61051a565b005b6060805f60605f80549050851061013a576040517f08c379a000000000000000000000000000000000000000000000000000000000815260040161013190610a30565b60405180910390fd5b5f80868154811061014e5761014d610a4e565b5b905f5260205f2090600402016040518060800160405290815f8201805461017490610aa8565b80601f01602080910402602001604051908101604052809291908181526020018280546101a090610aa8565b80156101eb5780601f106101c2576101008083540402835291602001916101eb565b820191905f5260205f20905b8154815290600101906020018083116101ce57829003601f168201915b5050505050815260200160018201805461020490610aa8565b80601f016020809104026020016040519081016040528092919081815260200182805461023090610aa8565b801561027b5780601f106102525761010080835404028352916020019161027b565b820191905f5260205f20905b81548152906001019060200180831161025e57829003601f168201915b505050505081526020016002820154815260200160038201805461029e90610aa8565b80601f01602080910402602001604051908101604052809291908181526020018280546102ca90610aa8565b80156103155780601f106102ec57610100808354040283529160200191610315565b820191905f5260205f20905b8154815290600101906020018083116102f857829003601f168201915b5050505050815250509050805f01518160200151826040015183606001519450945094509450509193509193565b5f8080549050905090565b5f818154811061035c575f80fd5b905f5260205f2090600402015f91509050805f01805461037b90610aa8565b80601f01602080910402602001604051908101604052809291908181526020018280546103a790610aa8565b80156103f25780601f106103c9576101008083540402835291602001916103f2565b820191905f5260205f20905b8154815290600101906020018083116103d557829003601f168201915b50505050509080600101805461040790610aa8565b80601f016020809104026020016040519081016040528092919081815260200182805461043390610aa8565b801561047e5780601f106104555761010080835404028352916020019161047e565b820191905f5260205f20905b81548152906001019060200180831161046157829003601f168201915b50505050509080600201549080600301805461049990610aa8565b80601f01602080910402602001604051908101604052809291908181526020018280546104c590610aa8565b80156105105780601f106104e757610100808354040283529160200191610510565b820191905f5260205f20905b8154815290600101906020018083116104f357829003601f168201915b5050505050905084565b5f84511161055d576040517f08c379a000000000000000000000000000000000000000000000000000000000815260040161055490610b22565b60405180910390fd5b5f821161059f576040517f08c379a000000000000000000000000000000000000000000000000000000000815260040161059690610b8a565b60405180910390fd5b5f604051806080016040528086815260200185815260200184815260200183815250908060018154018082558091505060019003905f5260205f2090600402015f909190919091505f820151815f0190816105fa9190610d45565b5060208201518160010190816106109190610d45565b506040820151816002015560608201518160030190816106309190610d45565b5050503373ffffffffffffffffffffffffffffffffffffffff167f343ea0f43346c1e3c2fadd853cce952f53d43f91b20fdfaaf1f572ab650dad30858460405161067b929190610e14565b60405180910390a250505050565b5f604051905090565b5f80fd5b5f80fd5b5f819050919050565b6106ac8161069a565b81146106b6575f80fd5b50565b5f813590506106c7816106a3565b92915050565b5f602082840312156106e2576106e1610692565b5b5f6106ef848285016106b9565b91505092915050565b5f81519050919050565b5f82825260208201905092915050565b5f5b8381101561072f578082015181840152602081019050610714565b5f8484015250505050565b5f601f19601f8301169050919050565b5f610754826106f8565b61075e8185610702565b935061076e818560208601610712565b6107778161073a565b840191505092915050565b61078b8161069a565b82525050565b5f6080820190508181035f8301526107a9818761074a565b905081810360208301526107bd818661074a565b90506107cc6040830185610782565b81810360608301526107de818461074a565b905095945050505050565b5f6020820190506107fc5f830184610782565b92915050565b5f80fd5b5f80fd5b7f4e487b71000000000000000000000000000000000000000000000000000000005f52604160045260245ffd5b6108408261073a565b810181811067ffffffffffffffff8211171561085f5761085e61080a565b5b80604052505050565b5f610871610689565b905061087d8282610837565b919050565b5f67ffffffffffffffff82111561089c5761089b61080a565b5b6108a58261073a565b9050602081019050919050565b828183375f83830152505050565b5f6108d26108cd84610882565b610868565b9050828152602081018484840111156108ee576108ed610806565b5b6108f98482856108b2565b509392505050565b5f82601f83011261091557610914610802565b5b81356109258482602086016108c0565b91505092915050565b5f805f806080858703121561094657610945610692565b5b5f85013567ffffffffffffffff81111561096357610962610696565b5b61096f87828801610901565b945050602085013567ffffffffffffffff8111156109905761098f610696565b5b61099c87828801610901565b93505060406109ad878288016106b9565b925050606085013567ffffffffffffffff8111156109ce576109cd610696565b5b6109da87828801610901565b91505092959194509250565b7f467275697420696e6578697374616e74000000000000000000000000000000005f82015250565b5f610a1a601083610702565b9150610a25826109e6565b602082019050919050565b5f6020820190508181035f830152610a4781610a0e565b9050919050565b7f4e487b71000000000000000000000000000000000000000000000000000000005f52603260045260245ffd5b7f4e487b71000000000000000000000000000000000000000000000000000000005f52602260045260245ffd5b5f6002820490506001821680610abf57607f821691505b602082108103610ad257610ad1610a7b565b5b50919050565b7f4672756974206e616d652073686f756c64206e6f7420626520656d70747900005f82015250565b5f610b0c601e83610702565b9150610b1782610ad8565b602082019050919050565b5f6020820190508181035f830152610b3981610b00565b9050919050565b7f546865207072696365206d7573742062652067726561746572207468616e20305f82015250565b5f610b74602083610702565b9150610b7f82610b40565b602082019050919050565b5f6020820190508181035f830152610ba181610b68565b9050919050565b5f819050815f5260205f209050919050565b5f6020601f8301049050919050565b5f82821b905092915050565b5f60088302610c047fffffffffffffffffffffffffffffffffffffffffffffffffffffffffffffffff82610bc9565b610c0e8683610bc9565b95508019841693508086168417925050509392505050565b5f819050919050565b5f610c49610c44610c3f8461069a565b610c26565b61069a565b9050919050565b5f819050919050565b610c6283610c2f565b610c76610c6e82610c50565b848454610bd5565b825550505050565b5f90565b610c8a610c7e565b610c95818484610c59565b505050565b5b81811015610cb857610cad5f82610c82565b600181019050610c9b565b5050565b601f821115610cfd57610cce81610ba8565b610cd784610bba565b81016020851015610ce6578190505b610cfa610cf285610bba565b830182610c9a565b50505b505050565b5f82821c905092915050565b5f610d1d5f1984600802610d02565b1980831691505092915050565b5f610d358383610d0e565b9150826002028217905092915050565b610d4e826106f8565b67ffffffffffffffff811115610d6757610d6661080a565b5b610d718254610aa8565b610d7c828285610cbc565b5f60209050601f831160018114610dad575f8415610d9b578287015190505b610da58582610d2a565b865550610e0c565b601f198416610dbb86610ba8565b5f5b82811015610de257848901518255600182019150602085019450602081019050610dbd565b86831015610dff5784890151610dfb601f891682610d0e565b8355505b6001600288020188555050505b505050505050565b5f6040820190508181035f830152610e2c818561074a565b9050610e3b6020830184610782565b939250505056fea26469706673582212204700664f5b90f9bfe2b8146c0b9c8439d44f12af09117fa7fd63210d975941c164736f6c63430008150033",
  "immutableReferences": {},
  "source": "// SPDX-License-Identifier: UNLICENSED\r\npragma solidity ^0.8.0;\r\n\r\ncontract FruitMarketplace {\r\n    struct Fruit {\r\n        string name;\r\n        string typeOfFruit;\r\n        uint price;\r\n        string seller;\r\n    }\r\n\r\n    Fruit[] public fruits;\r\n\r\n    event FruitAdded(string name, uint price, address indexed owner);\r\n\r\n    function addFruit(string memory name, string memory typeOfFruit, uint price, string memory seller) public {\r\n        require(bytes(name).length > 0, \"Fruit name should not be empty\");\r\n        require(price > 0, \"The price must be greater than 0\");\r\n \r\n        fruits.push(Fruit(name, typeOfFruit, price, seller));\r\n\r\n        emit FruitAdded(name, price, msg.sender);\r\n    }\r\n\r\n    function getFruit(uint index) public view returns (string memory, string memory, uint, string memory) {\r\n        require(index < fruits.length, \"Fruit inexistant\");\r\n\r\n        Fruit memory fruit = fruits[index];\r\n        return (fruit.name, fruit.typeOfFruit, fruit.price, fruit.seller);\r\n    }\r\n\r\n    function getFruitsCount() public view returns (uint) {\r\n        return fruits.length;\r\n    }\r\n}",
  "sourcePath": "C:\\Users\\Utilisateur\\Documents\\uni2024\\BlockChain\\fruitydapp\\contracts\\FruitMarketplace.sol",
  "compiler": {
    "name": "solc",
    "version": "0.8.21+commit.d9974bed.Emscripten.clang"
  },
  "schemaVersion": "3.4.16",
  "updatedAt": "2025-03-28T20:24:49.027Z",
  "devdoc": {
    "kind": "dev",
    "methods": {},
    "version": 1
  },
  "userdoc": {
    "kind": "user",
    "methods": {},
    "version": 1
  }
}